:100000000C9414010C9433010C9433010C943301BF
:100010000C9433010C9433010C9433010C94330190
:100020000C94F3050C9433010C94E9050C94330102
:100030000C94D7050C9433010C9433010C943301C8
:100040000C9427060C9433010C9433010C94330167
:100050000C9433010C9433010C9433010C94330150
:100060000C9433010C9433010C9433010C94330140
:100070000C9433010C9433010C9433010C94330130
:100080000C9433010C94340D0C943301750D4C0D0C
:100090004C0D4C0D4C0D4C0D4C0D4C0D750D4C0D6F
:1000A0004C0D4C0D4C0D4C0D4C0D4C0D7F0D4C0D55
:1000B0004C0D4C0D4C0D4C0D4C0D4C0D4C0D4C0D78
:1000C0004C0D4C0D4C0D4C0D4C0D4C0D7F0D4C0D35
:1000D0004C0D4C0D4C0D4C0D4C0D4C0D4C0D4C0D58
:1000E0004C0D4C0D4C0D4C0D4C0D4C0D960D4C0DFE
:1000F0004C0D4C0D4C0D4C0D4C0D4C0D9A0D4C0DEA
:100100004C0D4C0D4C0D4C0D4C0D4C0D4C0D4C0D27
:100110004C0D4C0D4C0D4C0D4C0D4C0DA80D4C0DBB
:100120004C0D4C0D4C0D4C0D4C0D4C0D660D004006
:100130007A10F35A00A0724E18090010A5D4E800F6
:1001400000E87648170000E40B54020000CA9A3B0E
:10015000000000E1F5050000809698000000404294
:100160000F000000A0860100000010270000000022
:10017000E803000000006400000000000A00000026
:1001800000000100000000002C76D888DC674F08D2
:1001900023DFC1DFAE59E1B1B796E5E3E453C63AD8
:1001A000E651997696E8E6C28426EB898C9B62ED4F
:1001B000407C6FFCEFBC9C9F40F2BAA56FA5F49009
:1001C000055A2AF75C936B6CF9676DC11BFCE0E480
:1001D0000D47FEF520E6B500D0ED902E03009435D6
:1001E00077050080841E080000204E0A000000C829
:1001F0000C333333330F986E12831141EF8D21147A
:10020000893BE65516CFFEE6DB18D1844B381BF749
:100210007C1D901DA4BBE424203284725E228100E8
:10022000C9F124ECA1E53D2711241FBECFEFD0E199
:10023000DEBFCDBF12E0A0E0B1E0E8E3FCE200E009
:100240000BBF02C007900D92A433B107D9F723E08A
:10025000A4E3B2E001C01D92A937B207E1F70E9402
:10026000A0100C941A160C9400006FE370E081E06B
:1002700090E40E941E0F10923702089560E070E033
:1002800081E090E40E941E0F109237020895E1E68B
:10029000F0E080818F778083E2E6F0E080818F77E5
:1002A000808387B1876487B986B1876886B90895E6
:1002B000CF93DF93369A349BFECF349AC4B1D5B135
:1002C0006DEC70E08C2F90E00E9464139093BE025E
:1002D0008093BD02C3BDDF91CF91089587B387603E
:1002E00087BB80E58DB981E08EB9E1E6F0E08081E1
:1002F00088608083E2E6F0E08081877F80830895D4
:100300001FB8779BFECF8FB1089580B7886080BFFC
:1003100087B7816087BF83B7816083BF08958D9A57
:100320008EB589608EBD8FE99FE09BBD8ABD87B782
:10033000806187BF089587B7806487BF85B5896767
:1003400085BD88EC83BD08958FB9779BFECF949AC5
:1003500094980895809142028130A1F180E28093C7
:10036000020180930301809304018093050180932F
:10037000060180930701E8E0F1E0A2E1B1E080E24C
:10038000819391E0E231F907D9F7E1E8F2E0819158
:100390008D9382E0E738F807D1F780E28093180167
:1003A000E1E7F2E0A9E1B1E081918D9392E0E737D6
:1003B000F907D1F780E280931F0180932001809399
:1003C0002101089581E4809302019CE4909303014C
:1003D0008093040182E5809305018DE480930601FA
:1003E000CACF80913C02811114C0809142028111D8
:1003F0002AC0809141028823B1F010923C02809182
:100400003B028A3081F187B78F7E87BF1BBC1ABC45
:100410000895809142028111ECCF10923C028091AC
:1004200041028111EACF80913B028A30E1F0809154
:100430003C02882341F387B7806187BF8FE99FE043
:100440009BBD8ABD08959091560280912201981318
:10045000D0CF9091550280913D029813CACF81E090
:1004600080933C02C6CF81E080933C02109241020F
:1004700010923B0287B7806187BF8FE99FE09BBDE9
:100480008ABD0895482FE82FF0E099B3EE0FFF1FC3
:10049000E85AFD4F20813181220F331F306E892FA2
:1004A00090E002C0959587954A95E2F7817099276B
:1004B000282B392B3183208381E021153F4F09F010
:1004C00080E008951ABA8FEF8BBB88B3806788BB32
:1004D000E8E5F2E061E070E020E030E0A1E008C093
:1004E0006830710509F446C02F5F3F4F6F5F7F4F43
:1004F00099B340815181440F551F506E892F90E070
:10050000022E02C0959587950A94E2F7817099278B
:10051000842B952B8193919381159F4F09F7273059
:100520003105E1F02630310509F450C025303105A0
:1005300009F442C024303105B9F12330310589F185
:100540002230310501F12130310551F6A0934902E5
:1005500080913A028A2780933A02C6CF81E0809345
:100560004F029091440289278093440210924302E3
:1005700010923602E8E4F2E081E592E011928E17E3
:100580009F07E1F70895A0934A02809136028A27D7
:10059000809336021092430210924402A0933502D7
:1005A000A3CFA0934B02A0CFA0934C028091410215
:1005B0008A278093410298CFA0934D0280914202F6
:1005C0008A2780934202A0933E028ECFA0934E02D0
:1005D000809143028A27809343021092440284CF81
:1005E000909155029C33DCF48091560288312CF0B6
:1005F0001092560297FD08C0089587FFFBCF87E150
:100600008093560297FFF8CF8BE380935502809139
:100610005602815087FD87E180935602089510921B
:100620005502809156028F5F8093560290E0DECF94
:1006300080913C02811109C080913602813041F0E5
:10064000811102C010923702089580913602F8CFCE
:1006500080933702089590913D029C33DCF48091A1
:10066000220188312CF01092220197FD08C00895D4
:1006700087FFFBCF87E18093220197FFF8CF8BE3C1
:1006800080933D0280912201815087FD87E1809314
:100690002201089510923D02809122018F5F809384
:1006A000220190E0DECF809100019091010187321C
:1006B0009A4230F08AE692E2909301018093000121
:1006C00080910001909101018A36924230F486E2D5
:1006D0009AE2909301018093000108958091440271
:1006E0008130B9F0809143028130A9F080914002BD
:1006F000813099F080913F02813099F080913A02E7
:10070000813069F080E08FB9779BFECF949A9498FE
:10071000089581E0F8CF82E0F6CF88E0F4CF80E85A
:10072000F2CF80E1F0CF93B180E4982793B993B1F1
:10073000892783B983B1805883B91FB8779BFECFCF
:100740008FB18093540283B1805883B94091540291
:10075000542F87E090E061E070E09B01082E01C01B
:10076000220F0A94EAF720955223019781309105D0
:10077000A1F7509352024695469587E090E061E0DC
:1007800070E09B01082E01C0220F0A94EAF7209521
:100790004223019781309105A1F740935002809147
:1007A0004702811107C0509353024093510281E0E8
:1007B00080934702533031F150935302433009F490
:1007C00052C0409351020E94F0020E942B0380917C
:1007D00000019091010187329A4230F08AE692E25C
:1007E000909301018093000180910001909101019B
:1007F0008A36924230F486E29AE290930101809325
:100800000001089580915302813009F460C0823064
:1008100099F680914402882339F0809156028150E4
:10082000809356021092B80280914302882329F0E7
:100830008091220181508093220180913702882388
:1008400061F0809100019091010144979093010122
:100850008093000181E08093340283E0809353020F
:10086000433009F0AECF809151028130D9F082300F
:1008700009F0A7CF80914402882339F08091550276
:100880008150809355021092B802809143028823D0
:1008900029F080913D02815080933D0283E0809356
:1008A000510291CF80914402882339F08091550202
:1008B0008F5F809355021092B80280914302882383
:1008C00069F380913D028F5F80933D02E7CF809175
:1008D0004402882339F0809156028F5F809356023C
:1008E0001092B80280914302882329F0809122015E
:1008F0008F5F8093220180913702882309F4ADCF66
:1009000080910001909101014496909301018093A0
:10091000000181E080933402A0CFE82FF0E0EB5D8E
:10092000FE4F80810895CF93DF93A1E3B1E09DEC6A
:10093000699FE12D1124E695E695E6952AE0E29F70
:1009400060191124C62FD0E0CB5DDE4F28812C9397
:10095000E99F212D11242695269526953AE0239F7F
:10096000E0191124F0E0EB5DFE4F208111962C93ED
:100970001197899FE12D1124E695E695E6952AE0E9
:10098000E29F80191124C82FD0E0CB5DDE4F888113
:1009900013968C931397E99F912D11249695969514
:1009A00096953AE0939FE0191124F0E0EB5DFE4F3D
:1009B000808114968C93DF91CF910895CF93DF932C
:1009C000AC01C1E3D1E09C01ADECBCEC0E94D411C0
:1009D000FC01F695E795F695E795F695E7959F0165
:1009E0000E94D411969587959695879596958795AB
:1009F0009C01220F331F880F991F880F991F880FA2
:100A0000991F820F931FE81BF90BEB5DFE4F80814E
:100A100088839A013695279536952795ABE7B4E1FB
:100A20000E94D411FC01F695E7959F01ADECBCEC5A
:100A30000E94D4119695879596958795969587955A
:100A40009C01220F331F880F991F880F991F880F51
:100A5000991F820F931FE81BF90BEB5DFE4F8081FE
:100A60008F7789839A013695279536952795369500
:100A70002795A5ECB0E20E94D411FC01F295E29515
:100A8000EF70EF27FF70EF279F01ADECBCEC0E94E9
:100A9000D4119695879596958795969587959C01FF
:100AA000220F331F880F991F880F991F880F991FD6
:100AB000820F931FE81BF90BEB5DFE4F80818B8348
:100AC0009A01329522952F7023273F702327A7E4A0
:100AD000B3E00E94D4119695879596958795969543
:100AE0008795FC01EB5DFE4F80818C83DF91CF9178
:100AF00008950000000008959FEF9ABB882379F0C5
:100B00008130A9F0823029F1833031F18430C1F095
:100B1000E82FF0E0EF5CFE4F80818BBB089518BAA0
:100B2000E82FF0E0EF5CFE4F80818BBB089590E1F1
:100B300098BBE82FF0E0EF5CFE4F80818BBB0895FF
:100B400090E498BBE82FF0E0EF5CFE4F80818BBB18
:100B5000089590E298BBDCCF90E398BBD9CF8FEF9C
:100B60008ABB0000000018BA8BBBEFE9FFE03197A9
:100B7000F1F700C0000090E198BB8BBBEFE9FFE00C
:100B80003197F1F700C0000090E398BB8BBBEFE911
:100B9000FFE03197F1F700C0000090E498BB8BBBF9
:100BA0008FE99FE00197F1F700C0000008951F92C0
:100BB0000F920FB60F9211248F939F9392B380E2FE
:100BC000892782BB9F918F910F900FBE0F901F902E
:100BD00018951F920F920FB60F9211240F900FBE0F
:100BE0000F901F9018951F920F920FB60F9211241D
:100BF0008F9381E0809369038F910F900FBE0F90C8
:100C00001F901895809191029091920290936B029F
:100C100080936A020E941F0D90939202809391022A
:100C200020916A0230916B028217930779F041E0BC
:100C3000BC0181E892E00E94360C609191027091B3
:100C4000920240E081E792E00C94360C08951F92E6
:100C50000F920FB60F9211240BB60F922F933F9362
:100C60004F935F936F937F938F939F93AF93BF93B4
:100C7000EF93FF93809157028F5F809357028F7796
:100C8000C9F48091B8028F5F8093B80290913602C8
:100C9000992309F442C097E0909333018C3309F40F
:100CA00060C080914102813009F455C00E94020663
:100CB0000E94AA0180913502882371F08091370249
:100CC000811138C06FE370E081E090E40E941E0F54
:100CD0001092370210923502809157028F7199F16C
:100CE0000E94930382E091E00E941E0780913402EB
:100CF000813061F1FF91EF91BF91AF919F918F9101
:100D00007F916F915F914F913F912F910F900BBE0B
:100D10000F900FBE0F901F9018952091240191E025
:100D2000922790932401913009F0B5CF9CEF9093D6
:100D30003301B4CF60E070E081E090E40E941E0FC8
:100D400010923702C7CF0E945801CACF0E94120EDC
:100D500010923402CFCF80913B028F5F80933B0291
:100D6000A5CF809155028F5F809355021092B802F3
:100D70008C3309F096CF809156028F5F8093560294
:100D800010925502883109F08CCF1092560289CF0B
:100D9000129A1A9A8AB781688ABF89B7806889BF10
:100DA00008951F98179A1A9A8FE193E00197F1F727
:100DB00000C000001A9890EA9A95F1F717980895E4
:100DC0000E94E90D129A1A9A8AB781688ABF89B778
:100DD000806889BF78941F98179A1A9A8FE193E0D8
:100DE0000197F1F700C000001A9890EA9A95F1F780
:100DF00017980E94330F0E94330F0E94330F0E94F6
:100E0000330F0C94330F91E0811101C090E09FB932
:100E1000779BFECF6FB9779BFECF80916200886091
:100E20008093620080916200877F809362008FE9E7
:100E30009FE00197F1F700C00000089521E02FB96D
:100E4000779BFECF20916802FC01E20FF11D8081AB
:100E50008FB9779BFECF809162008860809362009B
:100E600080916200877F80936200809168028F5F2B
:100E700080936802803109F1803209F0089595ED80
:100E80009A95F1F700001FB8779BFECF82E08FB9EB
:100E9000779BFECF80916200886080936200809192
:100EA0006200877F809362008FE99FE00197F1F7EE
:100EB00000C0000010926802089585ED8A95F1F750
:100EC00000001FB8779BFECF80EC8FB9779BFECFD9
:100ED0008091620088608093620080916200877FC9
:100EE000809362008FE99FE00197F1F700C0000056
:100EF00080916802C1CF660F660F660F605C1FB8F5
:100F0000779BFECF6FB9779BFECF20916200286060
:100F10002093620020916200277F20936200AFE956
:100F2000BFE01197F1F700C00000FC019C01285FB1
:100F30003F4F91E081919FB9779BFECF8FB9779B0F
:100F4000FECF809162008860809362008091620091
:100F5000877F80936200AFE9BFE01197F1F700C08F
:100F60000000E217F30731F7089590E4899F600DC0
:100F70001124605C1FB8779BFECF6FB9779BFECFC3
:100F80008091620088608093620080916200877F18
:100F9000809362008FE99FE00197F1F700C00000A5
:100FA0000895811119C081E08FB9779BFECF80E34E
:100FB0008FB9779BFECF809162008860809362003A
:100FC00080916200877F809362008FE99FE00197A4
:100FD000F1F700C0000008958436B0F48A3090F52F
:100FE00091E09FB9779BFECF9DEC899F912D1124B5
:100FF000969596959695FAE09F9F80191124805DAD
:101000008FB9779BFECFD7CF99E2899F912D11247D
:1010100092959F70905D21E02FB9779BFECF9FB98D
:10102000779BFECF909162009860909362009091C0
:101030006200977F90936200EFE9FFE03197F1F74C
:1010400000C0000099E2899F912D112492959F7014
:10105000282FF4E69F9F20191124922F2DEC929FA8
:10106000912D1124969596959695905D21E02FB936
:10107000779BFECF9FB9779BFECF909162009860DF
:101080009093620090916200977F90936200EFE9E5
:10109000FFE03197F1F700C00000A2CF87FF0C946A
:1010A000D10791E09FB9779BFECF9DE29FB9779BD7
:1010B000FECF9091620098609093620090916200E0
:1010C000977F90936200EFE9FFE03197F1F700C05E
:1010D000000081950C94D1071FB8779BFECF8EE05E
:1010E0008FB9779BFECF8091620088608093620009
:1010F00080916200877F809362008FE99FE0019773
:10110000F1F700C0000008951FB8779BFECF8CE078
:101110008FB9779BFECF80916200886080936200D8
:1011200080916200877F809362008FE99FE0019742
:10113000F1F700C0000008951FB8779BFECF8EE145
:101140008FB9779BFECF80916200886080936200A8
:1011500080916200877F809362008FE99FE0019712
:10116000F1F700C0000008951FB8779BFECF88E11B
:101170008FB9779BFECF8091620088608093620078
:1011800080916200877F809362008FE99FE00197E2
:10119000F1F700C000000895E2E6F0E08081886089
:1011A00080838081877F808308951FB8779BFECFDF
:1011B00081E08FB9779BFECF809162008860809339
:1011C000620080916200877F809362008FE99FE0D8
:1011D0000197F1F700C0000008951FB8779BFECF7C
:1011E00082E08FB9779BFECF809162008860809308
:1011F000620080916200877F809362008FE99FE0A8
:101200000197F1F700C0000008951FB8779BFECF4B
:1012100080EC8FB9779BFECF8091620088608093CD
:10122000620080916200877F809362008FE99FE077
:101230000197F1F700C00000089590E131E020E24D
:101240003FB9779BFECF2FB9779BFECF809162008D
:1012500088608093620080916200877F8093620043
:10126000EFE9FFE03197F1F700C00000915041F73E
:10127000089591E09FB9779BFECF8FB9779BFECF02
:101280008091620088608093620080916200877F15
:10129000809362008FE99FE00197F1F700C00000A2
:1012A0000895FC0140E050E060E071E0DF01A40F30
:1012B000B51F8C917FB9779BFECF8FB9779BFECFFF
:1012C0009091620098609093620090916200977F85
:1012D000909362008FE99FE00197F1F700C0000052
:1012E0006F5F462F50E0DF010D900020E9F79D0170
:1012F0002E1B3F0B2250310924173507B8F60895ED
:101300008FEF99EF0197F1F700C0000088E080931C
:1013100061001FB8779BFECF80E38FB9779BFECF2C
:101320008091620088608093620080916200877F74
:10133000809362008FE99FE00197F1F700C0000001
:101340001FB8779BFECF80E38FB9779BFECF80914C
:10135000620088608093620080916200877F809342
:1013600062008FE99FE00197F1F700C000001FB80D
:10137000779BFECF80E38FB9779BFECF8091620091
:1013800088608093620080916200877F8093620012
:101390008FE99FE00197F1F700C000001FB8779B2D
:1013A000FECF88E38FB9779BFECF80916200886083
:1013B0008093620080916200877F809362008FE952
:1013C0009FE00197F1F700C000001FB8779BFECFA8
:1013D00088E08FB9779BFECF809162008860809310
:1013E000620080916200877F809362008FE99FE0B6
:1013F0000197F1F700C000001FB8779BFECF81E096
:101400008FB9779BFECF80916200886080936200E5
:1014100080916200877F809362008FE99FE001974F
:10142000F1F700C000001FB8779BFECF86E08FB9B0
:10143000779BFECF809162008860809362008091EC
:101440006200877F809362008FE99FE00197F1F748
:1014500000C000001FB8779BFECF8CE08FB9779B50
:10146000FECF80916200886080936200809162006C
:10147000877F809362008FE99FE00197F1F700C0BA
:10148000000008954F925F926F927F928F929F9289
:10149000AF92BF92CF92DF92EF92FF920F931F9382
:1014A000CF93DF93CDB7DEB769970FB6F894DEBF61
:1014B0000FBECDBF142F422E5E2C002379F06B019E
:1014C0007C01CC24F7FCC394DD24EE24FF240C2DF6
:1014D0006B017C0197FDA5C0C701B601442009F44A
:1014E00098C09E012F5F3F4F5901490166246A94BD
:1014F000640C712C3FEF631A730A6A0C7B1C2AE0A0
:1015000030E040E050E00E94AC11E62F2A8B3B8B8C
:101510004C8B5D8B6A897B898C899D8920E32E0F9A
:10152000F40121934F016E167F0649F79924939495
:10153000940CF501E40DF11D2EE220832AE030E049
:1015400040E050E00E94AC11E62F2A8B3B8B4C8B85
:101550005D8B6E8B7F8B888F998F6A897B898C8955
:101560009D8931E0390DD501A90DB11DE05DEC93E8
:10157000932E611571058105910501F7112361F025
:1015800051104DC090E2311738F4F501E30FF11D11
:1015900090833F5F1313F9CF002331F0F501E30F80
:1015A000F11D9DE290833F5F21E03150F501E30F93
:1015B000F11D90812FB9779BFECF9FB9779BFECF0E
:1015C0009091620098609093620090916200977F82
:1015D000909362008FE99FE00197F1F700C000004F
:1015E0003111E3CF69960FB6F894DEBF0FBECDBFC1
:1015F000DF91CF911F910F91FF90EF90DF90CF90EF
:10160000BF90AF909F908F907F906F905F904F9022
:101610000895912C9E012F5F3F4F59018FCF90E38A
:10162000B2CFF094E094D094C094C11CD11CE11CC2
:10163000F11C52CF5F926F927F928F929F92AF92E6
:10164000BF92CF92DF92EF92FF920F931F93CF93AF
:10165000DF93CDB7DEB761970FB6F894DEBF0FBE4C
:10166000CDBF5C01962E542E622E8B2C881C8824B4
:10167000881C782C9C0197FD9FC0552009F490C0D0
:101680008E010F5F1F4F7801CC24CA94C50CD12C5A
:101690008FEFC81AD80AC00ED11E6AE070E0C901E7
:1016A0000E949811462F242F372F805DF7018193D8
:1016B0007F01EC15FD0589F7FF24F394F50CF80183
:1016C000E50DF11D8EE2808301C0F92E6AE070E025
:1016D000C9010E949811462F242F372F91E09F0DAA
:1016E000F801EF0DF11D805D80832115310569F74B
:1016F00061105BC0B7FC65C09920B1F0682D70E047
:1017000080E2292F30E0492D50E0461B570B24176B
:10171000350754F49F5FF801E20FF31F8083292FF0
:1017200030E024173507B4F3772031F0F801E90FE2
:10173000F11D8DE280839F5F21E09150F801E90F58
:10174000F11D80812FB9779BFECF8FB9779BFECF9C
:101750008091620088608093620080916200877F40
:1017600080936200EFE9FFE03197F1F700C00000DD
:101770009111E3CF61960FB6F894DEBF0FBECDBFD7
:10178000DF91CF911F910F91FF90EF90DF90CF905D
:10179000BF90AF909F908F907F906F905F900895D3
:1017A000F12C8E010F5F1F4F91CF992009F4BCCF10
:1017B000682D70E080E3A5CF22273327281B390B43
:1017C0005CCFF394F394F801E90FF11D8DE280836F
:1017D000992059F02F2D30E0492D50E0241735077E
:1017E00024F49F2D712C80E295CF9F2DA5CF5D9B7A
:1017F000FECF8CB95D9BFECF0895FC0190819923AB
:1018000049F031965D9BFECF9CB95D9BFECF9191D7
:101810009111F8CF08959C01FC014491442369F093
:101820000196F90124915D9BFECF2CB95D9BFECF03
:101830009C01FC0144914111F3CF08958AB1886164
:101840008AB9E5E9F0E0808186608083109290009B
:1018500080E189B9089580E89EE302C0019721F0F4
:101860005F9BFCCF8CB1089580E008954F925F920A
:101870006F927F92AF92BF92CF92DF92EF92FF92E0
:101880000F931F93CF93DF937C01A42E8B011695AA
:101890000795129502950F7001271F700127F70118
:1018A0001082BB24B394C0E0D0E0412C512C320113
:1018B000CC24C394D12CC6010C2E02C0880F991FD2
:1018C0000A94E2F780239123892BF9F0CC2309F4C1
:1018D00069C0C13009F49DC0C23009F48FC0C33063
:1018E00009F4A2C0C43009F468C0C53009F47BC053
:1018F000C63009F46DC020E030E040E052E4C3019E
:10190000B2010E941A122B013C0128E0B21619F014
:101910002196B394D0CFAA2041F126E636E646EED2
:101920005FE3C301B2010E94D71220E030E040E043
:1019300052E40E941A12870122E030E045E050E0B4
:101940000E94441381E0A81619F180E0DF91CF9145
:101950001F910F91FF90EF90DF90CF90BF90AF90CD
:101960007F906F905F904F900895870122E030E064
:1019700045E050E0C301B2010E944413F701019019
:101980000020E9F7319783E490E091838083DDCFF5
:10199000F70101900020E9F7319786E490E0918308
:1019A0008083D3CF20E030E040E85EE3C301B201A2
:1019B0000E941A122B013C01ABCF20E030E040E83E
:1019C00050E4C301B2010E941A122B013C01A0CFC6
:1019D00020E030E040E851E4C301B2010E941A1255
:1019E0002B013C0195CF20E030E040E051E4C30101
:1019F000B2010E941A122B013C018ACF20E030E094
:101A000040E85FE3C301B2010E941A122B013C01BE
:101A10007FCF20E030E040E05FE3C301B2010E94ED
:101A20001A122B013C0174CF20E030E040E050E47A
:101A3000C301B2010E941A122B013C0169CF42E09E
:101A400061E473E080E90E94D80D8FE39FE1019784
:101A5000F1F700C00000E1E4F3E0808190E0982F0E
:101A600088272181822B08951F920F920FB60F9223
:101A700011240BB60F922F933F938F939F93AF93A5
:101A8000BF93EF93FF93E09171008E2F90E0FC01E4
:101A90003897E135F105B0F08091710080934303F0
:101AA00084E080937400FF91EF91BF91AF919F917B
:101AB0008F913F912F910F900BBE0F900FBE0F9003
:101AC0001F901895EA5BFF4F0C94CB11809169022F
:101AD000E0914403F0914503E80FF11D80917300FC
:101AE000808384E980937400DECF809146038093E5
:101AF00073001092690285E880937400D4CF8091BE
:101B0000690290914703891760F7E0914403F091CF
:101B1000450391E0980F90936902E80FF11D8081D1
:101B20008093730085E880937400BDCF85EA80932D
:101B30007400B9CF209169028091470330E090E0B2
:101B4000019728173907DCF485EC80937400ABCF3C
:101B5000E0914403F09145038091690221E0280F50
:101B600020936902E80FF11D8091730080838091BA
:101B7000470330E090E00197281739072CF385E8F8
:101B80008093740090CF809174008170089590913B
:101B9000740090FDFCCF8E7F8093460370934503C5
:101BA000609344034093470385EA8093740008954B
:101BB0009091740090FDFCCF8160809346037093F8
:101BC0004503609344034093470385EA8093740080
:101BD00008958FEF80937300109271008CE08093D2
:101BE0007000089584E18093480341E068E473E065
:101BF00082E20E94C70D0E94C30D8111FCCF8FEAC3
:101C000094E00197F1F700C0000041E06AE673E05C
:101C100082E20E94D80D0E94C30D8111FCCF8091F9
:101C20006A03089580916903811101C0FFCF80E2AA
:101C30008093480310924903809100019091010123
:101C400090934A0380934B0310924C0310926903C4
:101C500045E068E473E082E20C94C70D80E4809371
:101C60004803109249038091B6029091B702909375
:101C70004A0380934B0310924C0310924D03109231
:101C8000690346E068E473E082E20E94C70D809138
:101C90006903811101C0FFCF0895E8E4F3E080E417
:101CA000808311828091B9029091BA0292838383DA
:101CB000148281E0858346E0BF0182E20E94C70D65
:101CC0002FEF87EE93E0215080409040E1F700C075
:101CD0000000089580913802909139028130910579
:101CE00051F100F1029741F46091B9027091BA028A
:101CF0008BEB92E00E940516609195028CE692E0D3
:101D00000E94F81581E18093480341E068E473E0A4
:101D100082E20E94C70D87ED94E00197F1F700C0C1
:101D20000000089560910001709101018DE692E03C
:101D30000E940516E1CF6091B6027091B70283E967
:101D400092E00E940516D8CF83E28093480381E099
:101D50008093490342E068E473E082E20E94C70D89
:101D60000E94C30D8111FCCF8FEA94E00197F1F737
:101D700000C0000048E061E573E082E20E94D80DF7
:101D80000E94C30D8111FCCF089582E28093480325
:101D900081E08093490342E068E473E082E20E94BC
:101DA000C70D0E94C30D8111FCCF8FEA94E001970B
:101DB000F1F700C0000048E061E573E082E20E94B4
:101DC000D80D0E94C30D8111FCCF089582E4809349
:101DD000480381E08093490342E068E473E082E2D3
:101DE0000E94C70D0E94C30D8111FCCF8FEA94E0C1
:101DF0000197F1F700C0000048E061E573E082E27E
:101E00000C94D80D83E48093480381E080934903C8
:101E100042E068E473E082E20E94C70D0E94C30DB5
:101E20008111FCCF8FEA94E00197F1F700C0000028
:101E300048E061E573E082E20C94D80DE8E4F3E059
:101E400022E120831182928383837483658346E039
:101E5000BF0182E20E94C70D8FE39CE90197F1F771
:101E600000C0000008958DE692E00E94F215909364
:101E70000101809300018CE692E00E94EA158093B4
:101E80009502E8E4F3E081E0808380E5818385E0EA
:101E9000828343E0BF0182E20E94C70D2FEF8BEDEA
:101EA00095E0215080409040E1F700C0000061E0E3
:101EB00070E081E090E00C941E0F83E992E00E94B4
:101EC000F2159093B7028093B6028CE692E00E94DE
:101ED000EA1580939502E8E4F3E081E0808381E5F0
:101EE000818385E0828343E0BF0182E20E94C70DC7
:101EF0002FEF8BED95E0215080409040E1F700C03E
:101F0000000061E070E081E090E00C941E0F8BEB2C
:101F100092E00E94F2159093BA028093B9028CE687
:101F200092E00E94EA1580939502E8E4F3E081E0F4
:101F3000808381E5818385E0828343E0BF0182E283
:101F40000E94C70D2FEF8BED95E02150804090400F
:101F5000E1F700C0000060E070E082E093E30E94DF
:101F60001E0F61E071E082E091E30E941E0F61E0CC
:101F700070E081E090E00C941E0F80E180934803B4
:101F800041E068E473E082E20E94C70D0E94C30D45
:101F90008111FCCF8FEA94E00197F1F700C00000B7
:101FA00048E069E573E082E20E94D80D0E94C30D0B
:101FB0008111FCCF86E391E00E94FD0B8FE691E05A
:101FC0000E94FD0B88EA91E00E94FD0B80915A036C
:101FD0004AE06FEE72E090E00E9466138FEE92E0AE
:101FE0000E94FD0B85EB91E00E94FD0B80915B034D
:101FF0004AE06FEE72E090E00E9466138FEE92E08E
:102000000E94FD0B85EA91E00C94FD0BFF920F936B
:102010001F93CF93DF93CDB7DEB7A8970FB6F89491
:10202000DEBF0FBECDBF83EC91E00E94FD0B83EDC0
:1020300091E00E94FD0B01E513E0F801808140E191
:102040006FEE72E090E00E9466138FEE92E00E94C5
:10205000FD0B85EA91E00E94FD0B83EE91E00E946A
:10206000FD0BF80181814AE06FEE72E090E00E9482
:1020700066138FEE92E00E94FD0B85EA91E00E94CC
:10208000FD0BF801F38083EF91E00E94FD0B4AE025
:102090006FEE72E08F2D90E00E9466138FEE92E05B
:1020A0000E94FD0B85EA91E00E94FD0B83E092E027
:1020B0000E94FD0BF801828140E1BE016F5F7F4FFE
:1020C00090E00E946613CE0101960E94FD0B85EA06
:1020D00091E00E94FD0B83E192E00E94FD0BF8016C
:1020E000838140E1BE016F5F7F4F90E00E946613E5
:1020F000CE0101960E94FD0B85EA91E00E94FD0B46
:1021000083E292E00E94FD0BF801848140E16FEED2
:1021100072E090E00E9466138FEE92E00E94FD0B49
:1021200085EA91E00E94FD0BA8960FB6F894DEBFF9
:102130000FBECDBFDF91CF911F910F91FF900895FA
:1021400081B3806381BB87B3806F87BBA09AD0ECDB
:10215000D2B980B7886080BF87B7816087BF83B7F7
:10216000816083BF8D9A8EB589608EBD8FE99FE0B7
:102170009BBD8ABD87B7806187BF87B7806487BFF3
:1021800085B5896785BD88EC83BD87B3876087BBCC
:1021900080E58DB9C1E0CEB98091610088608093FF
:1021A000610080916200877F80936200809161006E
:1021B0008F7780936100809162008F7780936200B7
:1021C00087B1876487B986B1876886B90E9480091C
:1021D000D3B90E94E90D0E94E0068AE296E290934C
:1021E0000101809300010E94120EC0933602C09339
:1021F0003702C0E0DDEC8FE99FE00197F1F700C006
:1022000000000E9462020E94F1018091430281302D
:1022100009F478C08091360281115BC0809155022B
:10222000209156028D9FE12D1124E695E695E695C5
:102230009AE0E99F8019112490E08B5D9E4FDC01AC
:102240008C9180933101ED9F812D11248695869587
:102250008695BAE08B9FE0191124F0E0EB5DFE4F0C
:102260008081809332012D9FE12D1124E695E69522
:10227000E695A22F8AE0E89FA0191124B0E0AB5D9B
:10228000BE4F8C9180933401ED9F812D1124869552
:10229000869586959AE0899FE0191124F0E0EB5D20
:1022A000FE4F808180933501C530F8F48C2FCF5FCD
:1022B0000E947C050E946E0380913C0281111FC028
:1022C00080913602813089F1811195CF10923702C9
:1022D00092CF80913702882339F380910001909149
:1022E00001010E94DE04C53008F3C1E080E00E94D5
:1022F0007C050E946E0380913C02882309F3809143
:102300003602E2CF809136028111E3CF80913D0207
:10231000209122018D9FE12D1124E695E695E69509
:10232000AAE0EA9F8019112487CF8093370263CFF8
:1023300097FB072E16F4009407D077FD09D00E9472
:10234000E31107FC05D03EF4909581959F4F0895C9
:10235000709561957F4F0895052E97FB1EF40094AC
:102360000E94C31157FD07D00E94F71107FC03D04C
:102370004EF40C94C31150954095309521953F4FE4
:102380004F4F5F4F089590958095709561957F4F61
:102390008F4F9F4F0895EE0FFF1F0024001C0BBEB0
:1023A0000790F691E02D0994A29FB001B39FC00160
:1023B000A39F700D811D1124911DB29F700D811D71
:1023C0001124911D0895AA1BBB1B51E107C0AA1F30
:1023D000BB1FA617B70710F0A61BB70B881F991FC6
:1023E0005A95A9F780959095BC01CD010895A1E279
:1023F0001A2EAA1BBB1BFD010DC0AA1FBB1FEE1F7F
:10240000FF1FA217B307E407F50720F0A21BB30BC9
:10241000E40BF50B661F771F881F991F1A9469F745
:1024200060957095809590959B01AC01BD01CF01A1
:1024300008955058BB27AA270E9431120C949D1270
:102440000E948F1238F00E94961220F039F49F3FBC
:1024500019F426F40C948C120EF4E095E7FB0C941E
:102460008612E92F0E94AE1258F3BA17620773075B
:102470008407950720F079F4A6F50C94D0120EF499
:10248000E0950B2EBA2FA02D0B01B90190010C0184
:10249000CA01A0011124FF27591B99F0593F50F49C
:1024A000503E68F11A16F040A22F232F342F4427F4
:1024B000585FF3CF469537952795A795F0405395EC
:1024C000C9F77EF41F16BA0B620B730B840BBAF0BC
:1024D0009150A1F0FF0FBB1F661F771F881FC2F727
:1024E0000EC0BA0F621F731F841F48F4879577953B
:1024F0006795B795F7959E3F08F0B0CF9395880FF5
:1025000008F09927EE0F97958795089597F99F679B
:1025100080E870E060E008959FEF80EC089500246B
:102520000A941616170618060906089500240A9438
:1025300012161306140605060895092E0394000CBE
:1025400011F4882352F0BB0F40F4BF2B11F460FF4D
:1025500004C06F5F7F4F8F4F9F4F089557FD905876
:10256000440F551F59F05F3F71F04795880F97FB57
:10257000991F61F09F3F79F0879508951216130611
:102580001406551FF2CF4695F1DF08C01616170640
:102590001806991FF1CF8695710561050894089575
:1025A000E894BB2766277727CB0197F908950E9407
:1025B000EA120C949D120E948F1238F00E9496121B
:1025C00020F0952311F00C9486120C948C12112497
:1025D0000C94D1120E94AE1270F3959FC1F3950F27
:1025E00050E0551F629FF001729FBB27F00DB11D97
:1025F000639FAA27F00DB11DAA1F649F6627B00D27
:10260000A11D661F829F2227B00DA11D621F739F0F
:10261000B00DA11D621F839FA00D611D221F749F1D
:102620003327A00D611D231F849F600D211D822F64
:10263000762F6A2F11249F5750409AF0F1F088238B
:102640004AF0EE0FFF1FBB1F661F771F881F9150B8
:102650005040A9F79E3F510580F00C9486120C94CF
:10266000D1125F3FE4F3983ED4F386957795679552
:10267000B795F795E7959F5FC1F7FE2B880F911DE2
:102680009695879597F90895EF920F931F93CF939F
:10269000DF93E80147FD02C034E001C034E1042EBD
:1026A000000C550B57FF03C0519541955109E32E7E
:1026B000022F242FAE010E948B13CE01DF91CF9108
:1026C0001F910F91EF9008950C949811BB274A30F9
:1026D00031F4992322F4BDE2909581959F4F0C949B
:1026E0007213BB27FB015527AA27880F991FAA1F22
:1026F000A41710F0A41B83955051B9F7A05DAA331D
:1027000008F0A95DA193009779F7B111B1931192E7
:10271000CB010C94DA158F929F92AF92BF92CF9219
:10272000DF92EF92FF920F931F93CF93DF93CDB77A
:10273000DEB729970FB6F894DEBF0FBECDBF6A0192
:10274000122FB02E2BE3201720F0FF24F394F00E6D
:1027500002C02CE3F22E0F2D27E0AE014F5F5F4F3A
:102760000E940215BC014981842F8970813031F0AB
:10277000E1FC06C0E0FE06C090E205C09DE203C099
:102780009BE201C090E05E2D507143FF3CC091116F
:1027900002C083E001C084E0811718F4212F281BB8
:1027A00001C020E051110BC0F601822F30E28823D6
:1027B00019F031938150FBCFC20ED11C20E0992338
:1027C00029F0D6019C93F60131966F01C60103965C
:1027D000E2FE0AC03EE4D6013C9341E411964C93DC
:1027E000119712963C9306C03EE6F601308341E60F
:1027F00041833283FC01322F40E2332309F442C08B
:1028000041933150FACF42FF44C0911102C083E09E
:1028100001C084E0811718F4212F281B01C020E09B
:1028200051110BC0F601822F30E2882319F0319349
:102830008150FBCFC20ED11C20E0992329F0D60194
:102840009C93F60131966F01C6010396E2FE0BC020
:1028500039E4D6013C933EE411963C93119736E45B
:1028600012963C9307C039E6F60130833EE6318389
:1028700036E63283FC01322F40E2332319F04193D4
:102880003150FBCFFC01E20FF11D10828EEF9FEF64
:10289000A6C021E030E0911102C020E030E0161621
:1028A00017061CF4FB01319602C0E1E0F0E02E0FA8
:1028B0003F1FBB2021F0EB2DF0E0319602C0E0E09D
:1028C000F0E02E0F3F1FE12FF0E02E173F071CF422
:1028D000121B212F01C020E08E2D887159F4F601C2
:1028E000822F30E2882319F031938150FBCFC20E42
:1028F000D11C20E0992329F0D6019C93F601319652
:102900006F0151110BC0F601822F90E3882319F05B
:1029100091938150FBCFC20ED11C20E00F2D060FEA
:102920009A81342F307144FF03C0913309F4015070
:10293000101624F4093018F008E001C001E0AB01E2
:1029400077FF02C040E050E0FB01E41BF50BA1E083
:10295000B0E0AC0FBD1FEA0FFB1F8EE2A82E4B01AB
:10296000801A91080B2D10E01195019511094F3F28
:10297000BFEF5B0721F4D601AC9211966D0164178D
:1029800075072CF08416950614F4818101C080E34C
:10299000415051093196D60111967D0140175107DA
:1029A00024F0D6018C936701E2CF6417750739F4E0
:1029B000963320F4953319F4311101C081E3F60107
:1029C0008083F701822F90E2882319F09193815040
:1029D000FBCFF701E20FF11D108280E090E0299615
:1029E0000FB6F894DEBF0FBECDBFDF91CF911F9120
:1029F0000F91FF90EF90DF90CF90BF90AF909F909E
:102A00008F900895283008F027E03327DA01990FD6
:102A1000311D87FD916000966105710539F43260C2
:102A20002E5F3D9330E32A95E1F708959F3F30F004
:102A300080387105610509F03C5F3C5F3D93913042
:102A400008F08068911DDF93CF931F930F93FF923F
:102A5000EF92192F987F9695E92F96959695E90F05
:102A6000FF27E857FE4F99273327EE24FF24A701BD
:102A7000E70105900894079428F4360FE71EF81E26
:102A8000491F511D660F771F881F991F0694A1F7D4
:102A90000590079428F4E70EF81E491F561FC11D24
:102AA000770F881F991F661F0694A1F7059007945A
:102AB00028F4F80E491F561FC71FD11D880F991FF4
:102AC000661F771F0694A1F70590079420F4490F1D
:102AD000561FC71FD81F990F661F771F881F0694A0
:102AE000A9F784911095177041F0D695C795579521
:102AF0004795F794E7941A95C1F7EEE2F1E06894F0
:102B00001590159135916591959105907FE273959A
:102B1000E118F10A430B560BC90BD009C0F7E10CC1
:102B2000F11E431F561FC91FD01D7EF4703311F4D0
:102B30008A95E6CFE894015030F0080F0AF4002798
:102B4000021708F4202F2395022F7A3328F079E317
:102B50007D932A95E9F710C07D932A9589F606940E
:102B600097956795379517951794E118F10A430BD8
:102B7000560BC90BD00998F023957E9173957A3343
:102B800008F070E37C932013B8F77E9170617D9319
:102B900030F0839571E37D9370E32A95E1F711247A
:102BA000EF90FF900F911F91CF91DF91992787FDB3
:102BB00090950895DC01FC01672F71917723E1F76F
:102BC000329704C07C916D9370836291AE17BF07FA
:102BD000C8F30895E199FECF9FBB8EBBE09A992779
:102BE0008DB30895A8E1B0E042E050E00C940C16DB
:102BF000262FE199FECF9FBB8EBB2DBB0FB6F8945D
:102C0000E29AE19A0FBE019608950E94F815272FC7
:102C10000C94F915DC01CB01FC01E199FECF06C053
:102C2000FFBBEEBBE09A31960DB20D924150504081
:082C3000B8F70895F894FFCFF6
:102C38002A2620000000000000000000000000001C
:102C4800000000000000000000000000000000007C
:102C580000000C0101C0F9A4B0999282F880987F15
:102C6800FF0000FC00005369343733342052657686
:102C78003A20206C61737420322064696769747328
:102C8800206F662070617274206E6F2E2020206382
:102C98006869702072657620202020200A0D0020A7
:102CA8002020202020202020202020202D2D2D2DE8
:102CB8002D2D2D2D2D2D2D2D2D2D2D2D2D2D2D2D3C
:102CC8002D2D2D2D2D2020202D2D2D2D2D2D2D2D53
:102CD80020202020200A0D00202020202020202035
:102CE80020202020202020202020202020202020DC
:102CF800202000464D5F5253515F53544154555361
:102D08003A200073746174757320627974652020A9
:102D1800203A007265737031202020202020202066
:102D2800203A006672657120202020202020202073
:102D3800203A006672657120686967682020202043
:102D4800203A0066726571206C6F77202020202061
:102D5800203A007273736920202020202020202030
:042D6800203A00000D
:00000001FF
