:100000000C9446000C9465000C9465000C946500FB
:100010000C9465000C9465000C9465000C946500CC
:100020000C9465000C9465000C9465000C946500BC
:100030000C9465000C9465000C9465000C946500AC
:100040000C9492010C9465000C9465000C9465006E
:100050000C9465000C9465000C9465000C9465008C
:100060000C9465000C9465000C9465000C9465007C
:100070000C9465000C9465000C9465000C9465006C
:100080000C9465000C9465000C94650011241FBE4F
:10009000CFEFD0E1DEBFCDBF11E0A0E0B1E0EAE4F8
:1000A000F5E000E00BBF02C007900D92A431B1074C
:1000B000D9F721E0A4E1B1E001C01D92A731B20758
:1000C000E1F70E941B020C94A3020C94000087B776
:1000D000816087BF83B7816083BF0895E82FF0E018
:1000E000EE5FFE4F80810895CF93DF93AEE0B1E0E5
:1000F0009DEC699FE12D1124E695E695E6952AE0B1
:10010000E29F60191124C62FD0E0CE5FDE4F288118
:100110002C93E99F212D11242695269526953AE0CA
:10012000239FE0191124F0E0EE5FFE4F208111962D
:100130002C931197899FE12D1124E695E695E6957C
:100140002AE0E29F80191124C82FD0E0CE5FDE4F55
:10015000888113968C931397E99F912D112496957E
:10016000969596953AE0939FE0191124F0E0EE5FA2
:10017000FE4F808114968C93DF91CF910895CF929A
:10018000DF92EF92FF920F931F93CF93DF93FC01C7
:10019000CAE0D0E0CB01BE010E947B027C018093CB
:1001A0000E01CB01BE010E947B028C0180930F01E6
:1001B000CF01BE010E947B029C0180931101CB0103
:1001C000BE010E947B028093120115BAD701BB27A2
:1001D000AE5FBE4F4C914BBBAFE9BFE01197F1F75B
:1001E00000C0000041E045BB1127D801AE5FBE4F03
:1001F0004C914BBBAFE9BFE01197F1F700C0000095
:10020000309709F454C03197399748F143E045BB22
:100210003327F901EE5FFE4F20812BBBEFE3FFE1B7
:100220003197F1F700C0000024E025BBFC01FF2757
:10023000EE5FFE4F80818BBB8FE39FE10197F1F76B
:1002400000C0000080910001813029F1DF91CF9141
:100250001F910F91FF90EF90DF90CF90089583E072
:1002600085BB3327F901EE5FFE4F80818BBB8FE3A7
:100270009FE10197F1F700C0000084E085BB8FEF9C
:100280008BBBAFE3BFE11197F1F700C00000809195
:1002900000018130D9F682E085BB809110018BBBD3
:1002A000AFE9BFE01197F1F700C00000CFCF83E0C6
:1002B00085BB80EC8BBBEFE3FFE13197F1F700C02A
:1002C0000000C0CF9FEF9ABB0000000015BA70E09D
:1002D00090E00C94BF008FEF8ABB0000000015BABD
:1002E0008BBBEFE3FFE13197F1F700C0000091E035
:1002F00095BB8BBBEFE3FFE13197F1F700C0000046
:1003000094E095BB8BBBEFE3FFE13197F1F700C0C1
:10031000000095BB8BBB8FE39FE10197F1F700C015
:10032000000008951F920F920FB60F9211240BB682
:100330000F922F933F934F935F936F937F938F937E
:100340009F93AF93BF93EF93FF93809116018F5FBD
:1003500080931601803801F16091010170E0809175
:10036000140190E02FEF2ABB0000000015BA0E9494
:10037000BF00FF91EF91BF91AF919F918F917F91BE
:100380006F915F914F913F912F910F900BBE0F9006
:100390000FBE0F901F901895809115018F5F80936D
:1003A0001501109216012091000191E0922790937F
:1003B0000001609101018C3389F66F5F6093010148
:1003C000109215016C3351F6809114018F5F809368
:1003D000140110920101883121F090E060E070E09A
:1003E000C1CF1092140180E090E060E070E0BACFDD
:1003F0009FEF9ABB8823B9F0813069F0823059F0C1
:10040000833049F0843039F0E82FF0E0E25FFE4FAE
:1004100080818BBB089585BBE82FF0E0E25FFE4F43
:1004200080818BBB089515BAE82FF0E0E25FFE4FA4
:1004300080818BBB08958FE084BB0000000080ECBE
:1004400082B983B9D0E0CDEC04C08D2FDF5F0E946C
:10045000F8018FE39FE10197F1F700C00000809160
:100460000101209114018C9FE12D1124E695E69560
:10047000E6959AE0E99F8019112490E08E5F9E4FE7
:10048000DC018C9180930E01EC9F812D11248695C7
:1004900086958695BAE08B9FE0191124F0E0EE5F17
:1004A000FE4F808180930F012C9FE12D1124E69552
:1004B000E695E695A22F8AE0E89FA0191124B0E006
:1004C000AE5FBE4F8C9180931101EC9F812D112462
:1004D0008695869586959AE0899FE0191124F0E02B
:1004E000EE5FFE4F808180931201D53008F4ADCFCE
:1004F000D1E080E0ACCF97FB072E16F4009407D034
:1005000077FD09D00E948F0207FC05D03EF490953C
:1005100081959F4F0895709561957F4F0895AA1B0F
:10052000BB1B51E107C0AA1FBB1FA617B70710F0DE
:10053000A61BB70B881F991F5A95A9F78095909510
:0A054000BC01CD010895F894FFCF2F
:10054A000102C0F9A4B0999282F880987FFF000056
:04055A00FC000000A1
:00000001FF
