S00C00006C6162342E73726563B5
S11300000C9446000C9465000C9465000C946500F7
S11300100C9465000C9465000C9465000C946500C8
S11300200C9465000C9465000C947D020C9465009E
S11300300C9465000C9465000C9465000C946500A8
S11300400C941E020C9465000C9465000C946500DD
S11300500C9465000C9465000C9465000C94650088
S11300600C9465000C9465000C9465000C94650078
S11300700C9465000C9465000C9465000C94650068
S11300800C9465000C9465000C94650011241FBE4B
S1130090CFEFD0E1DEBFCDBF11E0A0E0B1E0E2E9F7
S11300A0F6E000E00BBF02C007900D92A831B10743
S11300B0D9F721E0A8E1B1E001C01D92A433B20751
S11300C0E1F70E9487020C9447030C940000E1E6D8
S11300D0F0E080818F778083E2E6F0E080818F77A3
S11300E0808387B1876487B986B1876886B90895A4
S11300F0CF93DF93369A349BFECF349AC4B1D5B1F3
S11301006DEC70E08C2F90E00E941D0390933301FE
S113011080933201C3BDDF91CF91089582E081BB0A
S113012087B3876087BB80E58DB981E08EB9E1E64E
S1130130F0E0808188608083E2E6F0E08081877F60
S1130140808308951FB8779BFECF8FB1089580B741
S1130150886080BF87B7816087BF83B7816083BFB2
S1130160089587B7806487BF85B5896785BD88ECA6
S113017083BD0895482FE82FF0E099B3EE0FFF1FD9
S1130180E15EFE4F20813181220F331F306E892FB3
S113019090E002C0959587954A95E2F7817099277A
S11301A0282B392B3183208381E021153F4F09F01F
S11301B080E0089593B180E4982793B993B1892797
S11301C083B983B1805883B91FB8779BFECF8FB1B1
S11301D080931D0183B1805883B940911D01542F30
S11301E087E090E061E070E09B01082E01C0220FDF
S11301F00A94EAF720955223019781309105A1F7DB
S113020050931B014695469587E090E061E070E0CD
S11302109B01082E01C0220F0A94EAF7209542237D
S1130220019781309105A1F740931901809118013C
S1130230811107C050931C0140931A0181E08093FF
S11302401801533039F050931C014330C1F04093EE
S11302501A01089580911C01813031F1823099F79F
S1130260209104018091000190910101821B910968
S1130270909301018093000150931C01E6CF80917B
S11302801A01813001F1823011F72091050180912A
S1130290000190910101821B9109909301018093C7
S11302A0000140931A0108952091040180910001F6
S11302B090910101820F911D90930101809300019F
S11302C050931C01C2CF20910501809100019091AF
S11302D00101820F911D90930101809300014093CD
S11302E01A010895E82FF0E0EA5FFE4F8081089537
S11302F0CF93DF93A2E1B1E09DEC699FE12D11243E
S1130300E695E695E6952AE0E29F60191124C62F4A
S1130310D0E0CA5FDE4F28812C93E99F212D112460
S11303202695269526953AE0239FE0191124F0E0BE
S1130330EA5FFE4F208111962C931197899FE12D3E
S11303401124E695E695E6952AE0E29F80191124AA
S1130350C82FD0E0CA5FDE4F888113968C93139721
S1130360E99F912D11249695969596953AE0939F41
S1130370E0191124F0E0EA5FFE4F808114968C931B
S1130380DF91CF9108959FEF9ABB882379F0813054
S1130390A9F0823029F1833031F18430C1F0E82FA3
S11303A0F0E0EE5EFE4F80818BBB089518BAE82F13
S11303B0F0E0EE5EFE4F80818BBB089590E198BB28
S11303C0E82FF0E0EE5EFE4F80818BBB089590E451
S11303D098BBE82FF0E0EE5EFE4F80818BBB089562
S11303E090E298BBDCCF90E398BBD9CF8FEF8ABB68
S11303F00000000018BA8BBBEFE9FFE03197F1F77A
S113040000C0000090E198BB8BBBEFE9FFE031979F
S1130410F1F700C0000090E398BB8BBBEFE9FFE06D
S11304203197F1F700C0000090E498BB8BBB8FE9D3
S11304309FE00197F1F700C0000008951F920F920A
S11304400FB60F9211240BB60F922F933F934F9335
S11304505F936F937F938F939F93AF93BF93EF9328
S1130460FF9380911E018F5F80931E01982F9F77C9
S113047091F4909131019F5F909331013091030188
S113048021E0232720930301213099F127E02093D1
S113049014019C33C9F08F7011F40E9478000E94FB
S11304A0DA00FF91EF91BF91AF919F918F917F916E
S11304B06F915F914F913F912F910F900BBE0F90D1
S11304C00FBE0F901F901895909105019F5F909318
S11304D00501109231019C33F1F6909104019F5F64
S11304E090930401109205019831A9F61092040129
S11304F0D2CF2CEF20931401CCCF1F920F920FB6C2
S11305000F9211240F900FBE0F901F90189580B773
S1130510886080BF87B7816087BF83B7816083BFEE
S113052087B7806487BF85B5896785BD88EC83BD3F
S113053082E081BB87B3876087BB80E58DB981E0AA
S11305408EB980916100886080936100809162001F
S1130550877F80936200809161008F778093610030
S1130560809162008F778093620087B1876487B936
S113057086B1876886B987B3806F87BB00000000A7
S113058080EC82B983B97894D0E0CDEC04C08D2F8F
S1130590DF5F0E94C3018FE39FE10197F1F700C081
S11305A0000080910501209104018C9FE12D11240C
S11305B0E695E695E6959AE0E99F8019112490E086
S11305C08A5F9E4FDC018C9180931201EC9F812DF8
S11305D01124869586958695BAE08B9FE01911249F
S11305E0F0E0EA5FFE4F8081809313012C9FE12DA0
S11305F01124E695E695E695A22F8AE0E89FA019D6
S11306001124B0E0AA5FBE4F8C9180931501EC9F3A
S1130610812D11248695869586959AE0899FE01907
S11306201124F0E0EA5FFE4F808180931601D530FB
S113063008F4ADCFD1E080E0ACCF0C941F0397FB5E
S1130640072E16F4009407D077FD09D00E943303D7
S113065007FC05D03EF4909581959F4F08957095C1
S113066061957F4F0895AA1BBB1B51E107C0AA1FC8
S1130670BB1FA617B70710F0A61BB70B881F991F3F
S11306805A95A9F780959095BC01CD010895F894E9
S1050690FFCF96
S1130692010001010A0FC0F9A4B0999282F880986E
S10B06A27FFF0000FC000000D2
S9030000FC
