:100000000C9446000C9465000C9465000C946500FB
:100010000C9465000C9465000C9465000C946500CC
:100020000C9465000C9465000C941D040C94650000
:100030000C940B040C9465000C9465000C94650002
:100040000C9495030C9465000C9465000C94650069
:100050000C9465000C9465000C9465000C9465008C
:100060000C9465000C9465000C9465000C9465007C
:100070000C9465000C9465000C9465000C9465006C
:100080000C9465000C9465000C94650011241FBE4F
:10009000CFEFD0E1DEBFCDBF11E0A0E0B1E0EEE8F0
:1000A000F4E100E00BBF02C007900D92AA31B10746
:1000B000D9F721E0AAE1B1E001C01D92AD37B20746
:1000C000E1F70E941B090C94450A0C940000E1E63C
:1000D000F0E080818F778083E2E6F0E080818F77A7
:1000E000808387B1876487B986B1876886B90895A8
:1000F000CF93DF93369A349BFECF349AC4B1D5B1F7
:100100006DEC70E08C2F90E00E94430A90934C01BC
:1001100080934B01C3BDDF91CF91089587B3876072
:1001200087BB80E58DB981E08EB9E1E6F0E08081A2
:1001300088608083E2E6F0E08081877F8083089595
:100140001FB8779BFECF8FB1089580B7886080BFBE
:1001500087B7816087BF83B7816083BF0895889A1E
:100160008EB589608EBD8FE99FE09BBD8ABD87B744
:10017000806187BF089587B7806487BF85B5896729
:1001800085BD88EC83BD08958FB9779BFECF919A8A
:10019000919808950E94F9050E941106809121010D
:1001A000813009F0089584E191E00C947506809106
:1001B0001B01811114C08091210181112AC08091FD
:1001C00020018823B1F010921B0180911A018A301E
:1001D00081F187B7806187BF1BBC1ABC08958091ED
:1001E00021018111ECCF10921B018091200181111E
:1001F000EACF80911A018A30E1F080911B018823B7
:1002000041F387B7806187BF8FE99FE09BBD8ABDBF
:10021000089590913501809100019813D0CF90916D
:10022000340180911C019813CACF81E080931B0197
:10023000C6CF81E080931B011092200110921A0119
:1002400087B7806187BF8FE99FE09BBD8ABD089516
:10025000482FE82FF0E099B3EE0FFF1FE95CFE4F47
:1002600020813181220F331F306E892F90E002C030
:10027000959587954A95E2F781709927282B392B18
:100280003183208381E021153F4F09F080E00895FC
:100290001ABA8FEF8BBB88B3806788BBE7E3F1E0C6
:1002A00061E070E040E050E0A1E007C06830710517
:1002B000D1F14F5F5F4F6F5F7F4F99B320813181E5
:1002C000220F331F306E892F90E0042E02C09595C7
:1002D00087950A94E2F781709927822B932B81935B
:1002E000919381159F4F11F74730510591F046309A
:1002F0005105B9F14530510551F144305105F9F03E
:1003000043305105C9F04230510581F6A0932901CF
:10031000D0CF81E080932E01909123018927809393
:10032000230110922201E7E2F1E080E391E01192D3
:100330008E179F07E1F70895A0932A01BACFA093E3
:100340002B01809120018A2780932001B2CFA093B6
:100350002C01809121018A2780932101A0931D0106
:10036000A8CFA0932D01809122018A27809322019A
:10037000109223019ECF909134019C33DCF4809144
:10038000350188312CF01092350197FD08C0089591
:1003900087FFFBCF87E18093350197FFF8CF8BE391
:1003A0008093340180913501815087FD87E18093EE
:1003B0003501089510923401809135018F5F80934B
:1003C000350190E0DECF90911C019C33DCF48091EC
:1003D000000188312CF01092000197FD08C00895AB
:1003E00087FFFBCF87E18093000197FFF8CF8BE376
:1003F00080931C0180910001815087FD87E18093EB
:100400000001089510921C01809100018F5F80937C
:10041000000190E0DECF80912301813099F080913E
:100420002201813089F080911F01813079F0809123
:100430001E01813069F080E08FB9779BFECF919AE1
:100440009198089581E0F8CF82E0F6CF88E0F4CF6C
:1004500080E1F2CF93B180E4982793B993B18927D3
:1004600083B983B1805883B91FB8779BFECF8FB112
:100470008093330183B1805883B940913301542F65
:1004800087E090E061E070E09B01082E01C0220F40
:100490000A94EAF720955223019781309105A1F73C
:1004A000509331014695469587E090E061E070E019
:1004B0009B01082E01C0220F0A94EAF720954223DF
:1004C000019781309105A1F740932F01809126017A
:1004D000811107C0509332014093300181E0809335
:1004E0002601533051F050933201433031F14093A3
:1004F00030010E94BB010C94E301809132018130F4
:1005000009F451C0823079F780912301882339F0B2
:100510008091350181508093350110924A0180917C
:100520002201882329F080910001815080930001ED
:1005300083E0809332014330D1F6809130018130E5
:10054000E9F08230A1F680912301882339F080916F
:10055000340181508093340110924A01809122012C
:10056000882329F080911C01815080931C0183E035
:10057000809330010E94BB010C94E3018091230120
:10058000882339F0809134018F5F80933401109279
:100590004A0180912201882351F380911C018F5FD1
:1005A00080931C01E4CF80912301882339F080914E
:1005B00035018F5F8093350110924A0180912201AD
:1005C000882309F4B5CF809100018F5F80930001EB
:1005D000AFCFE82FF0E0ED5FFE4F80810895CF931D
:1005E000DF93AFE0B1E09DEC699FE12D1124E6952A
:1005F000E695E6952AE0E29F60191124C62FD0E027
:10060000CD5FDE4F28812C93E99F212D1124269563
:10061000269526953AE0239FE0191124F0E0ED5F3E
:10062000FE4F208111962C931197899FE12D112463
:10063000E695E695E6952AE0E29F80191124C82FF9
:10064000D0E0CD5FDE4F888113968C931397E99F9E
:10065000912D11249695969596953AE0939FE019E1
:100660001124F0E0ED5FFE4F808114968C93DF91B2
:10067000CF9108959FEF9ABB882379F08130A9F03C
:10068000823029F1833031F18430C1F0E82FF0E07D
:10069000E15FFE4F80818BBB089518BAE82FF0E030
:1006A000E15FFE4F80818BBB089590E198BBE82FFE
:1006B000F0E0E15FFE4F80818BBB089590E498BB32
:1006C000E82FF0E0E15FFE4F80818BBB089590E260
:1006D00098BBDCCF90E398BBD9CF8FEF8ABB0000EB
:1006E000000018BA8BBBEFE9FFE03197F1F700C0CB
:1006F000000090E198BB8BBBEFE9FFE03197F1F789
:1007000000C0000090E398BB8BBBEFE9FFE031979E
:10071000F1F700C0000090E498BB8BBB8FE99FE02D
:100720000197F1F700C0000008951F920F920FB6D5
:100730000F9211240BB60F922F933F934F935F9319
:100740006F937F938F939F93AF93BF93EF93FF9399
:10075000809136018F5F80933601982F9F77B1F497
:1007600090914A019F5F90934A013091020121E0EC
:10077000232720930201213099F127E020931101D2
:100780009C3399F190912001913021F190911D01BC
:10079000911119C08F7111F40E9478000E942A02F1
:1007A000FF91EF91BF91AF919F918F917F916F9149
:1007B0005F914F913F912F910F900BBE0F900FBE05
:1007C0000F901F9018950E94CA0010921D018091F1
:1007D0003601E0CF90911A019F5F90931A01D6CF16
:1007E0002CEF209311019C3369F6909134019F5FA7
:1007F0009093340110924A019C3321F69091350177
:100800009F5F9093350110923401983109F0BACF6F
:1008100010923501B7CF1F920F920FB60F9211248D
:100820008F939F9392B381E0892782BB9F918F9191
:100830000F900FBE0F901F9018951F920F920FB63A
:100840000F9211240F900FBE0F901F90189591E0FA
:10085000811101C090E09FB9779BFECF6FB9779B64
:10086000FECF809162008860809362008091620078
:10087000877F809362008FE99FE00197F1F700C0C6
:100880000000089521E02FB9779BFECF209147010A
:10089000FC01E20FF11D80818FB9779BFECF809123
:1008A000620088608093620080916200877F8093FD
:1008B0006200809147018F5F80934701803109F189
:1008C000803209F0089595ED9A95F1F700001FB870
:1008D000779BFECF82E08FB9779BFECF809162003D
:1008E00088608093620080916200877F80936200BD
:1008F0008FE99FE00197F1F700C0000010924701D7
:10090000089585ED8A95F1F700001FB8779BFECF1B
:1009100080EC8FB9779BFECF8091620088608093D6
:10092000620080916200877F809362008FE99FE080
:100930000197F1F700C0000080914701C1CF660F19
:10094000660F660F605C1FB8779BFECF6FB9779B11
:10095000FECF209162002860209362002091620007
:10096000277F20936200AFE9BFE01197F1F700C045
:100970000000FC019C01285F3F4F91E081919FB9ED
:10098000779BFECF8FB9779BFECF80916200886006
:100990008093620080916200877F80936200AFE95C
:1009A000BFE01197F1F700C00000E217F30731F73D
:1009B000089590E4899F600D1124605C1FB8779BB7
:1009C000FECF6FB9779BFECF8091620088608093E5
:1009D000620080916200877F809362008FE99FE0D0
:1009E0000197F1F700C000000895811119C081E05E
:1009F0008FB9779BFECF80E38FB9779BFECF809135
:100A0000620088608093620080916200877F80939B
:100A100062008FE99FE00197F1F700C000000895A0
:100A20008436B0F48A3090F591E09FB9779BFECF81
:100A30009DEC899F912D1124969596959695FAE0B7
:100A40009F9F80191124805D8FB9779BFECFD7CFF0
:100A500099E2899F912D112492959F70905D21E0DC
:100A60002FB9779BFECF9FB9779BFECF9091620005
:100A700098609093620090916200977F90936200DB
:100A8000EFE9FFE03197F1F700C0000099E2899F9C
:100A9000912D112492959F70282FF4E69F9F201985
:100AA0001124922F2DEC929F912D112496959695BD
:100AB0009695905D21E02FB9779BFECF9FB9779BEC
:100AC000FECF9091620098609093620090916200D6
:100AD000977F90936200EFE9FFE03197F1F700C054
:100AE0000000A2CF87FF0C94F50491E09FB9779B9B
:100AF000FECF9DE29FB9779BFECF909162009860F8
:100B00009093620090916200977F90936200EFE96A
:100B1000FFE03197F1F700C0000081950C94F504D7
:100B20001FB8779BFECF8EE08FB9779BFECF809169
:100B3000620088608093620080916200877F80936A
:100B400062008FE99FE00197F1F700C0000008956F
:100B50001FB8779BFECF8CE08FB9779BFECF80913B
:100B6000620088608093620080916200877F80933A
:100B700062008FE99FE00197F1F700C0000008953F
:100B80001FB8779BFECF8EE18FB9779BFECF809108
:100B9000620088608093620080916200877F80930A
:100BA00062008FE99FE00197F1F700C0000008950F
:100BB0001FB8779BFECF88E18FB9779BFECF8091DE
:100BC000620088608093620080916200877F8093DA
:100BD00062008FE99FE00197F1F700C000000895DF
:100BE000E2E6F0E08081886080838081877F808377
:100BF00008951FB8779BFECF81E08FB9779BFECF1A
:100C00008091620088608093620080916200877F9B
:100C1000809362008FE99FE00197F1F700C0000028
:100C200008951FB8779BFECF82E08FB9779BFECFE8
:100C30008091620088608093620080916200877F6B
:100C4000809362008FE99FE00197F1F700C00000F8
:100C500008951FB8779BFECF80EC8FB9779BFECFAE
:100C60008091620088608093620080916200877F3B
:100C7000809362008FE99FE00197F1F700C00000C8
:100C8000089590E131E020E23FB9779BFECF2FB984
:100C9000779BFECF80916200886080936200809194
:100CA0006200877F80936200EFE9FFE03197F1F700
:100CB00000C00000915041F7089591E09FB9779BE3
:100CC000FECF8FB9779BFECF8091620088608093C2
:100CD000620080916200877F809362008FE99FE0CD
:100CE0000197F1F700C000000895FC0140E050E0DA
:100CF00060E071E0DF01A40FB51F8C917FB9779B95
:100D0000FECF8FB9779BFECF909162009860909351
:100D1000620090916200977F909362008FE99FE05C
:100D20000197F1F700C000006F5F462F50E0DF0130
:100D30000D900020E9F79D012E1B3F0B2250310939
:100D400024173507B8F608958FEF99EF0197F1F75B
:100D500000C0000088E0809361001FB8779BFECF41
:100D600080E38FB9779BFECF80916200886080938B
:100D7000620080916200877F809362008FE99FE02C
:100D80000197F1F700C000001FB8779BFECF80E30A
:100D90008FB9779BFECF809162008860809362005C
:100DA00080916200877F809362008FE99FE00197C6
:100DB000F1F700C000001FB8779BFECF80E38FB92A
:100DC000779BFECF80916200886080936200809163
:100DD0006200877F809362008FE99FE00197F1F7BF
:100DE00000C000001FB8779BFECF88E38FB9779BC8
:100DF000FECF8091620088608093620080916200E3
:100E0000877F809362008FE99FE00197F1F700C030
:100E100000001FB8779BFECF88E08FB9779BFECF8D
:100E20008091620088608093620080916200877F79
:100E3000809362008FE99FE00197F1F700C0000006
:100E40001FB8779BFECF81E08FB9779BFECF809153
:100E5000620088608093620080916200877F809347
:100E600062008FE99FE00197F1F700C000001FB812
:100E7000779BFECF86E08FB9779BFECF8091620093
:100E800088608093620080916200877F8093620017
:100E90008FE99FE00197F1F700C000001FB8779B32
:100EA000FECF8CE08FB9779BFECF80916200886087
:100EB0008093620080916200877F809362008FE957
:100EC0009FE00197F1F700C0000008954F925F92F4
:100ED0006F927F928F929F92AF92BF92CF92DF924A
:100EE000EF92FF920F931F93CF93DF93CDB7DEB7AF
:100EF00069970FB6F894DEBF0FBECDBF142F422EF8
:100F00005E2C002379F06B017C01CC24F7FCC394A8
:100F1000DD24EE24FF240C2D6B017C0197FDA5C080
:100F2000C701B601442009F498C09E012F5F3F4FCE
:100F30005901490166246A94640C712C3FEF631ACD
:100F4000730A6A0C7B1C2AE030E040E050E00E940B
:100F5000EE09E62F2A8B3B8B4C8B5D8B6A897B8954
:100F60008C899D8920E32E0FF40121934F016E1689
:100F70007F0649F799249394940CF501E40DF11D33
:100F80002EE220832AE030E040E050E00E94EE09AB
:100F9000E62F2A8B3B8B4C8B5D8B6E8B7F8B888FE8
:100FA000998F6A897B898C899D8931E0390DD501BA
:100FB000A90DB11DE05DEC93932E611571058105BE
:100FC000910501F7112361F051104DC090E23117E6
:100FD00038F4F501E30FF11D90833F5F1313F9CF50
:100FE000002331F0F501E30FF11D9DE290833F5F97
:100FF00021E03150F501E30FF11D90812FB9779B6E
:10100000FECF9FB9779BFECF90916200986090933E
:10101000620090916200977F909362008FE99FE059
:101020000197F1F700C000003111E3CF69960FB6C8
:10103000F894DEBF0FBECDBFDF91CF911F910F910E
:10104000FF90EF90DF90CF90BF90AF909F908F90E8
:101050007F906F905F904F900895912C9E012F5F2D
:101060003F4F59018FCF90E3B2CFF094E094D094EA
:10107000C094C11CD11CE11CF11C52CF5F926F9235
:101080007F928F929F92AF92BF92CF92DF92EF9218
:10109000FF920F931F93CF93DF93CDB7DEB7619786
:1010A0000FB6F894DEBF0FBECDBF5C01962E542E56
:1010B000622E8B2C881C8824881C782C9C0197FD20
:1010C0009FC0552009F490C08E010F5F1F4F78011B
:1010D000CC24CA94C50CD12C8FEFC81AD80AC00EE4
:1010E000D11E6AE070E0C9010E94DA09462F242F60
:1010F000372F805DF70181937F01EC15FD0589F79E
:10110000FF24F394F50CF801E50DF11D8EE28083C8
:1011100001C0F92E6AE070E0C9010E94DA09462F89
:10112000242F372F91E09F0DF801EF0DF11D805D09
:1011300080832115310569F761105BC0B7FC65C07C
:101140009920B1F0682D70E080E2292F30E0492D20
:1011500050E0461B570B2417350754F49F5FF801E6
:10116000E20FF31F8083292F30E024173507B4F3F3
:10117000772031F0F801E90FF11D8DE280839F5F48
:1011800021E09150F801E90FF11D80812FB9779B83
:10119000FECF8FB9779BFECF8091620088608093ED
:1011A000620080916200877F80936200EFE9FFE038
:1011B0003197F1F700C000009111E3CF61960FB6AF
:1011C000F894DEBF0FBECDBFDF91CF911F910F917D
:1011D000FF90EF90DF90CF90BF90AF909F908F9057
:1011E0007F906F905F900895F12C8E010F5F1F4FDD
:1011F00091CF992009F4BCCF682D70E080E3A5CF92
:1012000022273327281B390B5CCFF394F394F80182
:10121000E90FF11D8DE28083992059F02F2D30E0E8
:10122000492D50E02417350724F49F2D712C80E2BE
:1012300095CF9F2DA5CF81B3836081BB87B3806F8E
:1012400087BBA09AC0ECC2B980B7886080BF87B75F
:10125000816087BF83B7816083BF889A8EB58960BC
:101260008EBD8FE99FE09BBD8ABD87B7806187BF38
:1012700087B7806487BF85B5896785BD88EC83BDE6
:1012800087B3876087BB80E58DB981E08EB9809197
:10129000610088608093610080916200877F809305
:1012A0006200809161008F7780936100809162007D
:1012B0008F778093620087B1876487B986B187682A
:1012C00086B90E94A40600000000C3B97894D0E05B
:1012D000CDEC08C08D2FDF5F0E943A030E940B0205
:1012E0000E94D7008FE99FE00197F1F700C000004E
:1012F0000E94480180912201813009F44CC0809104
:101300003401209135018C9FE12D1124E695E6955D
:10131000E6959AE0E99F8019112490E08D5F9E4F39
:10132000DC018C9180930F01EC9F812D1124869517
:1013300086958695BAE08B9FE0191124F0E0ED5F69
:10134000FE4F8081809310012C9FE12D1124E695A2
:10135000E695E695A22F8AE0E89FA0191124B0E057
:10136000AD5FBE4F8C9180931201EC9F812D1124B3
:101370008695869586959AE0899FE0191124F0E07C
:10138000ED5FFE4F808180931301D53008F4A2CF2A
:10139000D1E080E0A1CF80911C01209100018C9FC1
:1013A000E12D1124E695E695E695AAE0EA9F8019DD
:1013B0001124B3CF97FB072E16F4009407D077FDC6
:1013C00009D00E940D0A07FC05D03EF49095819546
:1013D0009F4F0895709561957F4F0895052E97FB57
:1013E0001EF400940E94050A57FD07D00E94210AAE
:1013F00007FC03D04EF40C94050A509540953095A7
:1014000021953F4F4F4F5F4F089590958095709570
:1014100061957F4F8F4F9F4F0895AA1BBB1B51E1D2
:1014200007C0AA1FBB1FA617B70710F0A61BB70B54
:10143000881F991F5A95A9F780959095BC01CD01F9
:101440000895A1E21A2EAA1BBB1BFD010DC0AA1F05
:10145000BB1FEE1FFF1FA217B307E407F50720F01D
:10146000A21BB30BE40BF50B661F771F881F991F98
:101470001A9469F760957095809590959B01AC01E1
:0E148000BD01CF0108950C94DA09F894FFCF56
:10148E000C0101C0F9A4B0999282F880987FFF00F8
:0A149E0000FC0000414C41524D00DB
:00000001FF
