:100000000C9446000C9465000C9465000C946500FB
:100010000C9465000C9465000C9465000C946500CC
:100020000C9465000C9465000C9465000C946500BC
:100030000C9465000C9465000C9465000C946500AC
:100040000C940A010C9465000C9465000C946500F6
:100050000C9465000C9465000C9465000C9465008C
:100060000C9465000C9465000C9465000C9465007C
:100070000C9465000C9465000C9465000C9465006C
:100080000C9465000C9465000C94650011241FBE4F
:10009000CFEFD0E1DEBFCDBF11E0A0E0B1E0E0EDF9
:1000A000F5E000E00BBF02C007900D92A031B10750
:1000B000D9F721E0A0E1B1E001C01D92AB32B20757
:1000C000E1F70E94AB020C94E6020C94000084E07D
:1000D00081BB87E087BB80E58DB981E08EB908954B
:1000E00087B7816087BF83B7816083BF0895482F3A
:1000F000E82FF0E099B3EE0FFF1FEE5EFE4F208178
:100100003181220F331F3E6F892F90E002C09595F9
:1001100087954A95E2F781709927282B392B3183EF
:10012000208381E021153F4F09F080E00895882366
:1001300031F0813059F0823059F0843009F080E09C
:100140008FB9779BFECF929A9298089581E0F8CF6D
:1001500082E0F6CF80911001813039F0811104C026
:1001600080911101813059F0089580911101813001
:1001700051F08111F9CF82E080930E01089584E05F
:1001800080930E01089510920E0108951ABA8FEF10
:100190008BBB95B3976095BB89B3209112013091C9
:1001A0001301220F331F3E6F482F417050E0242B64
:1001B000352B309313012093120121153F4FE1F0AD
:1001C00029B38091140190911501880F991F9E6F9A
:1001D00021FB662760F970E0862B972B9093150121
:1001E0008093140181159F4F59F00E94AA0010922C
:1001F000100110921101089581E080931001E0CF69
:1002000081E0809311010E94AA00109210011092C7
:10021000110108951F920F920FB60F9211240BB681
:100220000F922F933F934F935F936F937F938F938F
:100230009F93AF93BF93EF93FF938AB3809324016F
:100240008BB38093220185B3809325010E94C60061
:10025000809124018ABB809122018BBB8091250172
:1002600085BBFF91EF91BF91AF919F918F917F914E
:100270006F915F914F913F912F910F900BBE0F9017
:100280000FBE0F901F901895EF92FF920F931F9340
:10029000CF93DF938C019C01ADECBCEC0E94D702A4
:1002A000AC015695479556954795569547959A01B1
:1002B000220F331F440F551F440F551F440F551F66
:1002C000420F531F9801241B350BA90120932601CF
:1002D000EC01D695C795D695C795D695C7959E013D
:1002E0000E94D702FC01F695E795F695E795F695FD
:1002F000E795CF01880F991FEE0FFF1FEE0FFF1F2D
:10030000EE0FFF1FE80FF91FCE018E1B9F0BFC01A4
:100310008093270198013695279536952795ABE769
:10032000B4E10E94D7027C01F694E7949701ADEC0A
:10033000BCEC0E94D702EC01D695C795D695C7951F
:10034000D695C795CE01880F991FCC0FDD1FCC0F16
:10035000DD1FCC0FDD1FC80FD91FD701AC1BBD0B94
:10036000ED01A0932901980136952795369527959B
:1003700036952795A5ECB0E20E94D7027C01F29455
:10038000E2947FE0E722EF24F722EF249701ADEC1F
:10039000BCEC0E94D7029695879596958795969581
:1003A00087959C01220F331F880F991F880F991F73
:1003B000880F991F820F931F9701281B390BC901C2
:1003C00020932A010A30110508F446C098012A50EA
:1003D00031092A35310508F47AC0980124563109CB
:1003E00015BA2438334008F44EC0DA01A050BF4F8C
:1003F0002C912BBBAFE3BCE91197F1F700C00000D3
:1004000021E025BBE050FF4F20812BBBEFE3FCE94F
:100410003197F1F700C0000023E025BBC050DF4F4B
:1004200028812BBBAFE3BCE91197F1F700C00000B6
:1004300024E025BBFC01E050FF4F80818BBBEFE344
:10044000FCE93197F1F700C00000DF91CF911F91D7
:100450000F91FF90EF90089515BAFA01E050FF4F09
:1004600080818BBB8FE39FE10197F1F700C0000013
:1004700084E085BB8FEF8BBBDF91CF911F910F91F4
:10048000FF90EF900895DA01A050BF4F8C918BBB85
:100490008FE39FE10197F1F700C0000081E085BB89
:1004A000E050FF4F80818BBBAFE3BFE11197F1F7C5
:1004B00000C0000083E085BBC050DF4F88818BBB4C
:1004C000DF91CF911F910F91FF90EF90089515BA92
:1004D000DA01A050BF4F8C918BBBAFE3BFE1119706
:1004E000F1F700C0000081E085BBE050FF4F808144
:1004F0008BBBDF91CF911F910F91FF90EF900895EB
:100500008FEF8ABB15BA8BBBEFE3FFE13197F1F7B1
:1005100000C0000091E095BB8BBBEFE3FFE131979A
:10052000F1F700C0000093E095BB8BBBEFE3FFE168
:100530003197F1F700C0000094E095BB8BBB8FE3CF
:100540009FE10197F1F700C0000008952FEF2ABB4B
:1005500015BA0C94440187B7816087BF83B7816067
:1005600083BF84E081BB97E097BB90E59DB991E0A4
:100570009EB9789481BB88B388BB8FE084BB0FEFB2
:1005800013E0CFEF80910E010E94970010930D01B0
:1005900000930C01CABB15BA8FEF93E00E9444018F
:1005A0008FE39FE10197F1F700C00000EBCFA29F1E
:1005B000B001B39FC001A39F700D811D1124911D37
:1005C000B29F700D811D1124911D0895F894FFCFE5
:1005D000C0F9A4B0999282F880987FFFFF030100D0
:00000001FF
