S00C00006C6162332E73726563B6
S11300000C9446000C9465000C9465000C946500F7
S11300100C9465000C9465000C9465000C946500C8
S11300200C9465000C9465000C9465000C946500B8
S11300300C9465000C9465000C9465000C946500A8
S11300400C940A010C9465000C9465000C946500F2
S11300500C9465000C9465000C9465000C94650088
S11300600C9465000C9465000C9465000C94650078
S11300700C9465000C9465000C9465000C94650068
S11300800C9465000C9465000C94650011241FBE4B
S1130090CFEFD0E1DEBFCDBF11E0A0E0B1E0E0EBF7
S11300A0F5E000E00BBF02C007900D92AE30B1073F
S11300B0D9F721E0AEE0B1E001C01D92A932B20748
S11300C0E1F70E94AA020C94D6020C94000084E08A
S11300D081BB87E087BB80E58DB981E08EB9089547
S11300E087B7816087BF83B7816083BF0895482F36
S11300F0E82FF0E099B3EE0FFF1FE05FFE4F208181
S11301003181220F331F3E6F892F90E002C09595F5
S113011087954A95E2F781709927282B392B3183EB
S1130120208381E021153F4F09F080E00895882362
S113013031F0813059F0823059F0843009F080E098
S11301408FB9779BFECF929A9298089581E0F8CF69
S113015082E0F6CF80910E01813039F0811104C024
S113016080910F01813059F0089580910F01813001
S113017051F08111F9CF82E080930D01089584E05C
S113018080930D01089510920D0108951ABA8FEF0E
S11301908BBB95B3976095BB89B3209110013091C7
S11301A01101220F331F3E6F482F417050E0242B62
S11301B0352B309311012093100121153F4FE1F0AD
S11301C029B38091120190911301880F991F9E6F9A
S11301D021FB662760F970E0862B972B909313011F
S11301E08093120181159F4F59F00E94AA0010922A
S11301F00E0110920F01089581E080930E01E0CF6B
S113020081E080930F010E94AA0010920E011092C7
S11302100F0108951F920F920FB60F9211240BB67F
S11302200F922F933F934F935F936F937F938F938B
S11302309F93AF93BF93EF93FF938AB3809322016D
S113024089B38093200183B3809323010E94C60065
S11302508091230183BB809122018ABB809120017C
S11302608BBBFF91EF91BF91AF919F918F917F9144
S11302706F915F914F913F912F910F900BBE0F9013
S11302800FBE0F901F901895EF92FF920F931F933C
S1130290CF93DF938C019C01ADECBCEC0E94C702B0
S11302A0AC015695479556954795569547959A01AD
S11302B0220F331F440F551F440F551F440F551F62
S11302C0420F531F9801241B350BA90120932401CD
S11302D0EC01D695C795D695C795D695C7959E0139
S11302E00E94C702FC01F695E795F695E795F69509
S11302F0E795CF01880F991FEE0FFF1FEE0FFF1F29
S1130300EE0FFF1FE80FF91FCE018E1B9F0BFC01A0
S11303108093250198013695279536952795ABE767
S1130320B4E10E94C7027C01F694E7949701ADEC16
S1130330BCEC0E94C702EC01D695C795D695C7952B
S1130340D695C795CE01880F991FCC0FDD1FCC0F12
S1130350DD1FCC0FDD1FC80FD91FD701AC1BBD0B90
S1130360ED01A09327019801369527953695279599
S113037036952795A5ECB0E20E94C7027C01F29461
S1130380E2947FE0E722EF24F722EF249701ADEC1B
S1130390BCEC0E94C702969587959695879596958D
S11303A087959C01220F331F880F991F880F991F6F
S11303B0880F991F820F931F9701281B390BC901BE
S11303C0209328010A30110508F440C098012A50EE
S11303D031092A35310508F474C0980124563109CD
S11303E015BA2438334008F448C0DA01A050BF4F8E
S11303F02C912BBBAFE3BFE11197F1F700C00000D4
S113040021E025BBE050FF4F20812BBBEFE3FFE150
S11304103197F1F700C0000023E025BBC050DF4F47
S113042028812BBBAFE3BFE11197F1F700C00000B7
S113043024E025BBFC01E050FF4F80818BBBDF91A2
S1130440CF911F910F91FF90EF90089515BAFA0183
S1130450E050FF4F80818BBB8FE39FE10197F1F761
S113046000C0000084E085BB8FEF8BBBDF91CF9190
S11304701F910F91FF90EF900895DA01A050BF4FA4
S11304808C918BBB8FE39FE10197F1F700C00000D3
S113049081E085BBE050FF4F80818BBBAFE3BFE1C0
S11304A01197F1F700C0000083E085BBC050DF4F17
S11304B088818BBBDF91CF911F910F91FF90EF90BB
S11304C0089515BADA01A050BF4F8C918BBBAFE3EE
S11304D0BFE11197F1F700C0000081E085BBE05057
S11304E0FF4F80818BBBDF91CF911F910F91FF90C4
S11304F0EF9008958FEF8ABB0000000015BA8BBB04
S1130500EFE3FFE13197F1F700C0000091E095BB04
S11305108BBBEFE3FFE13197F1F700C0000093E0FC
S113052095BB8BBBEFE3FFE13197F1F700C000000F
S113053094E095BB8BBB8FE39FE10197F1F700C07B
S1130540000008958FEF8ABB15BA80910C0190E0EA
S11305500C94440187B7816087BF83B7816083BFF0
S113056084E081BB97E097BB90E59DB991E09EB98B
S1130570789481BB88B388BB80910D010E94970059
S11305808FE39FE10197F1F700C00000F5CFA29F30
S1130590B001B39FC001A39F700D811D1124911D53
S11305A0B29F700D811D1124911D0895F894FFCF01
S11105B0C0F9A4B0999282F880987FFFFF01F1
S9030000FC
