:100000000C9414010C9433010C9433010C943301BF
:100010000C9433010C9433010C9433010C94330190
:100020000C9433010C9433010C94B2040C943301FE
:100030000C94A0040C9433010C9433010C94330100
:100040000C94E1040C9433010C9433010C943301AF
:100050000C9433010C9433010C9433010C94330150
:100060000C9433010C9433010C9433010C94330140
:100070000C9433010C9433010C9433010C94330130
:100080000C9433010C94860B0C943301C70B9E0B1C
:100090009E0B9E0B9E0B9E0B9E0B9E0BC70B9E0BEF
:1000A0009E0B9E0B9E0B9E0B9E0B9E0BD10B9E0BD5
:1000B0009E0B9E0B9E0B9E0B9E0B9E0B9E0B9E0BF8
:1000C0009E0B9E0B9E0B9E0B9E0B9E0BD10B9E0BB5
:1000D0009E0B9E0B9E0B9E0B9E0B9E0B9E0B9E0BD8
:1000E0009E0B9E0B9E0B9E0B9E0B9E0BE80B9E0B7E
:1000F0009E0B9E0B9E0B9E0B9E0B9E0BEC0B9E0B6A
:100100009E0B9E0B9E0B9E0B9E0B9E0B9E0B9E0BA7
:100110009E0B9E0B9E0B9E0B9E0B9E0BFA0B9E0B3B
:100120009E0B9E0B9E0B9E0B9E0B9E0BB80B0040D6
:100130007A10F35A00A0724E18090010A5D4E800F6
:1001400000E87648170000E40B54020000CA9A3B0E
:10015000000000E1F5050000809698000000404294
:100160000F000000A0860100000010270000000022
:10017000E803000000006400000000000A00000026
:1001800000000100000000002C76D888DC674F08D2
:1001900023DFC1DFAE59E1B1B796E5E3E453C63AD8
:1001A000E651997696E8E6C28426EB898C9B62ED4F
:1001B000407C6FFCEFBC9C9F40F2BAA56FA5F49009
:1001C000055A2AF75C936B6CF9676DC11BFCE0E480
:1001D0000D47FEF520E6B500D0ED902E03009435D6
:1001E00077050080841E080000204E0A000000C829
:1001F0000C333333330F986E12831141EF8D21147A
:10020000893BE65516CFFEE6DB18D1844B381BF749
:100210007C1D901DA4BBE424203284725E228100E8
:10022000C9F124ECA1E53D2711241FBECFEFD0E199
:10023000DEBFCDBF11E0A0E0B1E0E6E4F2E200E015
:100240000BBF02C007900D92A433B107D9F722E08B
:10025000A4E3B1E001C01D92A533B207E1F70E940B
:10026000440C0C9421110C940000E1E6F0E0808134
:100270008F778083E2E6F0E080818F77808387B19B
:10028000876487B986B1876886B90895CF93DF936D
:10029000369A349BFECF349AC4B1D5B16DEC70E080
:1002A0008C2F90E00E94D00E9093AB018093AA0116
:1002B000C3BDDF91CF91089587B3876087BB80E589
:1002C0008DB981E08EB9E1E6F0E0808188608083BD
:1002D000E2E6F0E08081877F808308951FB8779BF6
:1002E000FECF8FB1089580B7886080BF87B78160E7
:1002F00087BF83B7816083BF08958D9A8EB589606B
:100300008EBD8FE99FE09BBD8ABD87B7806187BFA7
:10031000089587B7806487BF85B5896785BD88ECF8
:1003200083BD08958FB9779BFECF949A94980895D2
:1003300080913B018130A1F180E2809300018093A4
:100340000101809302018093030180930401809353
:100350000501E6E0F1E0A0E1B1E080E2819391E007
:10036000E031F907D9F7E7E7F1E081918D9381E07A
:10037000ED37F807D1F780E280931601E7E6F1E068
:10038000A7E1B1E081918D9391E0ED36F907D1F7C6
:1003900080E280931D0180931E0180931F010895C8
:1003A00081E4809300019CE4909301018093020119
:1003B00082E5809303018DE480930401CACF80918C
:1003C0003501811114C080913B0181112AC08091B7
:1003D0003A018823B1F010923501809134018A30BE
:1003E00081F187B78F7E87BF1BBC1ABC08958091AF
:1003F0003B018111ECCF1092350180913A018111BE
:10040000EACF809134018A30E1F080913501882370
:1004100041F387B7806187BF8FE99FE09BBD8ABDAD
:10042000089590914F01809120019813D0CF909121
:100430004E01809136019813CACF81E08093350137
:10044000C6CF81E08093350110923A0110923401B9
:1004500087B7806187BF8FE99FE09BBD8ABD089504
:10046000482FE82FF0E099B3EE0FFF1FEF5AFE4F31
:1004700020813181220F331F306E892F90E002C01E
:10048000959587954A95E2F781709927282B392B06
:100490003183208381E021153F4F09F080E00895EA
:1004A0001ABA8FEF8BBB88B3806788BBE1E5F1E0B8
:1004B00061E070E040E050E0A1E007C06830710505
:1004C000D1F14F5F5F4F6F5F7F4F99B320813181D3
:1004D000220F331F306E892F90E0042E02C09595B5
:1004E00087950A94E2F781709927822B932B819349
:1004F000919381159F4F11F74730510591F0463088
:100500005105B9F14530510551F144305105F9F02B
:1005100043305105C9F04230510581F6A0934301A3
:10052000D0CF81E08093480190913D01892780934D
:100530003D0110923C01E1E4F1E08AE491E0119286
:100540008E179F07E1F70895A0934401BACFA093B7
:10055000450180913A018A2780933A01B2CFA09356
:10056000460180913B018A2780933B01A09337018C
:10057000A8CFA093470180913C018A2780933C013A
:1005800010923D019ECF90914E019C33DCF48091FE
:100590004F0188312CF010924F0197FD08C008954B
:1005A00087FFFBCF87E180934F0197FFF8CF8BE365
:1005B00080934E0180914F01815087FD87E18093A8
:1005C0004F01089510924E0180914F018F5F8093EB
:1005D0004F0190E0DECF909136019C33DCF48091A6
:1005E000200188312CF01092200197FD08C0089559
:1005F00087FFFBCF87E18093200197FFF8CF8BE344
:100600008093360180912001815087FD87E180939E
:100610002001089510923601809120018F5F809310
:10062000200190E0DECF80913D01813099F08091F2
:100630003C01813089F080913901813079F08091DD
:100640003801813069F080E08FB9779BFECF949AB2
:100650009498089581E0F8CF82E0F6CF88E0F4CF57
:1006600080E1F2CF93B180E4982793B993B18927C1
:1006700083B983B1805883B91FB8779BFECF8FB100
:1006800080934D0183B1805883B940914D01542F1F
:1006900087E090E061E070E09B01082E01C0220F2E
:1006A0000A94EAF720955223019781309105A1F72A
:1006B00050934B014695469587E090E061E070E0ED
:1006C0009B01082E01C0220F0A94EAF720954223CD
:1006D000019781309105A1F7409349018091400134
:1006E000811107C050934C0140934A0181E08093EF
:1006F0004001533051F050934C01433031F140935D
:100700004A010E94C3020C94EB0280914C0181309B
:1007100009F451C0823079F780913D01882339F086
:1007200080914F01815080934F011092A9018091D7
:100730003C01882329F08091200181508093200181
:1007400083E080934C014330D1F680914A0181309F
:10075000E9F08230A1F680913D01882339F0809143
:100760004E01815080934E011092A90180913C016D
:10077000882329F08091360181508093360183E0EF
:1007800080934A010E94C3020C94EB0280913D01C8
:10079000882339F080914E018F5F80934E01109233
:1007A000A90180913C01882351F3809136018F5F2C
:1007B00080933601E4CF80913D01882339F0809108
:1007C0004F018F5F80934F011092A90180913C01EE
:1007D000882309F4B5CF809120018F5F8093200199
:1007E000AFCFE82FF0E0ED5DFE4F80810895CF930D
:1007F000DF93AFE2B1E09DEC699FE12D1124E69516
:10080000E695E6952AE0E29F60191124C62FD0E014
:10081000CD5DDE4F28812C93E99F212D1124269553
:10082000269526953AE0239FE0191124F0E0ED5D2E
:10083000FE4F208111962C931197899FE12D112451
:10084000E695E695E6952AE0E29F80191124C82FE7
:10085000D0E0CD5DDE4F888113968C931397E99F8E
:10086000912D11249695969596953AE0939FE019CF
:100870001124F0E0ED5DFE4F808114968C93DF91A2
:10088000CF9108950000000008959FEF9ABB882340
:1008900079F08130A9F0823029F1833031F1843050
:1008A000C1F0E82FF0E0E15DFE4F80818BBB089541
:1008B00018BAE82FF0E0E15DFE4F80818BBB089510
:1008C00090E198BBE82FF0E0E15DFE4F80818BBBAB
:1008D000089590E498BBE82FF0E0E15DFE4F808141
:1008E0008BBB089590E298BBDCCF90E398BBD9CF47
:1008F0008FEF8ABB0000000018BA8BBBEFE9FFE066
:100900003197F1F700C0000090E198BB8BBBEFE995
:10091000FFE03197F1F700C0000090E398BB8BBB7C
:10092000EFE9FFE03197F1F700C0000090E498BBD9
:100930008BBB8FE99FE00197F1F700C0000008959D
:100940001F920F920FB60F9211248F939F9392B321
:1009500080E2892782BB9F918F910F900FBE0F90ED
:100960001F9018951F920F920FB60F9211240F909F
:100970000FBE0F901F90189580918701909188016C
:1009800090936401809363010E94710B909388019E
:10099000809387012091630130916401821793074E
:1009A00079F041E0BC0187E791E00E94880A6091FC
:1009B00087017091880140E087E691E00C94880AF5
:1009C00008951F920F920FB60F9211240BB60F923B
:1009D0002F933F934F935F936F937F938F939F9347
:1009E000AF93BF93EF93FF93809150018F5F8093FC
:1009F0005001982F9F77E1F48091A9018F5F809338
:100A0000A9012091220191E0922790932201913037
:100A100061F197E0909331018C3361F180913A015B
:100A20008130E9F10E94BC040E949801809150013C
:100A30008F7111F40E9446010E94320380E091E020
:100A40000E947005FF91EF91BF91AF919F918F919F
:100A50007F916F915F914F913F912F910F900BBEBE
:100A60000F900FBE0F901F9018959CEF909331013F
:100A70008C33A1F680914E018F5F80934E011092CE
:100A8000A9018C3359F680914F018F5F80934F01FC
:100A900010924E01883111F610924F01BFCF809114
:100AA00034018F5F80933401BDCF91E0811101C08B
:100AB00090E09FB9779BFECF6FB9779BFECF809177
:100AC000620088608093620080916200877F8093DB
:100AD00062008FE99FE00197F1F700C000000895E0
:100AE00021E02FB9779BFECF20916101FC01E20F3D
:100AF000F11D80818FB9779BFECF80916200886065
:100B00008093620080916200877F80936200809171
:100B100061018F5F80936101803109F1803209F0BA
:100B2000089595ED9A95F1F700001FB8779BFECFD9
:100B300082E08FB9779BFECF8091620088608093BE
:100B4000620080916200877F809362008FE99FE05E
:100B50000197F1F700C0000010926101089585ED42
:100B60008A95F1F700001FB8779BFECF80EC8FB914
:100B7000779BFECF809162008860809362008091B5
:100B80006200877F809362008FE99FE00197F1F711
:100B900000C0000080916101C1CF660F660F660F33
:100BA000605C1FB8779BFECF6FB9779BFECF20911B
:100BB000620028602093620020916200277F2093CA
:100BC0006200AFE9BFE01197F1F700C00000FC013F
:100BD0009C01285F3F4F91E081919FB9779BFECFA9
:100BE0008FB9779BFECF809162008860809362000E
:100BF00080916200877F80936200AFE9BFE0119728
:100C0000F1F700C00000E217F30731F7089590E410
:100C1000899F600D1124605C1FB8779BFECF6FB970
:100C2000779BFECF80916200886080936200809104
:100C30006200877F809362008FE99FE00197F1F760
:100C400000C000000895811119C081E08FB9779B21
:100C5000FECF80E38FB9779BFECF809162008860E2
:100C60008093620080916200877F809362008FE9A9
:100C70009FE00197F1F700C0000008958436B0F4BA
:100C80008A3090F591E09FB9779BFECF9DEC899FCC
:100C9000912D1124969596959695FAE09F9F80192F
:100CA0001124805D8FB9779BFECFD7CF99E2899FC2
:100CB000912D112492959F70905D21E02FB9779B23
:100CC000FECF9FB9779BFECF909162009860909382
:100CD000620090916200977F90936200EFE9FFE0DD
:100CE0003197F1F700C0000099E2899F912D1124FE
:100CF00092959F70282FF4E69F9F20191124922F20
:100D00002DEC929F912D1124969596959695905D38
:100D100021E02FB9779BFECF9FB9779BFECF9091B3
:100D2000620098609093620090916200977F909328
:100D30006200EFE9FFE03197F1F700C00000A2CFB9
:100D400087FF0C94230691E09FB9779BFECF9DE22D
:100D50009FB9779BFECF909162009860909362005C
:100D600090916200977F90936200EFE9FFE03197E6
:100D7000F1F700C0000081950C9423061FB8779B03
:100D8000FECF8EE08FB9779BFECF809162008860A6
:100D90008093620080916200877F809362008FE978
:100DA0009FE00197F1F700C0000008951FB8779BFE
:100DB000FECF8CE08FB9779BFECF80916200886078
:100DC0008093620080916200877F809362008FE948
:100DD0009FE00197F1F700C0000008951FB8779BCE
:100DE000FECF8EE18FB9779BFECF80916200886045
:100DF0008093620080916200877F809362008FE918
:100E00009FE00197F1F700C0000008951FB8779B9D
:100E1000FECF88E18FB9779BFECF8091620088601A
:100E20008093620080916200877F809362008FE9E7
:100E30009FE00197F1F700C000000895E2E6F0E0BE
:100E40008081886080838081877F808308951FB838
:100E5000779BFECF81E08FB9779BFECF80916200B8
:100E600088608093620080916200877F8093620037
:100E70008FE99FE00197F1F700C0000008951FB8C7
:100E8000779BFECF82E08FB9779BFECF8091620087
:100E900088608093620080916200877F8093620007
:100EA0008FE99FE00197F1F700C0000008951FB897
:100EB000779BFECF80EC8FB9779BFECF809162004D
:100EC00088608093620080916200877F80936200D7
:100ED0008FE99FE00197F1F700C00000089590E1CD
:100EE00031E020E23FB9779BFECF2FB9779BFECF51
:100EF0008091620088608093620080916200877FA9
:100F000080936200EFE9FFE03197F1F700C0000045
:100F1000915041F7089591E09FB9779BFECF8FB92B
:100F2000779BFECF80916200886080936200809101
:100F30006200877F809362008FE99FE00197F1F75D
:100F400000C000000895FC0140E050E060E071E066
:100F5000DF01A40FB51F8C917FB9779BFECF8FB9AE
:100F6000779BFECF90916200986090936200909181
:100F70006200977F909362008FE99FE00197F1F7FD
:100F800000C000006F5F462F50E0DF010D90002091
:100F9000E9F79D012E1B3F0B22503109241735071D
:100FA000B8F608958FEF99EF0197F1F700C00000B0
:100FB00088E0809361001FB8779BFECF80E38FB9F4
:100FC000779BFECF80916200886080936200809161
:100FD0006200877F809362008FE99FE00197F1F7BD
:100FE00000C000001FB8779BFECF80E38FB9779BCE
:100FF000FECF8091620088608093620080916200E1
:10100000877F809362008FE99FE00197F1F700C02E
:1010100000001FB8779BFECF80E38FB9779BFECF90
:101020008091620088608093620080916200877F77
:10103000809362008FE99FE00197F1F700C0000004
:101040001FB8779BFECF88E38FB9779BFECF809147
:10105000620088608093620080916200877F809345
:1010600062008FE99FE00197F1F700C000001FB810
:10107000779BFECF88E08FB9779BFECF809162008F
:1010800088608093620080916200877F8093620015
:101090008FE99FE00197F1F700C000001FB8779B30
:1010A000FECF81E08FB9779BFECF80916200886090
:1010B0008093620080916200877F809362008FE955
:1010C0009FE00197F1F700C000001FB8779BFECFAB
:1010D00086E08FB9779BFECF809162008860809315
:1010E000620080916200877F809362008FE99FE0B9
:1010F0000197F1F700C000001FB8779BFECF8CE08E
:101100008FB9779BFECF80916200886080936200E8
:1011100080916200877F809362008FE99FE0019752
:10112000F1F700C0000008954F925F926F927F9296
:101130008F929F92AF92BF92CF92DF92EF92FF92E7
:101140000F931F93CF93DF93CDB7DEB769970FB699
:10115000F894DEBF0FBECDBF142F422E5E2C0023AD
:1011600079F06B017C01CC24F7FCC394DD24EE24E0
:10117000FF240C2D6B017C0197FDA5C0C701B601B2
:10118000442009F498C09E012F5F3F4F5901490147
:1011900066246A94640C712C3FEF631A730A6A0C1C
:1011A0007B1C2AE030E040E050E00E94270DE62F53
:1011B0002A8B3B8B4C8B5D8B6A897B898C899D89C3
:1011C00020E32E0FF40121934F016E167F0649F79D
:1011D00099249394940CF501E40DF11D2EE22083E3
:1011E0002AE030E040E050E00E94270DE62F2A8BF5
:1011F0003B8B4C8B5D8B6E8B7F8B888F998F6A8935
:101200007B898C899D8931E0390DD501A90DB11DEE
:10121000E05DEC93932E611571058105910501F751
:10122000112361F051104DC090E2311738F4F501EF
:10123000E30FF11D90833F5F1313F9CF002331F0CB
:10124000F501E30FF11D9DE290833F5F21E03150F6
:10125000F501E30FF11D90812FB9779BFECF9FB968
:10126000779BFECF9091620098609093620090917E
:101270006200977F909362008FE99FE00197F1F7FA
:1012800000C000003111E3CF69960FB6F894DEBFBD
:101290000FBECDBFDF91CF911F910F91FF90EF90C7
:1012A000DF90CF90BF90AF909F908F907F906F9086
:1012B0005F904F900895912C9E012F5F3F4F5901F1
:1012C0008FCF90E3B2CFF094E094D094C094C11C3F
:1012D000D11CE11CF11C52CF5F926F927F928F92D2
:1012E0009F92AF92BF92CF92DF92EF92FF920F93B5
:1012F0001F93CF93DF93CDB7DEB761970FB6F89406
:10130000DEBF0FBECDBF5C01962E542E622E8B2CFD
:10131000881C8824881C782C9C0197FD9FC0552030
:1013200009F490C08E010F5F1F4F7801CC24CA943E
:10133000C50CD12C8FEFC81AD80AC00ED11E6AE096
:1013400070E0C9010E94130D462F242F372F805DB6
:10135000F70181937F01EC15FD0589F7FF24F394D4
:10136000F50CF801E50DF11D8EE2808301C0F92E28
:101370006AE070E0C9010E94130D462F242F372F19
:1013800091E09F0DF801EF0DF11D805D8083211527
:10139000310569F761105BC0B7FC65C09920B1F0F9
:1013A000682D70E080E2292F30E0492D50E0461B87
:1013B000570B2417350754F49F5FF801E20FF31F12
:1013C0008083292F30E024173507B4F3772031F0DC
:1013D000F801E90FF11D8DE280839F5F21E09150BC
:1013E000F801E90FF11D80812FB9779BFECF8FB9EE
:1013F000779BFECF8091620088608093620080912D
:101400006200877F80936200EFE9FFE03197F1F798
:1014100000C000009111E3CF61960FB6F894DEBFD3
:101420000FBECDBFDF91CF911F910F91FF90EF9035
:10143000DF90CF90BF90AF909F908F907F906F90F4
:101440005F900895F12C8E010F5F1F4F91CF99206F
:1014500009F4BCCF682D70E080E3A5CF22273327A5
:10146000281B390B5CCFF394F394F801E90FF11DBD
:101470008DE28083992059F02F2D30E0492D50E0E6
:101480002417350724F49F2D712C80E295CF9F2DD2
:10149000A5CF5D9BFECF8CB95D9BFECF0895FC016F
:1014A0009081992349F031965D9BFECF9CB95D9B5D
:1014B000FECF91919111F8CF08959C01FC014491C8
:1014C000442369F00196F90124915D9BFECF2CB96C
:1014D0005D9BFECF9C01FC0144914111F3CF089527
:1014E0008AB188618AB9E5E9F0E08081866080830D
:1014F0001092900080E189B9089580E89EE302C0CF
:10150000019721F05F9BFCCF8CB1089580E0089596
:101510004F925F926F927F92AF92BF92CF92DF9283
:10152000EF92FF920F931F93CF93DF937C01A42E32
:101530008B0116950795129502950F7001271F7064
:101540000127F7011082BB24B394C0E0D0E0412C06
:10155000512C3201CC24C394D12CC6010C2E02C0D4
:10156000880F991F0A94E2F780239123892BF9F0C1
:10157000CC2309F469C0C13009F49DC0C23009F41C
:101580008FC0C33009F4A2C0C43009F468C0C530AC
:1015900009F47BC0C63009F46DC020E030E040E0C3
:1015A00052E4C301B2010E94860D2B013C0128E0E8
:1015B000B21619F02196B394D0CFAA2041F126E6B5
:1015C00036E646EE5FE3C301B2010E94430E20E01F
:1015D00030E040E052E40E94860D870122E030E0D6
:1015E00045E050E00E94B00E81E0A81619F180E0BD
:1015F000DF91CF911F910F91FF90EF90DF90CF90EF
:10160000BF90AF907F906F905F904F90089587014B
:1016100022E030E045E050E0C301B2010E94B00E8C
:10162000F70101900020E9F7319783E490E091837E
:101630008083DDCFF70101900020E9F7319786E440
:1016400090E091838083D3CF20E030E040E85EE3F8
:10165000C301B2010E94860D2B013C01ABCF20E0FB
:1016600030E040E850E4C301B2010E94860D2B0136
:101670003C01A0CF20E030E040E851E4C301B201DA
:101680000E94860D2B013C0195CF20E030E040E028
:1016900051E4C301B2010E94860D2B013C018ACFA7
:1016A00020E030E040E85FE3C301B2010E94860D14
:1016B0002B013C017FCF20E030E040E05FE3C3013D
:1016C000B2010E94860D2B013C0174CF20E030E076
:1016D00040E050E4C301B2010E94860D2B013C01A1
:1016E00069CF42E06EE272E080E90E942A0C8FE34B
:1016F0009FE10197F1F700C00000EEE2F2E0808187
:1017000090E0982F88272181822B08951F920F92B5
:101710000FB60F9211240BB60F922F933F938F9316
:101720009F93AF93BF93EF93FF93E09171008E2F40
:1017300090E0FC013897E135F105B0F0809171003F
:101740008093300284E080937400FF91EF91BF9109
:10175000AF919F918F913F912F910F900BBE0F9062
:101760000FBE0F901F901895EA5BFF4F0C94460D2B
:1017700080916201E0913102F0913202E80FF11D97
:1017800080917300808384E980937400DECF809120
:101790003302809373001092620185E88093740095
:1017A000D4CF8091620190913402891760F7E09163
:1017B0003102F091320291E0980F90936201E80FAC
:1017C000F11D80818093730085E880937400BDCF04
:1017D00085EA80937400B9CF209162018091340230
:1017E00030E090E0019728173907DCF485EC80930E
:1017F0007400ABCFE0913102F0913202809162012E
:1018000021E0280F20936201E80FF11D8091730001
:1018100080838091340230E090E0019728173907E7
:101820002CF385E88093740090CF809174008170D0
:1018300008959091740090FDFCCF8E7F80933302C9
:1018400070933202609331024093340285EA8093B0
:10185000740008959091740090FDFCCF8160809396
:10186000330270933202609331024093340285EA6E
:101870008093740008958FEF80937300109271002D
:101880008CE080937000089581B3806381BB87B33F
:10189000806F87BBA09AC0ECC2B980B7886080BF58
:1018A00087B7816087BF83B7816083BF8D9A8EB50C
:1018B00089608EBD8FE99FE09BBD8ABD87B780613F
:1018C00087BF87B7806487BF85B5896785BD88EC8A
:1018D00083BD87B3876087BB80E58DB981E08EB912
:1018E0008091610088608093610080916200877FB1
:1018F00080936200809161008F7780936100809176
:1019000062008F778093620087B1876487B986B160
:10191000876886B90E94D207C3B90E943B0C7894AD
:1019200010922C0241E06CE272E080E90E94190CF6
:101930008FE39FE10197F1F700C000000E942707A5
:10194000D0E0CDEC08C08D2FDF5F0E9445040E94DF
:1019500013030E94DF01AFE9BFE01197F1F700C068
:1019600000000E94500280913C01813009F44CC07B
:1019700080914E0120914F018C9FE12D1124E6951D
:10198000E695E695BAE0EB9F8019112490E08D5D15
:101990009E4FDC018C9180932F01EC9F812D1124AF
:1019A000869586958695BAE08B9FE0191124F0E024
:1019B000ED5DFE4F8081809330012C9FE12D11243D
:1019C000E695E695E695A22F8AE0E89FA0191124F6
:1019D000B0E0AD5DBE4F8C9180933201EC9F812DC4
:1019E00011248695869586959AE0899FE0191124A1
:1019F000F0E0ED5DFE4F808180933301D53008F437
:101A0000A2CFD1E080E0A1CF8091360120912001CA
:101A10008C9FE12D1124E695E695E695AAE0EA9FD4
:101A200080191124B3CF97FB072E16F4009407D02A
:101A300077FD09D00E944F0D07FC05D03EF490952C
:101A400081959F4F0895709561957F4F0895052E5C
:101A500097FB1EF400940E943E0D57FD07D00E9494
:101A6000630D07FC03D04EF40C943E0D5095409549
:101A7000309521953F4F4F4F5F4F0895909580953A
:101A8000709561957F4F8F4F9F4F0895EE0FFF1F09
:101A90000024001C0BBE0790F691E02D0994AA1BB0
:101AA000BB1B51E107C0AA1FBB1FA617B70710F049
:101AB000A61BB70B881F991F5A95A9F7809590957B
:101AC000BC01CD010895A1E21A2EAA1BBB1BFD018A
:101AD0000DC0AA1FBB1FEE1FFF1FA217B307E4070D
:101AE000F50720F0A21BB30BE40BF50B661F771F65
:101AF000881F991F1A9469F7609570958095909545
:101B00009B01AC01BD01CF0108955058BB27AA2706
:101B10000E949D0D0C94090E0E94FB0D38F00E944E
:101B2000020E20F039F49F3F19F426F40C94F80DBE
:101B30000EF4E095E7FB0C94F20DE92F0E941A0ECB
:101B400058F3BA17620773078407950720F079F4F2
:101B5000A6F50C943C0E0EF4E0950B2EBA2FA02D9A
:101B60000B01B90190010C01CA01A0011124FF274A
:101B7000591B99F0593F50F4503E68F11A16F04045
:101B8000A22F232F342F4427585FF3CF4695379544
:101B90002795A795F0405395C9F77EF41F16BA0B09
:101BA000620B730B840BBAF09150A1F0FF0FBB1FB7
:101BB000661F771F881FC2F70EC0BA0F621F731F00
:101BC000841F48F4879577956795B795F7959E3F5D
:101BD00008F0B0CF9395880F08F09927EE0F9795EE
:101BE0008795089597F99F6780E870E060E0089511
:101BF0009FEF80EC089500240A9416161706180625
:101C00000906089500240A94121613061406050600
:101C10000895092E0394000C11F4882352F0BB0F91
:101C200040F4BF2B11F460FF04C06F5F7F4F8F4FF4
:101C30009F4F089557FD9058440F551F59F05F3F2F
:101C400071F04795880F97FB991F61F09F3F79F0DE
:101C500087950895121613061406551FF2CF469560
:101C6000F1DF08C0161617061806991FF1CF8695E2
:101C70007105610508940895E894BB2766277727C6
:101C8000CB0197F908950E94560E0C94090E0E94FC
:101C9000FB0D38F00E94020E20F0952311F00C94F9
:101CA000F20D0C94F80D11240C943D0E0E941A0EA6
:101CB00070F3959FC1F3950F50E0551F629FF0019F
:101CC000729FBB27F00DB11D639FAA27F00DB11DB8
:101CD000AA1F649F6627B00DA11D661F829F222741
:101CE000B00DA11D621F739FB00DA11D621F839FC8
:101CF000A00D611D221F749F3327A00D611D231F9E
:101D0000849F600D211D822F762F6A2F11249F57EB
:101D100050409AF0F1F088234AF0EE0FFF1FBB1FEE
:101D2000661F771F881F91505040A9F79E3F5105AD
:101D300080F00C94F20D0C943D0E5F3FE4F3983E5E
:101D4000D4F3869577956795B795F795E7959F5F57
:101D5000C1F7FE2B880F911D9695879597F90895E9
:101D6000EF920F931F93CF93DF93E80147FD02C0DB
:101D700034E001C034E1042E000C550B57FF03C0C2
:101D8000519541955109E32E022F242FAE010E9457
:101D9000D20ECE01DF91CF911F910F91EF90089558
:101DA0000C94130D8F929F92AF92BF92CF92DF92BD
:101DB000EF92FF920F931F93CF93DF93CDB7DEB7D0
:101DC00029970FB6F894DEBF0FBECDBF6A01122F60
:101DD000B02E2BE3201720F0FF24F394F00E02C066
:101DE0002CE3F22E0F2D27E0AE014F5F5F4F0E94D4
:101DF0004910BC014981842F8970813031F0E1FCA8
:101E000006C0E0FE06C090E205C09DE203C09BE272
:101E100001C090E05E2D507143FF3CC0911102C0A3
:101E200083E001C084E0811718F4212F281B01C032
:101E300020E051110BC0F601822F30E2882319F007
:101E400031938150FBCFC20ED11C20E0992329F0A1
:101E5000D6019C93F60131966F01C6010396E2FE0E
:101E60000AC03EE4D6013C9341E411964C9311978D
:101E700012963C9306C03EE6F601308341E641836C
:101E80003283FC01322F40E2332309F442C04193F4
:101E90003150FACF42FF44C0911102C083E001C02B
:101EA00084E0811718F4212F281B01C020E0511174
:101EB0000BC0F601822F30E2882319F03193815054
:101EC000FBCFC20ED11C20E0992329F0D6019C93B0
:101ED000F60131966F01C6010396E2FE0BC039E4AC
:101EE000D6013C933EE411963C93119736E412964A
:101EF0003C9307C039E6F60130833EE6318336E68F
:101F00003283FC01322F40E2332319F041933150E8
:101F1000FBCFFC01E20FF11D10828EEF9FEFA6C0F8
:101F200021E030E0911102C020E030E016161706E3
:101F30001CF4FB01319602C0E1E0F0E02E0F3F1FE0
:101F4000BB2021F0EB2DF0E0319602C0E0E0F0E0A4
:101F50002E0F3F1FE12FF0E02E173F071CF4121B3E
:101F6000212F01C020E08E2D887159F4F601822FB7
:101F700030E2882319F031938150FBCFC20ED11C7F
:101F800020E0992329F0D6019C93F60131966F0148
:101F900051110BC0F601822F90E3882319F0919321
:101FA0008150FBCFC20ED11C20E00F2D060F9A816D
:101FB000342F307144FF03C0913309F401501016DF
:101FC00024F4093018F008E001C001E0AB0177FF0C
:101FD00002C040E050E0FB01E41BF50BA1E0B0E0E3
:101FE000AC0FBD1FEA0FFB1F8EE2A82E4B01801A1B
:101FF00091080B2D10E01195019511094F3FBFEF8E
:102000005B0721F4D601AC9211966D016417750738
:102010002CF08416950614F4818101C080E34150B0
:1020200051093196D60111967D014017510724F0D0
:10203000D6018C936701E2CF6417750739F49633A4
:1020400020F4953319F4311101C081E3F601808346
:10205000F701822F90E2882319F091938150FBCFF2
:10206000F701E20FF11D108280E090E029960FB693
:10207000F894DEBF0FBECDBFDF91CF911F910F91BE
:10208000FF90EF90DF90CF90BF90AF909F908F9098
:102090000895283008F027E03327DA01990F311D21
:1020A00087FD916000966105710539F432602E5FFD
:1020B0003D9330E32A95E1F708959F3F30F0803853
:1020C0007105610509F03C5F3C5F3D93913008F07C
:1020D0008068911DDF93CF931F930F93FF92EF9230
:1020E000192F987F9695E92F96959695E90FFF27DA
:1020F000E857FE4F99273327EE24FF24A701E70175
:1021000005900894079428F4360FE71EF81E491F1F
:10211000511D660F771F881F991F0694A1F7059020
:10212000079428F4E70EF81E491F561FC11D770FAC
:10213000881F991F661F0694A1F70590079428F43D
:10214000F80E491F561FC71FD11D880F991F661F04
:10215000771F0694A1F70590079420F4490F561FA6
:10216000C71FD81F990F661F771F881F0694A9F7EE
:1021700084911095177041F0D695C795579547955E
:10218000F794E7941A95C1F7EEE2F1E068941590A0
:10219000159135916591959105907FE27395E118C0
:1021A000F10A430B560BC90BD009C0F7E10CF11E25
:1021B000431F561FC91FD01D7EF4703311F48A953A
:1021C000E6CFE894015030F0080F0AF40027021718
:1021D00008F4202F2395022F7A3328F079E37D939A
:1021E0002A95E9F710C07D932A9589F6069497956C
:1021F0006795379517951794E118F10A430B560B1D
:10220000C90BD00998F023957E9173957A3308F025
:1022100070E37C932013B8F77E9170617D9330F06A
:10222000839571E37D9370E32A95E1F71124EF9094
:10223000FF900F911F91CF91DF91992787FD909586
:062240000895F894FFCFA1
:102246002000000000000000000000000000000068
:102256000000000000000000000000000000000078
:102266000C0101C0F9A4B0999282F880987FFF0012
:0422760000FC000068
:00000001FF
