S00C00006C6162332E73726563B6
S11300000C9446000C9465000C9465000C946500F7
S11300100C9465000C9465000C9465000C946500C8
S11300200C9465000C9465000C9465000C946500B8
S11300300C9465000C9465000C9465000C946500A8
S11300400C9470030C9465000C9465000C9465008A
S11300500C9465000C9465000C9465000C94650088
S11300600C9465000C9465000C9465000C94650078
S11300700C9465000C9465000C9465000C94650068
S11300800C9465000C9465000C94650011241FBE4B
S1130090CFEFD0E1DEBFCDBF11E0A0E0B1E0EEE0F4
S11300A0F8E000E00BBF02C007900D92AE30B1073C
S11300B0D9F721E0AEE0B1E001C01D92A033B20750
S11300C0E1F70E94B3030C9405040C94000084E04F
S11300D081BB87E087BB80E58DB981E08EB9089547
S11300E087B7816087BF83B7816083BF0895482F36
S11300F0E82FF0E099B3EE0FFF1FE75EFE4F20817B
S11301003181220F331F306E892F90E002C0959504
S113011087954A95E2F781709927282B392B3183EB
S1130120208381E021153F4F09F080E00895882362
S113013031F0813059F0823059F0843009F080E098
S11301408FB9779BFECF929A9298089581E0F8CF69
S113015082E0F6CF8FB9779BFECF929A929808955A
S1130160EF92FF920F931F93CF93DF938C019C0127
S1130170ADECBCEC0E94F603AC0156954795569540
S11301804795569547959A01220F331F440F551FE3
S1130190440F551F440F551F420F531F9801241B32
S11301A0350BA90120932B01EC01D695C795D69563
S11301B0C795D695C7959E010E94F603FC01F69556
S11301C0E795F695E795F695E795CF01880F991F82
S11301D0EE0FFF1FEE0FFF1FEE0FFF1FE80FF91FBB
S11301E0CE018E1B9F0BFC0180932C019801369548
S11301F0279536952795ABE7B4E10E94F6037C0179
S1130200F694E7949701ADECBCEC0E94F603EC0184
S1130210D695C795D695C795D695C795CE01880F1F
S1130220991FCC0FDD1FCC0FDD1FCC0FDD1FC80FB6
S1130230D91FD701AC1BBD0BED01A0932E01980172
S1130240369527953695279536952795A5ECB0E2F2
S11302500E94F6037C01F294E2947FE0E722EF240B
S1130260F722EF249701ADECBCEC0E94F6039695BF
S1130270879596958795969587959C01220F331FB0
S1130280880F991F880F991F880F991F820F931F3A
S11302909701281B390BC90120932F010A3011053E
S11302A008F446C098012A5031092A35310508F46A
S11302B086C098012456310915BA2438334008F40D
S11302C054C0DA01AF5FBE4F2C912BBBAFE3BFE14B
S11302D01197F1F700C0000021E025BBEF5FFE4F4E
S11302E020812BBBEFE3FFE13197F1F700C0000061
S11302F023E025BBCF5FDE4F28812BBBAFE3BFE1FB
S11303001197F1F700C0000024E025BBFC01EF5F6A
S1130310FE4F80818BBBEFE3FFE13197F1F700C023
S11303200000DF91CF911F910F91FF90EF900895FE
S113033015BAFA01EF5FFE4F80818BBB8FE39FE11B
S11303400197F1F700C0000084E085BB8FEF8BBB01
S1130350AFE3BFE11197F1F700C00000DF91CF9147
S11303601F910F91FF90EF900895DA01AF5FBE4F98
S11303708C918BBB8FE39FE10197F1F700C00000E4
S113038081E085BBEF5FFE4F80818BBBAFE3BFE1B4
S11303901197F1F700C0000083E085BBCF5FDE4F0B
S11303A088818BBBEFE3FFE13197F1F700C00000D8
S11303B0DF91CF911F910F91FF90EF90089515BA9F
S11303C0DA01AF5FBE4F8C918BBB8FE39FE1019746
S11303D0F1F700C0000081E085BBEF5FFE4F808134
S11303E08BBBAFE3BFE11197F1F700C00000DF91D1
S11303F0CF911F910F91FF90EF9008958FEF8ABBDB
S11304000000000015BA8BBBEFE3FFE13197F1F771
S113041000C0000091E095BB8BBBEFE3FFE1319797
S1130420F1F700C0000094E095BB8BBBEFE3FFE164
S11304303197F1F700C0000095BB8BBB8FE39FE1C0
S11304400197F1F700C0000008951ABA8FEF8BBB33
S113045085B3876085BBE9E1F1E061E070E040E0ED
S113046050E0B4E0A2E099B320813181220F331F20
S1130470306E892F90E0042E02C0959587950A94DA
S1130480E2F781709927822B932B819391938115A5
S11304909F4F41F06330710571F04F5F5F4F6F5FA5
S11304A07F4FE1CF4115510539F04130510591F7A6
S11304B0B0930001F2CF0895A0930001EECF809194
S11304C01401813039F0811104C08091150181300B
S11304D059F0089580911501813051F08111F9CFBF
S11304E082E080930001089584E0809300010895E0
S11304F01092000108951F93CF93DF931ABA8FEFE0
S11305008BBB87E085BB20E030E0C1E005C02F5FF6
S11305103F4F2830310551F199B3F901EE0FFF1F18
S1130520E75EFE4F40815181440F551F506E892F65
S113053090E0022E02C0959587950A94E2F78170A7
S11305409927842B952B9183808381159F4FF9F6EE
S11305502115310599F4C093140111E0D0E00E94F3
S11305605F02212F3D2F28303105B1F6109214017E
S113057010921501DF91CF911F910895213031051B
S113058079F0209100018091160190911701821B4E
S11305909109909317018093160118E0D0E0DFCF02
S11305A0C093150112E0D0E0DACF2FEF2ABB000090
S11305B0000015BA0C94B0001FB8779BFECF8FB122
S11305C0089593B180E4982793B993B1892783B9A7
S11305D083B1805883B91FB8779BFECF8FB18093C6
S11305E0130183B1805883B940911301542F87E0DC
S11305F090E061E070E09B01082E01C0220F0A9494
S1130600EAF720955223019781309105A1F7509381
S113061010014695469587E090E061E070E09B010B
S1130620082E01C0220F0A94EAF72095422301976D
S113063081309105A1F740930E0180911801811139
S113064007C05093110140930F0181E0809318017A
S1130650552321F05330F1F050931101442331F02C
S1130660433029F04B3049F140930F0108958091B4
S11306700F018130D9F720910001809116019091EA
S11306801701820F911D90931701809316014093D7
S11306900F01089580911101813001F7209100012B
S11306A08091160190911701820F911D909317016B
S11306B08093160150931101D1CF80910F018A309C
S11306C0A9F6209100018091160190911701821BD7
S11306D09109909317018093160140930F01089597
S11306E01F920F920FB60F9211240BB60F922F93F5
S11306F03F934F935F936F937F938F939F93AF93A6
S1130700BF93EF93FF93809100010E9497000E9492
S11307107B020E94E10280911601909117018115DC
S113072024E0920730F08F5F9340909317018093F9
S113073016012FEF2ABB0000000015BA0E94B0007A
S1130740FF91EF91BF91AF919F918F917F916F91A5
S11307505F914F913F912F910F900BBE0F900FBE61
S11307600F901F90189587B7816087BF83B781600A
S113077083BF84E081BB87E087BB80E58DB981E0DE
S11307808EB98FE084BB0000000080EC82B983B98D
S113079078948FEF21E094E08ABB0000000015BA42
S11307A08BBBEFE3FFE13197F1F700C0000025BBFD
S11307B08BBBEFE3FFE13197F1F700C0000095BB7D
S11307C08BBBEFE3FFE13197F1F700C0000095BB6D
S11307D08BBBEFE3FFE13197F1F700C00000EFE3DB
S11307E0FFE13197F1F700C00000D6CFA29FB0011E
S11307F0B39FC001A39F700D811D1124911DB29F51
S1110800700D811D1124911D0895F894FFCFF1
S111080E01C0F9A4B0999282F880987FFF008F
S9030000FC
