:100000000C9414010C9426010C9426010C942601E6
:100010000C9426010C9426010C9426010C942601C4
:100020000C9426010C9426010C9426010C942601B4
:100030000C9426010C9426010C9426010C942601A4
:100040000C9426010C9426010C9426010C94260194
:100050000C9426010C9426010C9426010C94260184
:100060000C9426010C9426010C9426010C94260174
:100070000C9426010C9426010C9426010C94260164
:100080000C9426010C9476070C942601B7078E0772
:100090008E078E078E078E078E078E07B7078E078F
:1000A0008E078E078E078E078E078E07C1078E0775
:1000B0008E078E078E078E078E078E078E078E0798
:1000C0008E078E078E078E078E078E07C1078E0755
:1000D0008E078E078E078E078E078E078E078E0778
:1000E0008E078E078E078E078E078E07D8078E071E
:1000F0008E078E078E078E078E078E07DC078E070A
:100100008E078E078E078E078E078E078E078E0747
:100110008E078E078E078E078E078E07EA078E07DB
:100120008E078E078E078E078E078E07A807004062
:100130007A10F35A00A0724E18090010A5D4E800F6
:1001400000E87648170000E40B54020000CA9A3B0E
:10015000000000E1F5050000809698000000404294
:100160000F000000A0860100000010270000000022
:10017000E803000000006400000000000A00000026
:1001800000000100000000002C76D888DC674F08D2
:1001900023DFC1DFAE59E1B1B796E5E3E453C63AD8
:1001A000E651997696E8E6C28426EB898C9B62ED4F
:1001B000407C6FFCEFBC9C9F40F2BAA56FA5F49009
:1001C000055A2AF75C936B6CF9676DC11BFCE0E480
:1001D0000D47FEF520E6B500D0ED902E03009435D6
:1001E00077050080841E080000204E0A000000C829
:1001F0000C333333330F986E12831141EF8D21147A
:10020000893BE65516CFFEE6DB18D1844B381BF749
:100210007C1D901DA4BBE424203284725E228100E8
:10022000C9F124ECA1E53D2711241FBECFEFD0E199
:10023000DEBFCDBF21E0A0E0B1E001C01D92AC3C2B
:10024000B207E1F70E9434080C94A50C0C9400004E
:1002500087B3876087BB80E58DB981E08EB908954B
:10026000E2E1F1E0A2E3B1E081918D9381E0E83138
:10027000F807D1F7E2E0F1E0A9E3B1E081918D93D5
:1002800081E0E830F807D1F7089591E0811101C0CD
:1002900090E09FB9779BFECF6FB9779BFECF80919F
:1002A000620088608093620080916200877F809303
:1002B00062008FE99FE00197F1F700C00000089508
:1002C00021E02FB9779BFECF20910001FC01E20FC6
:1002D000F11D80818FB9779BFECF8091620088608D
:1002E0008093620080916200877F8093620080919A
:1002F00000018F5F80930001803109F1803209F0A5
:10030000089595ED9A95F1F700001FB8779BFECF01
:1003100082E08FB9779BFECF8091620088608093E6
:10032000620080916200877F809362008FE99FE086
:100330000197F1F700C0000010920001089585EDCB
:100340008A95F1F700001FB8779BFECF80EC8FB93C
:10035000779BFECF809162008860809362008091DD
:100360006200877F809362008FE99FE00197F1F739
:1003700000C0000080910001C1CF660F660F660FBC
:10038000605C1FB8779BFECF6FB9779BFECF209143
:10039000620028602093620020916200277F2093F2
:1003A0006200AFE9BFE01197F1F700C00000FC0167
:1003B0009C01285F3F4F91E081919FB9779BFECFD1
:1003C0008FB9779BFECF8091620088608093620036
:1003D00080916200877F80936200AFE9BFE0119750
:1003E000F1F700C00000E217F30731F7089590E439
:1003F000899F600D1124605C1FB8779BFECF6FB999
:10040000779BFECF8091620088608093620080912C
:100410006200877F809362008FE99FE00197F1F788
:1004200000C000000895811119C081E08FB9779B49
:10043000FECF80E38FB9779BFECF8091620088600A
:100440008093620080916200877F809362008FE9D1
:100450009FE00197F1F700C0000008958436B0F4E2
:100460008A3090F591E09FB9779BFECF9DEC899FF4
:10047000912D1124969596959695FAE09F9F801957
:100480001124805D8FB9779BFECFD7CF99E2899FEA
:10049000912D112492959F70905D21E02FB9779B4B
:1004A000FECF9FB9779BFECF9091620098609093AA
:1004B000620090916200977F90936200EFE9FFE005
:1004C0003197F1F700C0000099E2899F912D112426
:1004D00092959F70282FF4E69F9F20191124922F48
:1004E0002DEC929F912D1124969596959695905D61
:1004F00021E02FB9779BFECF9FB9779BFECF9091DC
:10050000620098609093620090916200977F909350
:100510006200EFE9FFE03197F1F700C00000A2CFE1
:1005200087FF0C94130291E09FB9779BFECF9DE269
:100530009FB9779BFECF9091620098609093620084
:1005400090916200977F90936200EFE9FFE031970E
:10055000F1F700C0000081950C9413021FB8779B3F
:10056000FECF8EE08FB9779BFECF809162008860CE
:100570008093620080916200877F809362008FE9A0
:100580009FE00197F1F700C0000008951FB8779B26
:10059000FECF8CE08FB9779BFECF809162008860A0
:1005A0008093620080916200877F809362008FE970
:1005B0009FE00197F1F700C0000008951FB8779BF6
:1005C000FECF8EE18FB9779BFECF8091620088606D
:1005D0008093620080916200877F809362008FE940
:1005E0009FE00197F1F700C0000008951FB8779BC6
:1005F000FECF88E18FB9779BFECF80916200886043
:100600008093620080916200877F809362008FE90F
:100610009FE00197F1F700C000000895E2E6F0E0E6
:100620008081886080838081877F808308951FB860
:10063000779BFECF81E08FB9779BFECF80916200E0
:1006400088608093620080916200877F809362005F
:100650008FE99FE00197F1F700C0000008951FB8EF
:10066000779BFECF82E08FB9779BFECF80916200AF
:1006700088608093620080916200877F809362002F
:100680008FE99FE00197F1F700C0000008951FB8BF
:10069000779BFECF80EC8FB9779BFECF8091620075
:1006A00088608093620080916200877F80936200FF
:1006B0008FE99FE00197F1F700C00000089590E1F5
:1006C00031E020E23FB9779BFECF2FB9779BFECF79
:1006D0008091620088608093620080916200877FD1
:1006E00080936200EFE9FFE03197F1F700C000006E
:1006F000915041F7089591E09FB9779BFECF8FB954
:10070000779BFECF80916200886080936200809129
:100710006200877F809362008FE99FE00197F1F785
:1007200000C000000895FC0140E050E060E071E08E
:10073000DF01A40FB51F8C917FB9779BFECF8FB9D6
:10074000779BFECF909162009860909362009091A9
:100750006200977F909362008FE99FE00197F1F725
:1007600000C000006F5F462F50E0DF010D900020B9
:10077000E9F79D012E1B3F0B225031092417350745
:10078000B8F608958FEF99EF0197F1F700C00000D8
:1007900088E0809361001FB8779BFECF80E38FB91C
:1007A000779BFECF80916200886080936200809189
:1007B0006200877F809362008FE99FE00197F1F7E5
:1007C00000C000001FB8779BFECF80E38FB9779BF6
:1007D000FECF809162008860809362008091620009
:1007E000877F809362008FE99FE00197F1F700C057
:1007F00000001FB8779BFECF80E38FB9779BFECFB9
:100800008091620088608093620080916200877F9F
:10081000809362008FE99FE00197F1F700C000002C
:100820001FB8779BFECF88E38FB9779BFECF80916F
:10083000620088608093620080916200877F80936D
:1008400062008FE99FE00197F1F700C000001FB838
:10085000779BFECF88E08FB9779BFECF80916200B7
:1008600088608093620080916200877F809362003D
:100870008FE99FE00197F1F700C000001FB8779B58
:10088000FECF81E08FB9779BFECF809162008860B8
:100890008093620080916200877F809362008FE97D
:1008A0009FE00197F1F700C000001FB8779BFECFD3
:1008B00086E08FB9779BFECF80916200886080933D
:1008C000620080916200877F809362008FE99FE0E1
:1008D0000197F1F700C000001FB8779BFECF8CE0B6
:1008E0008FB9779BFECF8091620088608093620011
:1008F00080916200877F809362008FE99FE001977B
:10090000F1F700C0000008954F925F926F927F92BE
:100910008F929F92AF92BF92CF92DF92EF92FF920F
:100920000F931F93CF93DF93CDB7DEB769970FB6C1
:10093000F894DEBF0FBECDBF142F422E5E2C0023D5
:1009400079F06B017C01CC24F7FCC394DD24EE2408
:10095000FF240C2D6B017C0197FDA5C0C701B601DA
:10096000442009F498C09E012F5F3F4F590149016F
:1009700066246A94640C712C3FEF631A730A6A0C44
:100980007B1C2AE030E040E050E00E94AD08E62FFA
:100990002A8B3B8B4C8B5D8B6A897B898C899D89EB
:1009A00020E32E0FF40121934F016E167F0649F7C5
:1009B00099249394940CF501E40DF11D2EE220830B
:1009C0002AE030E040E050E00E94AD08E62F2A8B9C
:1009D0003B8B4C8B5D8B6E8B7F8B888F998F6A895D
:1009E0007B898C899D8931E0390DD501A90DB11D17
:1009F000E05DEC93932E611571058105910501F77A
:100A0000112361F051104DC090E2311738F4F50117
:100A1000E30FF11D90833F5F1313F9CF002331F0F3
:100A2000F501E30FF11D9DE290833F5F21E031501E
:100A3000F501E30FF11D90812FB9779BFECF9FB990
:100A4000779BFECF909162009860909362009091A6
:100A50006200977F909362008FE99FE00197F1F722
:100A600000C000003111E3CF69960FB6F894DEBFE5
:100A70000FBECDBFDF91CF911F910F91FF90EF90EF
:100A8000DF90CF90BF90AF909F908F907F906F90AE
:100A90005F904F900895912C9E012F5F3F4F590119
:100AA0008FCF90E3B2CFF094E094D094C094C11C67
:100AB000D11CE11CF11C52CF5F926F927F928F92FA
:100AC0009F92AF92BF92CF92DF92EF92FF920F93DD
:100AD0001F93CF93DF93CDB7DEB761970FB6F8942E
:100AE000DEBF0FBECDBF5C01962E542E622E8B2C26
:100AF000881C8824881C782C9C0197FD9FC0552059
:100B000009F490C08E010F5F1F4F7801CC24CA9466
:100B1000C50CD12C8FEFC81AD80AC00ED11E6AE0BE
:100B200070E0C9010E949908462F242F372F805D5D
:100B3000F70181937F01EC15FD0589F7FF24F394FC
:100B4000F50CF801E50DF11D8EE2808301C0F92E50
:100B50006AE070E0C9010E949908462F242F372FC0
:100B600091E09F0DF801EF0DF11D805D808321154F
:100B7000310569F761105BC0B7FC65C09920B1F021
:100B8000682D70E080E2292F30E0492D50E0461BAF
:100B9000570B2417350754F49F5FF801E20FF31F3A
:100BA0008083292F30E024173507B4F3772031F004
:100BB000F801E90FF11D8DE280839F5F21E09150E4
:100BC000F801E90FF11D80812FB9779BFECF8FB916
:100BD000779BFECF80916200886080936200809155
:100BE0006200877F80936200EFE9FFE03197F1F7C1
:100BF00000C000009111E3CF61960FB6F894DEBFFC
:100C00000FBECDBFDF91CF911F910F91FF90EF905D
:100C1000DF90CF90BF90AF909F908F907F906F901C
:100C20005F900895F12C8E010F5F1F4F91CF992097
:100C300009F4BCCF682D70E080E3A5CF22273327CD
:100C4000281B390B5CCFF394F394F801E90FF11DE5
:100C50008DE28083992059F02F2D30E0492D50E00E
:100C60002417350724F49F2D712C80E295CF9F2DFA
:100C7000A5CF5D9BFECF8CB95D9BFECF0895FC0197
:100C80009081992349F031965D9BFECF9CB95D9B85
:100C9000FECF91919111F8CF08959C01FC014491F0
:100CA000442369F00196F90124915D9BFECF2CB994
:100CB0005D9BFECF9C01FC0144914111F3CF08954F
:100CC0008AB188618AB9E5E9F0E080818660808335
:100CD0001092900080E189B9089580E89EE302C0F7
:100CE000019721F05F9BFCCF8CB1089580E00895BF
:100CF0004F925F926F927F92AF92BF92CF92DF92AC
:100D0000EF92FF920F931F93CF93DF937C01A42E5A
:100D10008B0116950795129502950F7001271F708C
:100D20000127F7011082BB24B394C0E0D0E0412C2E
:100D3000512C3201CC24C394D12CC6010C2E02C0FC
:100D4000880F991F0A94E2F780239123892BF9F0E9
:100D5000CC2309F469C0C13009F49DC0C23009F444
:100D60008FC0C33009F4A2C0C43009F468C0C530D4
:100D700009F47BC0C63009F46DC020E030E040E0EB
:100D800052E4C301B2010E940C092B013C0128E08E
:100D9000B21619F02196B394D0CFAA2041F126E6DD
:100DA00036E646EE5FE3C301B2010E94C90920E0C6
:100DB00030E040E052E40E940C09870122E030E07C
:100DC00045E050E00E94360A81E0A81619F180E063
:100DD000DF91CF911F910F91FF90EF90DF90CF9017
:100DE000BF90AF907F906F905F904F900895870174
:100DF00022E030E045E050E0C301B2010E94360A33
:100E0000F70101900020E9F7319783E490E09183A6
:100E10008083DDCFF70101900020E9F7319786E468
:100E200090E091838083D3CF20E030E040E85EE320
:100E3000C301B2010E940C092B013C01ABCF20E0A1
:100E400030E040E850E4C301B2010E940C092B01DC
:100E50003C01A0CF20E030E040E851E4C301B20102
:100E60000E940C092B013C0195CF20E030E040E0CE
:100E700051E4C301B2010E940C092B013C018ACF4D
:100E800020E030E040E85FE3C301B2010E940C09BA
:100E90002B013C017FCF20E030E040E05FE3C30165
:100EA000B2010E940C092B013C0174CF20E030E01C
:100EB00040E050E4C301B2010E940C092B013C0147
:100EC00069CF42E065EC71E080E90E941A088FE387
:100ED0009FE10197F1F700C00000E5ECF1E08081AF
:100EE00090E0982F88272181822B08951F920F92DE
:100EF0000FB60F9211240BB60F922F933F938F933F
:100F00009F93AF93BF93EF93FF93E09171008E2F68
:100F100090E0FC013897E135F105B0F08091710067
:100F20008093C70184E080937400FF91EF91BF919B
:100F3000AF919F918F913F912F910F900BBE0F908A
:100F40000FBE0F901F901895EA5BFF4F0C94CC08D2
:100F500080910101E091C801F091C901E80FF11DF4
:100F600080917300808384E980937400DECF809148
:100F7000CA01809373001092010185E88093740088
:100F8000D4CF809101019091CB01891760F7E09156
:100F9000C801F091C90191E0980F90930101E80F09
:100FA000F11D80818093730085E880937400BDCF2C
:100FB00085EA80937400B9CF209101018091CB0123
:100FC00030E090E0019728173907DCF485EC809336
:100FD0007400ABCFE091C801F091C901809101018B
:100FE00021E0280F20930101E80FF11D809173008B
:100FF00080838091CB0130E090E00197281739077A
:101000002CF385E88093740090CF809174008170F8
:1010100008959091740090FDFCCF8E7F8093CA015B
:101020007093C9016093C8014093CB0185EA809316
:10103000740008959091740090FDFCCF81608093BE
:10104000CA017093C9016093C8014093CB0185EA3E
:101050008093740008958FEF809373001092710055
:101060008CE080937000089587B3876087BB80E52C
:101070008DB981E08EB90E94C2030E942B0878943A
:101080001092C30141E063EC71E080E90E9409081D
:101090008FE39FE10197F1F700C000000E94170362
:1010A000C0E0D0E09FEF23ED80E3915020408040EE
:1010B000E1F700C000000E9417030E9461078C0145
:1010C000E2E1F1E0A2E3B1E081918D9391E0E831BA
:1010D000F907D1F7E2E0F1E0A9E3B1E081918D9366
:1010E00021E0E830F207D1F741E0B80182E191E078
:1010F0000E947806C630D105B9F07E012196B7016D
:1011000082E090E00E94F701F701EE5EFE4F8081E1
:10111000082E000C990B0E947B0340E0B80182E08E
:1011200091E00E947806BECFC1E0D0E0E12CF12C26
:10113000E6CF97FB072E16F4009407D077FD09D071
:101140000E94D50807FC05D03EF4909581959F4FED
:101150000895709561957F4F0895052E97FB1EF4B5
:1011600000940E94C40857FD07D00E94E90807FCBC
:1011700003D04EF40C94C4085095409530952195B9
:101180003F4F4F4F5F4F08959095809570956195B3
:101190007F4F8F4F9F4F0895EE0FFF1F0024001CBD
:1011A0000BBE0790F691E02D0994AA1BBB1B51E1E1
:1011B00007C0AA1FBB1FA617B70710F0A61BB70BC7
:1011C000881F991F5A95A9F780959095BC01CD016C
:1011D0000895A1E21A2EAA1BBB1BFD010DC0AA1F78
:1011E000BB1FEE1FFF1FA217B307E407F50720F090
:1011F000A21BB30BE40BF50B661F771F881F991F0B
:101200001A9469F760957095809590959B01AC0153
:10121000BD01CF0108955058BB27AA270E9423097A
:101220000C948F090E94810938F00E94880920F0EF
:1012300039F49F3F19F426F40C947E090EF4E095DE
:10124000E7FB0C947809E92F0E94A00958F3BA171C
:10125000620773078407950720F079F4A6F50C94CC
:10126000C2090EF4E0950B2EBA2FA02D0B01B90187
:1012700090010C01CA01A0011124FF27591B99F00C
:10128000593F50F4503E68F11A16F040A22F232F18
:10129000342F4427585FF3CF469537952795A79568
:1012A000F0405395C9F77EF41F16BA0B620B730B0F
:1012B000840BBAF09150A1F0FF0FBB1F661F771F80
:1012C000881FC2F70EC0BA0F621F731F841F48F435
:1012D000879577956795B795F7959E3F08F0B0CFBE
:1012E0009395880F08F09927EE0F979587950895A5
:1012F00097F99F6780E870E060E008959FEF80ECC9
:10130000089500240A94161617061806090608956B
:1013100000240A9412161306140605060895092ED1
:101320000394000C11F4882352F0BB0F40F4BF2B40
:1013300011F460FF04C06F5F7F4F8F4F9F4F089580
:1013400057FD9058440F551F59F05F3F71F0479576
:10135000880F97FB991F61F09F3F79F0879508955B
:10136000121613061406551FF2CF4695F1DF08C07A
:10137000161617061806991FF1CF86957105610597
:1013800008940895E894BB2766277727CB0197F93F
:1013900008950E94DC090C948F090E94810938F09D
:1013A0000E94880920F0952311F00C9478090C9480
:1013B0007E0911240C94C3090E94A00970F3959F23
:1013C000C1F3950F50E0551F629FF001729FBB273C
:1013D000F00DB11D639FAA27F00DB11DAA1F649FD8
:1013E0006627B00DA11D661F829F2227B00DA11D8B
:1013F000621F739FB00DA11D621F839FA00D611D11
:10140000221F749F3327A00D611D231F849F600D31
:10141000211D822F762F6A2F11249F5750409AF05A
:10142000F1F088234AF0EE0FFF1FBB1F661F771FE6
:10143000881F91505040A9F79E3F510580F00C94B1
:1014400078090C94C3095F3FE4F3983ED4F3869582
:1014500077956795B795F795E7959F5FC1F7FE2B51
:10146000880F911D9695879597F90895EF920F93A0
:101470001F93CF93DF93E80147FD02C034E001C022
:1014800034E1042E000C550B57FF03C051954195D4
:101490005109E32E022F242FAE010E94560ACE01DD
:1014A000DF91CF911F910F91EF9008958F929F92AE
:1014B000AF92BF92CF92DF92EF92FF920F931F9362
:1014C000CF93DF93CDB7DEB729970FB6F894DEBF81
:1014D0000FBECDBF6A01122FB02E2BE3201720F0D4
:1014E000FF24F394F00E02C02CE3F22E0F2D27E020
:1014F000AE014F5F5F4F0E94CD0BBC014981842F2D
:101500008970813031F0E1FC06C0E0FE06C090E257
:1015100005C09DE203C09BE201C090E05E2D5071CA
:1015200043FF3CC0911102C083E001C084E08117F9
:1015300018F4212F281B01C020E051110BC0F60127
:10154000822F30E2882319F031938150FBCFC20EF5
:10155000D11C20E0992329F0D6019C93F601319605
:101560006F01C6010396E2FE0AC03EE4D6013C9339
:1015700041E411964C93119712963C9306C03EE6B7
:10158000F601308341E641833283FC01322F40E291
:10159000332309F442C041933150FACF42FF44C093
:1015A000911102C083E001C084E0811718F4212F5B
:1015B000281B01C020E051110BC0F601822F30E240
:1015C000882319F031938150FBCFC20ED11C20E04B
:1015D000992329F0D6019C93F60131966F01C6013B
:1015E0000396E2FE0BC039E4D6013C933EE411962B
:1015F0003C93119736E412963C9307C039E6F60106
:1016000030833EE6318336E63283FC01322F40E2FE
:10161000332319F041933150FBCFFC01E20FF11D50
:1016200010828EEF9FEFA6C021E030E0911102C042
:1016300020E030E0161617061CF4FB01319602C0BC
:10164000E1E0F0E02E0F3F1FBB2021F0EB2DF0E09A
:10165000319602C0E0E0F0E02E0F3F1FE12FF0E0F6
:101660002E173F071CF4121B212F01C020E08E2DE6
:10167000887159F4F601822F30E2882319F03193F2
:101680008150FBCFC20ED11C20E0992329F0D60156
:101690009C93F60131966F0151110BC0F601822F18
:1016A00090E3882319F091938150FBCFC20ED11C97
:1016B00020E00F2D060F9A81342F307144FF03C0B4
:1016C000913309F40150101624F4093018F008E0A1
:1016D00001C001E0AB0177FF02C040E050E0FB0138
:1016E000E41BF50BA1E0B0E0AC0FBD1FEA0FFB1F40
:1016F0008EE2A82E4B01801A91080B2D10E0119557
:10170000019511094F3FBFEF5B0721F4D601AC9261
:1017100011966D01641775072CF08416950614F464
:10172000818101C080E3415051093196D601119663
:101730007D014017510724F0D6018C936701E2CF59
:101740006417750739F4963320F4953319F4311181
:1017500001C081E3F6018083F701822F90E28823A4
:1017600019F091938150FBCFF701E20FF11D108228
:1017700080E090E029960FB6F894DEBF0FBECDBF93
:10178000DF91CF911F910F91FF90EF90DF90CF905D
:10179000BF90AF909F908F900895283008F027E079
:1017A0003327DA01990F311D87FD9160009661059D
:1017B000710539F432602E5F3D9330E32A95E1F7ED
:1017C00008959F3F30F080387105610509F03C5F56
:1017D0003C5F3D93913008F08068911DDF93CF937B
:1017E0001F930F93FF92EF92192F987F9695E92FF1
:1017F00096959695E90FFF27E857FE4F99273327CF
:10180000EE24FF24A701E70105900894079428F42B
:10181000360FE71EF81E491F511D660F771F881FE0
:10182000991F0694A1F70590079428F4E70EF81E77
:10183000491F561FC11D770F881F991F661F0694E9
:10184000A1F70590079428F4F80E491F561FC71FEB
:10185000D11D880F991F661F771F0694A1F7059069
:10186000079420F4490F561FC71FD81F990F661FF2
:10187000771F881F0694A9F784911095177041F07F
:10188000D695C79557954795F794E7941A95C1F75C
:10189000EEE2F1E06894159015913591659195917E
:1018A00005907FE27395E118F10A430B560BC90BC3
:1018B000D009C0F7E10CF11E431F561FC91FD01DF0
:1018C0007EF4703311F48A95E6CFE894015030F03D
:1018D000080F0AF40027021708F4202F2395022F7F
:1018E0007A3328F079E37D932A95E9F710C07D9348
:1018F0002A9589F6069497956795379517951794C5
:10190000E118F10A430B560BC90BD00998F0239547
:101910007E9173957A3308F070E37C932013B8F7C7
:101920007E9170617D9330F0839571E37D9370E3D8
:101930002A95E1F71124EF90FF900F911F91CF911D
:0E194000DF91992787FD90950895F894FFCFC9
:00000001FF
