:100000000C9446000C9465000C9465000C946500FB
:100010000C9465000C9465000C9465000C946500CC
:100020000C9465000C9465000C9465000C946500BC
:100030000C9465000C9465000C9465000C946500AC
:100040000C9470000C9465000C9465000C94650091
:100050000C9465000C9465000C9465000C9465008C
:100060000C9465000C9465000C9465000C9465007C
:100070000C9465000C9465000C9465000C9465006C
:100080000C9465000C9465000C94650011241FBE4F
:10009000CFEFD0E1DEBFCDBF11E0A0E0B1E0E0E105
:1000A000F4E000E00BBF02C007900D92AC30B10746
:1000B000D9F721E0ACE0B1E001C01D92A132B20756
:1000C000E1F70E94E7010C9406020C94000084E022
:1000D00081BB87E087BB80E58DB981E08EB908954B
:1000E0001F920F920FB60F9211240F900FBE0F9018
:1000F0001F90189587B7816087BF83B7816083BFE2
:100100000895482FE82FF0E099B3EE0FFF1FE45F4A
:10011000FE4F20813181220F331F3E6F892F90E0E7
:1001200002C0959587954A95E2F781709927282B0B
:10013000392B3183208381E021153F4F09F080E086
:100140000895EF92FF920F931F93CF93DF938C014B
:100150009C01ADECBCEC0E94F701AC0156954795B3
:1001600056954795569547959A01220F331F440F90
:10017000551F440F551F440F551F420F531F980121
:10018000241B350BA90120931C01EC01D695C795C2
:10019000D695C795D695C7959E010E94F701FC019B
:1001A000F695E795F695E795F695E795CF01880FD3
:1001B000991FEE0FFF1FEE0FFF1FEE0FFF1FE80F3F
:1001C000F91FCE018E1B9F0BFC0180931D0198012E
:1001D0003695279536952795ABE7B4E10E94F70150
:1001E0007C01F694E7949701ADECBCEC0E94F7011A
:1001F000EC01D695C795D695C795D695C795CE01EE
:10020000880F991FCC0FDD1FCC0FDD1FCC0FDD1F1A
:10021000C80FD91FD701AC1BBD0BED01A0931F0167
:100220009801369527953695279536952795A5EC0F
:10023000B0E20E94F7017C01F294E2947FE0E722B1
:10024000EF24F722EF249701ADECBCEC0E94F701FC
:100250009695879596958795969587959C01220FFB
:10026000331F880F991F880F991F880F991F820FBE
:10027000931F9701281B390BC901209320010A30D5
:10028000110508F440C098012A5031092A3531057A
:1002900008F474C098012456310915BA2438334043
:1002A00008F448C0DA01A050BF4F2C912BBBAFE33C
:1002B000BFE11197F1F700C0000021E025BBE0503D
:1002C000FF4F20812BBBEFE3FFE13197F1F700C037
:1002D000000023E025BBC050DF4F28812BBBAFE3DC
:1002E000BFE11197F1F700C0000024E025BBFC013D
:1002F000E050FF4F80818BBBDF91CF911F910F9119
:10030000FF90EF90089515BAFA01E050FF4F8081F9
:100310008BBB8FE39FE10197F1F700C0000084E001
:1003200085BB8FEF8BBBDF91CF911F910F91FF901A
:10033000EF900895DA01A050BF4F8C918BBB8FE3F3
:100340009FE10197F1F700C0000081E085BBE0501C
:10035000FF4F80818BBBAFE3BFE11197F1F700C086
:10036000000083E085BBC050DF4F88818BBBDF91ED
:10037000CF911F910F91FF90EF90089515BADA0178
:10038000A050BF4F8C918BBBAFE3BFE11197F1F74A
:1003900000C0000081E085BBE050FF4F80818BBB37
:1003A000DF91CF911F910F91FF90EF9008958FEF04
:1003B0008ABB0000000015BA8BBB91E095BB8BBBDC
:1003C00093E095BB8BBB94E095BB8BBB08958FEFFF
:1003D0008ABB8FE084BB15BA8FEF93E00E94A10027
:1003E0008FE39FE10197F1F700C00000F4CFA29FD7
:1003F000B001B39FC001A39F700D811D1124911DF9
:10040000B29F700D811D1124911D0895F894FFCFA6
:0C041000C0F9A4B0999282F880987FFF98
:00000001FF
