S00D0000736F756E642E73726563EE
S11300000C9446000C9450000C9450000C94500036
S11300100C9450000C9450000C9450000C9450001C
S11300200C9450000C9450000C9450000C9450000C
S11300300C9450000C9450000C9450000C945000FC
S11300400C9450000C9450000C9450000C945000EC
S11300500C9450000C9450000C9450000C945000DC
S11300600C9450000C9450000C9450000C945000CC
S11300700C9450000C9450000C9450000C945000BC
S11300800C9450000C9450000C94500011241FBE8A
S1130090CFEFD0E1DEBFCDBF0E945F000C946200C1
S11300A00C94000087B7806187BF8FB58FBD8EB574
S11300B089608EBD10927A001BBC1ABC089580E042
S10B00C090E00895F894FFCFCD
S9030000FC
