:100000000C9446000C9450000C9450000C9450003A
:100010000C9450000C9450000C9450000C94500020
:100020000C9450000C9450000C9450000C94500010
:100030000C945D000C9450000C9450000C945000F3
:100040000C9450000C9450000C9450000C945000F0
:100050000C9450000C9450000C9450000C945000E0
:100060000C9450000C9450000C9450000C945000D0
:100070000C9450000C9450000C9450000C945000C0
:100080000C9450000C9450000C94500011241FBE8E
:10009000CFEFD0E1DEBFCDBF0E946F000C947C009B
:1000A0000C94000087B7806187BF8EB589608EBDD4
:1000B0008FE99FE09BBD8ABD08951F920F920FB6F6
:1000C0000F9211248F939F9392B381E0892782BB73
:1000D0009F918F910F900FBE0F901F901895889A47
:1000E00087B7806187BF8EB589608EBD8FE99FE03D
:0C00F0009BBD8ABD7894FFCFF894FFCF31
:00000001FF
