S00C000074656D702E7372656362
S11300000C9497000C94B6000C94B6000C94B600B3
S11300100C94B6000C94B6000C94B6000C94B60084
S11300200C94B6000C94B6000C94B6000C94B60074
S11300300C94B6000C94B6000C94B6000C94B60064
S11300400C94B6000C94B6000C94B6000C94B60054
S11300500C94B6000C94B6000C94B6000C94B60044
S11300600C94B6000C94B6000C94B6000C94B60034
S11300700C94B6000C94B6000C94B6000C94B60024
S11300800C94B6000C94E0060C94B6002107F80614
S1130090F806F806F806F806F806F8062107F80642
S11300A0F806F806F806F806F806F8062B07F80628
S11300B0F806F806F806F806F806F806F806F8064C
S11300C0F806F806F806F806F806F8062B07F80608
S11300D0F806F806F806F806F806F806F806F8062C
S11300E0F806F806F806F806F806F8064207F806D1
S11300F0F806F806F806F806F806F8064607F806BD
S1130100F806F806F806F806F806F806F806F806FB
S1130110F806F806F806F806F806F8065407F8068E
S1130120F806F806F806F806F806F8061207112489
S11301301FBECFEFD0E1DEBFCDBF11E0A0E0B1E044
S1130140E4E3F1E100E00BBF02C007900D92A2309E
S1130150B107D9F721E0A2E0B1E001C01D92A536B4
S1130160B207E1F70E949E070C9498080C940000D3
S113017087B3876087BB80E58DB981E08EB9089528
S1130180E1E6F0E0808188608083E2E6F0E080814F
S1130190877F8083089591E0811101C090E09FB929
S11301A0779BFECF6FB9779BFECF8091620088600A
S11301B08093620080916200877F809362008FE960
S11301C09FE00197F1F700C00000089521E02FB9E6
S11301D0779BFECF20910201FC01E20FF11D80818B
S11301E08FB9779BFECF8091620088608093620014
S11301F080916200877F80936200809102018F5F0B
S113020080930201803109F1803209F0089595ED5F
S11302109A95F1F700001FB8779BFECF82E08FB963
S1130220779BFECF8091620088608093620080910A
S11302306200877F809362008FE99FE00197F1F766
S113024000C0000010920201089585ED8A95F1F72F
S113025000001FB8779BFECF80EC8FB9779BFECF51
S11302608091620088608093620080916200877F41
S1130270809362008FE99FE00197F1F700C00000CE
S113028080910201C1CF660F660F660F605C1FB8D4
S1130290779BFECF6FB9779BFECF209162002860D9
S11302A02093620020916200277F20936200AFE9CF
S11302B0BFE01197F1F700C00000FC019C01285F2A
S11302C03F4F91E081919FB9779BFECF8FB9779B88
S11302D0FECF80916200886080936200809162000A
S11302E0877F80936200AFE9BFE01197F1F700C008
S11302F00000E217F30731F7089590E4899F600D39
S11303001124605C1FB8779BFECF6FB9779BFECF3B
S11303108091620088608093620080916200877F90
S1130320809362008FE99FE00197F1F700C000001D
S11303300895811119C081E08FB9779BFECF80E3C6
S11303408FB9779BFECF80916200886080936200B2
S113035080916200877F809362008FE99FE001971C
S1130360F1F700C0000008958436B0F48A3090F5A7
S113037091E09FB9779BFECF9DEC899F912D11242D
S1130380969596959695FAE09F9F80191124805D25
S11303908FB9779BFECFD7CF99E2899F912D1124F6
S11303A092959F70905D21E02FB9779BFECF9FB906
S11303B0779BFECF90916200986090936200909139
S11303C06200977F90936200EFE9FFE03197F1F7C5
S11303D000C0000099E2899F912D112492959F708D
S11303E0282FF4E69F9F20191124922F2DEC929F21
S11303F0912D1124969596959695905D21E02FB9AF
S1130400779BFECF9FB9779BFECF90916200986057
S11304109093620090916200977F90936200EFE95D
S1130420FFE03197F1F700C00000A2CF87FF0C94E2
S1130430990191E09FB9779BFECF9DE29FB9779B8D
S1130440FECF909162009860909362009091620058
S1130450977F90936200EFE9FFE03197F1F700C0D6
S1130460000081950C9499011FB8779BFECF8EE014
S11304708FB9779BFECF8091620088608093620081
S113048080916200877F809362008FE99FE00197EB
S1130490F1F700C0000008951FB8779BFECF8CE0F1
S11304A08FB9779BFECF8091620088608093620051
S11304B080916200877F809362008FE99FE00197BB
S11304C0F1F700C0000008951FB8779BFECF8EE1BE
S11304D08FB9779BFECF8091620088608093620021
S11304E080916200877F809362008FE99FE001978B
S11304F0F1F700C0000008951FB8779BFECF88E194
S11305008FB9779BFECF80916200886080936200F0
S113051080916200877F809362008FE99FE001975A
S1130520F1F700C000000895E2E6F0E08081886001
S113053080838081877F808308951FB8779BFECF57
S113054081E08FB9779BFECF8091620088608093B1
S1130550620080916200877F809362008FE99FE050
S11305600197F1F700C0000008951FB8779BFECFF4
S113057082E08FB9779BFECF809162008860809380
S1130580620080916200877F809362008FE99FE020
S11305900197F1F700C0000008951FB8779BFECFC4
S11305A080EC8FB9779BFECF809162008860809346
S11305B0620080916200877F809362008FE99FE0F0
S11305C00197F1F700C00000089590E131E020E2C6
S11305D03FB9779BFECF2FB9779BFECF8091620006
S11305E088608093620080916200877F80936200BC
S11305F0EFE9FFE03197F1F700C00000915041F7B7
S1130600089591E09FB9779BFECF8FB9779BFECF7A
S11306108091620088608093620080916200877F8D
S1130620809362008FE99FE00197F1F700C000001A
S11306300895FC0140E050E060E071E0DF01A40FA8
S1130640B51F8C917FB9779BFECF8FB9779BFECF77
S11306509091620098609093620090916200977FFD
S1130660909362008FE99FE00197F1F700C00000CA
S11306706F5F462F50E0DF010D900020E9F79D01E8
S11306802E1B3F0B2250310924173507B8F6089565
S11306908FEF99EF0197F1F700C0000088E0809395
S11306A061001FB8779BFECF80E38FB9779BFECFA5
S11306B08091620088608093620080916200877FED
S11306C0809362008FE99FE00197F1F700C000007A
S11306D01FB8779BFECF80E38FB9779BFECF8091C5
S11306E0620088608093620080916200877F8093BB
S11306F062008FE99FE00197F1F700C000001FB886
S1130700779BFECF80E38FB9779BFECF8091620009
S113071088608093620080916200877F809362008A
S11307208FE99FE00197F1F700C000001FB8779BA5
S1130730FECF88E38FB9779BFECF809162008860FB
S11307408093620080916200877F809362008FE9CA
S11307509FE00197F1F700C000001FB8779BFECF20
S113076088E08FB9779BFECF809162008860809388
S1130770620080916200877F809362008FE99FE02E
S11307800197F1F700C000001FB8779BFECF81E00E
S11307908FB9779BFECF809162008860809362005E
S11307A080916200877F809362008FE99FE00197C8
S11307B0F1F700C000001FB8779BFECF86E08FB929
S11307C0779BFECF80916200886080936200809165
S11307D06200877F809362008FE99FE00197F1F7C1
S11307E000C000001FB8779BFECF8CE08FB9779BC9
S11307F0FECF8091620088608093620080916200E5
S1130800877F809362008FE99FE00197F1F700C032
S1130810000008954F925F926F927F928F929F9201
S1130820AF92BF92CF92DF92EF92FF920F931F93FA
S1130830CF93DF93CDB7DEB769970FB6F894DEBFD9
S11308400FBECDBF142F422E5E2C002379F06B0116
S11308507C01CC24F7FCC394DD24EE24FF240C2D6E
S11308606B017C0197FDA5C0C701B601442009F4C2
S113087098C09E012F5F3F4F5901490166246A9435
S1130880640C712C3FEF631A730A6A0C7B1C2AE018
S113089030E040E050E00E94E407E62F2A8B3B8BD7
S11308A04C8B5D8B6A897B898C899D8920E32E0F13
S11308B0F40121934F016E167F0649F7992493940E
S11308C0940CF501E40DF11D2EE220832AE030E0C2
S11308D040E050E00E94E407E62F2A8B3B8B4C8BD0
S11308E05D8B6E8B7F8B888F998F6A897B898C89CE
S11308F09D8931E0390DD501A90DB11DE05DEC9361
S1130900932E611571058105910501F7112361F09D
S113091051104DC090E2311738F4F501E30FF11D89
S113092090833F5F1313F9CF002331F0F501E30FF8
S1130930F11D9DE290833F5F21E03150F501E30F0B
S1130940F11D90812FB9779BFECF9FB9779BFECF86
S11309509091620098609093620090916200977FFA
S1130960909362008FE99FE00197F1F700C00000C7
S11309703111E3CF69960FB6F894DEBF0FBECDBF39
S1130980DF91CF911F910F91FF90EF90DF90CF9067
S1130990BF90AF909F908F907F906F905F904F909B
S11309A00895912C9E012F5F3F4F59018FCF90E303
S11309B0B2CFF094E094D094C094C11CD11CE11C3B
S11309C0F11C52CF5F926F927F928F929F92AF925F
S11309D0BF92CF92DF92EF92FF920F931F93CF9328
S11309E0DF93CDB7DEB761970FB6F894DEBF0FBEC5
S11309F0CDBF5C01962E542E622E8B2C881C88242D
S1130A00881C782C9C0197FD9FC0552009F490C048
S1130A108E010F5F1F4F7801CC24CA94C50CD12CD2
S1130A208FEFC81AD80AC00ED11E6AE070E0C9015F
S1130A300E94D007462F242F372F805DF701819322
S1130A407F01EC15FD0589F7FF24F394F50CF801FB
S1130A50E50DF11D8EE2808301C0F92E6AE070E09D
S1130A60C9010E94D007462F242F372F91E09F0DF4
S1130A70F801EF0DF11D805D80832115310569F7C3
S1130A8061105BC0B7FC65C09920B1F0682D70E0BF
S1130A9080E2292F30E0492D50E0461B570B2417E4
S1130AA0350754F49F5FF801E20FF31F8083292F69
S1130AB030E024173507B4F3772031F0F801E90F5B
S1130AC0F11D8DE280839F5F21E09150F801E90FD1
S1130AD0F11D80812FB9779BFECF8FB9779BFECF15
S1130AE08091620088608093620080916200877FB9
S1130AF080936200EFE9FFE03197F1F700C0000056
S1130B009111E3CF61960FB6F894DEBF0FBECDBF4F
S1130B10DF91CF911F910F91FF90EF90DF90CF90D5
S1130B20BF90AF909F908F907F906F905F9008954B
S1130B30F12C8E010F5F1F4F91CF992009F4BCCF88
S1130B40682D70E080E3A5CF22273327281B390BBB
S1130B505CCFF394F394F801E90FF11D8DE28083E7
S1130B60992059F02F2D30E0492D50E024173507F6
S1130B7024F49F2D712C80E295CF9F2DA5CFCF9289
S1130B80DF92EF92FF920F931F93CF93DF93CDB732
S1130B90DEB7A0970FB6F894DEBF0FBECDBF8C01B1
S1130BA0F42EDC011C9276956795729562956F70B0
S1130BB067277F70672791E020E030E0E12CE0E0D8
S1130BC0A1E0B0E003C02F5F3F4F9F5FAB01022E57
S1130BD002C0569547950A94E2F740FF13C02223BA
S1130BE009F4D3C0213009F4D3C02A3009F4D4C0A5
S1130BF0A901425051096D0102C0CC0CDD1C4A957B
S1130C00E2F7EC0D9B30F9F6DD24D394FD1409F4DE
S1130C1042C04AE0BE016F5E7F4F8E2F90E00E947B
S1130C2063084AE0BE016F5F7F4F8E2D90E00E9403
S1130C306308BE016F5E7F4FC8010E945108F8012E
S1130C4001900020E9F73197CF01801B910B2EE230
S1130C5020830196BE016F5F7F4F800F911F0E941A
S1130C605C08F11084C0F80101900020E9F7319785
S1130C7083E490E091838083A0960FB6F894DEBF5E
S1130C800FBECDBFDF91CF911F910F91FF90EF90D9
S1130C90DF90CF90089529E0E29EC001112465E021
S1130CA070E00E94D007462F643608F06AC0F0E076
S1130CB082E1E89F70011124A0ECEA1AAEEFFA0A6F
S1130CC09701ADECBCEC0E940C089695879596951F
S1130CD08795969587959C01220F331F880F991F3E
S1130CE0880F991F880F991F820F931FE81AF90A1A
S1130CF0F42EBAE0EB9EF00C112473E6C72ECF1449
S1130D0020F4FF5F8CE9D82EFD0C29E0E29FC0019E
S1130D10112465E070E00E94D00780E2860F8F0FF7
S1130D204AE0BE016F5E7F4F90E00E9463084AE094
S1130D30BE016F5F7F4F8F2D90E00E946308BE015C
S1130D406F5E7F4FC8010E945108F8010190002096
S1130D50E9F73197CF01801B910B2EE22083019696
S1130D60BE016F5F7F4F800F911F0E945C08F801E6
S1130D7001900020E9F7319786E490E09183808325
S1130D807BCF4CE9460FF1E093CFF9E1EF0E1BCF97
S1130D90F2E3CF2EEC0C17CF8DE290E0D8018D93C7
S1130DA09C9332CF42E06EE571E080E90E948407B3
S1130DB080915E0190915F01982789279827089573
S1130DC01F920F920FB60F9211240BB60F922F930E
S1130DD03F938F939F93AF93BF93EF93FF93E091D0
S1130DE071008E2F90E0FC013897E135F105B0F0E9
S1130DF0809171008093600184E080937400FF917E
S1130E00EF91BF91AF919F918F913F912F910F904F
S1130E100BBE0F900FBE0F901F901895EA5BFF4F0B
S1130E200C94030880910301E0916101F091620147
S1130E30E80FF11D80917300808384E9809374002E
S1130E40DECF80916301809373001092030185E8E3
S1130E5080937400D4CF8091030190916401891729
S1130E6060F7E0916101F091620191E0980F909335
S1130E700301E80FF11D80818093730085E880935E
S1130E807400BDCF85EA80937400B9CF209103012B
S1130E908091640130E090E0019728173907DCF471
S1130EA085EC80937400ABCFE0916101F091620115
S1130EB08091030121E0280F20930301E80FF11D25
S1130EC08091730080838091640130E090E0019709
S1130ED0281739072CF385E88093740090CF80910C
S1130EE07400817008959091740090FDFCCF8E7F02
S1130EF08093630170936201609361014093640184
S1130F0085EA8093740008959091740090FDFCCF5D
S1130F1081608093630170936201609361014093E7
S1130F20640185EA8093740008958FEF80937300C1
S1130F30109271008CE080937000089587B38760ED
S1130F4087BB80E58DB981E08EB9809161008860AE
S1130F508093610080916200877F809362000E9489
S1130F6048030E94950778940E949D022FEF81EE1A
S1130F7094E0215080409040E1F700C000000E94BE
S1130F809D020E94B5020E94D20640E0BC018CE1A1
S1130F9091E00E94BF058CE191E00E941903E6CF25
S1130FA097FB072E16F4009407D077FD09D00E9412
S1130FB01B0807FC05D03EF4909581959F4F08953A
S1130FC0709561957F4F0895052E97FB1EF400944C
S1130FD00E94FB0757FD07D00E942F0807FC03D08F
S1130FE04EF40C94FB0750954095309521953F4F56
S1130FF04F4F5F4F089590958095709561957F4F01
S11310008F4F9F4F0895EE0FFF1F0024001C0BBE4F
S11310100790F691E02D0994A29FB001B39FC001FF
S1131020A39F700D811D1124911DB29F700D811D10
S11310301124911D0895AA1BBB1B51E107C0AA1FCF
S1131040BB1FA617B70710F0A61BB70B881F991F65
S11310505A95A9F780959095BC01CD010895A1E218
S11310601A2EAA1BBB1BFD010DC0AA1FBB1FEE1F1E
S1131070FF1FA217B307E407F50720F0A21BB30B69
S1131080E40BF50B661F771F881F991F1A9469F7E5
S113109060957095809590959B01AC01BD01CF0141
S11310A00895FB01DC010D900020E9F711970190F0
S11310B00D920020E1F70895FB01DC0101900D92EF
S11310C00020E1F70895BB274A3031F4992322F434
S11310D0BDE2909581959F4F0C946F08BB27FB014F
S11310E05527AA27880F991FAA1FA41710F0A41B1D
S11310F083955051B9F7A05DAA3308F0A95DA19377
S1131100009779F7B111B1931192CB010C9488082F
S1131110DC01FC01672F71917723E1F7329704C05A
S11311207C916D9370836291AE17BF07C8F30895E5
S1071130F894FFCF5D
S10511340B00AA
S9030000FC
