:100000000C9414010C9433010C9433010C943301BF
:100010000C9433010C9433010C9433010C94330190
:100020000C94E0040C9433010C94D6040C9433012A
:100030000C94C4040C9433010C9433010C943301DC
:100040000C9414050C9433010C9433010C9433017B
:100050000C9433010C9433010C9433010C94330150
:100060000C9433010C9433010C9433010C94330140
:100070000C9433010C9433010C9433010C94330130
:100080000C9433010C94F40B0C943301350C0C0CD0
:100090000C0C0C0C0C0C0C0C0C0C0C0C350C0C0C77
:1000A0000C0C0C0C0C0C0C0C0C0C0C0C3F0C0C0C5D
:1000B0000C0C0C0C0C0C0C0C0C0C0C0C0C0C0C0C80
:1000C0000C0C0C0C0C0C0C0C0C0C0C0C3F0C0C0C3D
:1000D0000C0C0C0C0C0C0C0C0C0C0C0C0C0C0C0C60
:1000E0000C0C0C0C0C0C0C0C0C0C0C0C560C0C0C06
:1000F0000C0C0C0C0C0C0C0C0C0C0C0C5A0C0C0CF2
:100100000C0C0C0C0C0C0C0C0C0C0C0C0C0C0C0C2F
:100110000C0C0C0C0C0C0C0C0C0C0C0C680C0C0CC3
:100120000C0C0C0C0C0C0C0C0C0C0C0C260C0040CD
:100130007A10F35A00A0724E18090010A5D4E800F6
:1001400000E87648170000E40B54020000CA9A3B0E
:10015000000000E1F5050000809698000000404294
:100160000F000000A0860100000010270000000022
:10017000E803000000006400000000000A00000026
:1001800000000100000000002C76D888DC674F08D2
:1001900023DFC1DFAE59E1B1B796E5E3E453C63AD8
:1001A000E651997696E8E6C28426EB898C9B62ED4F
:1001B000407C6FFCEFBC9C9F40F2BAA56FA5F49009
:1001C000055A2AF75C936B6CF9676DC11BFCE0E480
:1001D0000D47FEF520E6B500D0ED902E03009435D6
:1001E00077050080841E080000204E0A000000C829
:1001F0000C333333330F986E12831141EF8D21147A
:10020000893BE65516CFFEE6DB18D1844B381BF749
:100210007C1D901DA4BBE424203284725E228100E8
:10022000C9F124ECA1E53D2711241FBECFEFD0E199
:10023000DEBFCDBF12E0A0E0B1E0ECE5F9E200E006
:100240000BBF02C007900D92A433B107D9F723E08A
:10025000A4E3B2E001C01D92A537B207E1F70E9406
:10026000610F0C94AC140C940000E1E6F0E0808186
:100270008F778083E2E6F0E080818F77808387B19B
:10028000876487B986B1876886B90895CF93DF936D
:10029000369A349BFECF349AC4B1D5B16DEC70E080
:1002A0008C2F90E00E94F6119093BA028093B902CD
:1002B000C3BDDF91CF91089587B3876087BB80E589
:1002C0008DB981E08EB9E1E6F0E0808188608083BD
:1002D000E2E6F0E08081877F808308951FB8779BF6
:1002E000FECF8FB1089580B7886080BF87B78160E7
:1002F00087BF83B7816083BF08958D9A8EB589606B
:100300008EBD8FE99FE09BBD8ABD87B7806187BFA7
:10031000089587B7806487BF85B5896785BD88ECF8
:1003200083BD08958FB9779BFECF949A94980895D2
:1003300080913D028130A1F180E28093020180939F
:10034000030180930401809305018093060180934B
:100350000701E8E0F1E0A2E1B1E080E2819391E001
:10036000E231F907D9F7ECE7F2E081918D9382E071
:10037000E238F807D1F780E280931801ECE6F2E06A
:10038000A9E1B1E081918D9392E0E237F907D1F7CD
:1003900080E280931F0180932001809321010895C2
:1003A00081E4809302019CE4909303018093040113
:1003B00082E5809305018DE480930601CACF809188
:1003C0003702811114C080913D0281112AC08091B1
:1003D0003C028823B1F010923702809136028A30B5
:1003E00081F187B78F7E87BF1BBC1ABC08958091AF
:1003F0003D028111ECCF1092370280913C028111B5
:10040000EACF809136028A30E1F08091370288236A
:1004100041F387B7806187BF8FE99FE09BBD8ABDAD
:10042000089590915102809122019813D0CF90911C
:100430005002809138029813CACF81E0809337022E
:10044000C6CF81E08093370210923C0210923602B0
:1004500087B7806187BF8FE99FE09BBD8ABD089504
:10046000482FE82FF0E099B3EE0FFF1FED5AFD4F34
:1004700020813181220F331F306E892F90E002C01E
:10048000959587954A95E2F781709927282B392B06
:100490003183208381E021153F4F09F080E00895EA
:1004A000BF92CF92DF92EF92FF920F931F93CF9361
:1004B000DF931ABA8FEF8BBB88B3806788BB03E5E5
:1004C00012E0EE24E394F12CC0E0D0E0BB24B3941E
:1004D00022E6C22E25E2D22E09C028E0E216F1045F
:1004E00009F444C021962FEFE21AF20A99B3F801F9
:1004F00020813181220F331F306E892F90E00C2E26
:1005000002C0959587950A94E2F781709927822B0E
:10051000932BF801819391938F0181159F4FE9F6F9
:10052000C730D105C9F0C630D10509F446C0C53081
:10053000D105C9F1C430D10571F1C330D10541F104
:10054000C230D10551F6B0924502D0920101C0925D
:1005500000010E94D20CC6CF81E080934A029091A4
:100560003F02892780933F0210923E02E3E4F2E0CB
:100570008CE492E011928E179F07E1F7DF91CF9103
:100580001F910F91FF90EF90DF90CF90BF90089553
:10059000B0924602A7CFB092470280913C028B25D1
:1005A00080933C029FCFB092480280913D028B2500
:1005B00080933D02B092390295CFB092490280916A
:1005C0003E028B2580933E0210923F028BCF90918A
:1005D00050029C33DCF48091510288312CF010924F
:1005E000510297FD08C0089587FFFBCF87E18093F4
:1005F000510297FFF8CF8BE3809350028091510214
:10060000815087FD87E18093510208951092500236
:10061000809151028F5F8093510290E0DECF9091E4
:1006200038029C33DCF48091220188312CF0109246
:10063000220197FD08C0089587FFFBCF87E18093D3
:10064000220197FFF8CF8BE380933802809122013B
:10065000815087FD87E1809322010895109238022E
:10066000809122018F5F8093220190E0DECF809104
:100670003F02813099F080913E02813089F0809173
:100680003B02813079F080913A02813069F080E05C
:100690008FB9779BFECF949A9498089581E0F8CF14
:1006A00082E0F6CF88E0F4CF80E1F2CF93B180E42E
:1006B000982793B993B1892783B983B1805883B9B7
:1006C0001FB8779BFECF8FB180934F0283B18058C4
:1006D00083B940914F02542F87E090E061E070E0D1
:1006E0009B01082E01C0220F0A94EAF7209552239D
:1006F000019781309105A1F750934D02469546959B
:1007000087E090E061E070E09B01082E01C0220FBD
:100710000A94EAF720954223019781309105A1F7C9
:1007200040934B0280914202811107C050934E02C8
:1007300040934C0281E080934202533051F0509339
:100740004E02433031F140934C020E94E7020C9478
:100750000F0380914E02813009F451C0823079F745
:1007600080913F02882339F080915102815080931B
:1007700051021092B30280913E02882329F08091A9
:10078000220181508093220183E080934E02433006
:10079000D1F680914C028130E9F08230A1F680914F
:1007A0003F02882339F0809150028150809350029B
:1007B0001092B30280913E02882329F08091380282
:1007C00081508093380283E080934C020E94E702BC
:1007D0000C940F0380913F02882339F080915002DE
:1007E0008F5F809350021092B30280913E02882363
:1007F00051F3809138028F5F80933802E4CF80916B
:100800003F02882339F0809151028F5F809351021B
:100810001092B30280913E02882309F4B5CF8091F3
:1008200022018F5F80932201AFCFE82FF0E0EB5DD4
:10083000FE4F80810895CF93DF93A1E3B1E09DEC5B
:10084000699FE12D1124E695E695E6952AE0E29F61
:1008500060191124C62FD0E0CB5DDE4F28812C9388
:10086000E99F212D11242695269526953AE0239F70
:10087000E0191124F0E0EB5DFE4F208111962C93DE
:100880001197899FE12D1124E695E695E6952AE0DA
:10089000E29F80191124C82FD0E0CB5DDE4F888104
:1008A00013968C931397E99F912D11249695969505
:1008B00096953AE0939FE0191124F0E0EB5DFE4F2E
:1008C000808114968C93DF91CF91089500000000F1
:1008D00008959FEF9ABB882379F08130A9F0823088
:1008E00029F1833031F18430C1F0E82FF0E0EF5C82
:1008F000FE4F80818BBB089518BAE82FF0E0EF5CC3
:10090000FE4F80818BBB089590E198BBE82FF0E00B
:10091000EF5CFE4F80818BBB089590E498BBE82F7D
:10092000F0E0EF5CFE4F80818BBB089590E298BBB6
:10093000DCCF90E398BBD9CF8FEF8ABB00000000DB
:1009400018BA8BBBEFE9FFE03197F1F700C0000068
:1009500090E198BB8BBBEFE9FFE03197F1F700C066
:10096000000090E398BB8BBBEFE9FFE03197F1F714
:1009700000C0000090E498BB8BBB8FE99FE001971B
:10098000F1F700C0000008951F920F920FB60F926A
:1009900011248F939F9392B380E2892782BB9F910A
:1009A0008F910F900FBE0F901F9018951F920F926E
:1009B0000FB60F9211240F900FBE0F901F90189535
:1009C0001F920F920FB60F9211248F9381E08093A4
:1009D00065038F910F900FBE0F901F901895809117
:1009E0008C0290918D0290936602809365020E9422
:1009F000DF0B90938D0280938C02209165023091E1
:100A000066028217930779F041E0BC018CE792E01F
:100A10000E94F60A60918C0270918D0240E08CE693
:100A200092E00C94F60A08951F920F920FB60F925F
:100A300011240BB60F922F933F934F935F936F93B5
:100A40007F938F939F93AF93BF93EF93FF93809187
:100A500052028F5F80935202982F9F77E1F480912A
:100A6000B3028F5F8093B3022091240191E092271B
:100A700090932401913061F197E0909333018C338E
:100A800061F180913C028130E9F10E94EF040E9403
:100A90009801809152028F7111F40E9446010E94C8
:100AA000560382E091E00E94DE05FF91EF91BF9135
:100AB000AF919F918F917F916F915F914F913F91F6
:100AC0002F910F900BBE0F900FBE0F901F90189597
:100AD0009CEF909333018C33A1F6809150028F5F8D
:100AE000809350021092B3028C3359F680915102D8
:100AF0008F5F8093510210925002883111F610924C
:100B00005102BFCF809136028F5F80933602BDCFF6
:100B1000129A1A9A8AB781688ABF89B7806889BF92
:100B200008951F98179A1A9A8FE193E00197F1F7A9
:100B300000C000001A9890EA9A95F1F71798089566
:100B40000E94A90C129A1A9A8AB781688ABF89B73B
:100B5000806889BF78941F98179A1A9A8FE193E05A
:100B60000197F1F700C000001A9890EA9A95F1F702
:100B700017980E94F40D0E94F40D0E94F40D0E943B
:100B8000F40D0C94F40D91E0811101C090E09FB937
:100B9000779BFECF6FB9779BFECF80916200886014
:100BA0008093620080916200877F809362008FE96A
:100BB0009FE00197F1F700C00000089521E02FB9F0
:100BC000779BFECF20916302FC01E20FF11D808133
:100BD0008FB9779BFECF809162008860809362001E
:100BE00080916200877F80936200809163028F5FB3
:100BF00080936302803109F1803209F0089595ED08
:100C00009A95F1F700001FB8779BFECF82E08FB96D
:100C1000779BFECF80916200886080936200809114
:100C20006200877F809362008FE99FE00197F1F770
:100C300000C0000010926302089585ED8A95F1F7D7
:100C400000001FB8779BFECF80EC8FB9779BFECF5B
:100C50008091620088608093620080916200877F4B
:100C6000809362008FE99FE00197F1F700C00000D8
:100C700080916302C1CF660F660F660F605C1FB87C
:100C8000779BFECF6FB9779BFECF209162002860E3
:100C90002093620020916200277F20936200AFE9D9
:100CA000BFE01197F1F700C00000FC019C01285F34
:100CB0003F4F91E081919FB9779BFECF8FB9779B92
:100CC000FECF809162008860809362008091620014
:100CD000877F80936200AFE9BFE01197F1F700C012
:100CE0000000E217F30731F7089590E4899F600D43
:100CF0001124605C1FB8779BFECF6FB9779BFECF46
:100D00008091620088608093620080916200877F9A
:100D1000809362008FE99FE00197F1F700C0000027
:100D20000895811119C081E08FB9779BFECF80E3D0
:100D30008FB9779BFECF80916200886080936200BC
:100D400080916200877F809362008FE99FE0019726
:100D5000F1F700C0000008958436B0F48A3090F5B1
:100D600091E09FB9779BFECF9DEC899F912D112437
:100D7000969596959695FAE09F9F80191124805D2F
:100D80008FB9779BFECFD7CF99E2899F912D112400
:100D900092959F70905D21E02FB9779BFECF9FB910
:100DA000779BFECF90916200986090936200909143
:100DB0006200977F90936200EFE9FFE03197F1F7CF
:100DC00000C0000099E2899F912D112492959F7097
:100DD000282FF4E69F9F20191124922F2DEC929F2B
:100DE000912D1124969596959695905D21E02FB9B9
:100DF000779BFECF9FB9779BFECF90916200986062
:100E00009093620090916200977F90936200EFE967
:100E1000FFE03197F1F700C00000A2CF87FF0C94EC
:100E2000910691E09FB9779BFECF9DE29FB9779B9A
:100E3000FECF909162009860909362009091620062
:100E4000977F90936200EFE9FFE03197F1F700C0E0
:100E5000000081950C9491061FB8779BFECF8EE021
:100E60008FB9779BFECF809162008860809362008B
:100E700080916200877F809362008FE99FE00197F5
:100E8000F1F700C0000008951FB8779BFECF8CE0FB
:100E90008FB9779BFECF809162008860809362005B
:100EA00080916200877F809362008FE99FE00197C5
:100EB000F1F700C0000008951FB8779BFECF8EE1C8
:100EC0008FB9779BFECF809162008860809362002B
:100ED00080916200877F809362008FE99FE0019795
:100EE000F1F700C0000008951FB8779BFECF88E19E
:100EF0008FB9779BFECF80916200886080936200FB
:100F000080916200877F809362008FE99FE0019764
:100F1000F1F700C000000895E2E6F0E0808188600B
:100F200080838081877F808308951FB8779BFECF61
:100F300081E08FB9779BFECF8091620088608093BB
:100F4000620080916200877F809362008FE99FE05A
:100F50000197F1F700C0000008951FB8779BFECFFE
:100F600082E08FB9779BFECF80916200886080938A
:100F7000620080916200877F809362008FE99FE02A
:100F80000197F1F700C0000008951FB8779BFECFCE
:100F900080EC8FB9779BFECF809162008860809350
:100FA000620080916200877F809362008FE99FE0FA
:100FB0000197F1F700C00000089590E131E020E2D0
:100FC0003FB9779BFECF2FB9779BFECF8091620010
:100FD00088608093620080916200877F80936200C6
:100FE000EFE9FFE03197F1F700C00000915041F7C1
:100FF000089591E09FB9779BFECF8FB9779BFECF85
:101000008091620088608093620080916200877F97
:10101000809362008FE99FE00197F1F700C0000024
:101020000895FC0140E050E060E071E0DF01A40FB2
:10103000B51F8C917FB9779BFECF8FB9779BFECF81
:101040009091620098609093620090916200977F07
:10105000909362008FE99FE00197F1F700C00000D4
:101060006F5F462F50E0DF010D900020E9F79D01F2
:101070002E1B3F0B2250310924173507B8F608956F
:101080008FEF99EF0197F1F700C0000088E080939F
:1010900061001FB8779BFECF80E38FB9779BFECFAF
:1010A0008091620088608093620080916200877FF7
:1010B000809362008FE99FE00197F1F700C0000084
:1010C0001FB8779BFECF80E38FB9779BFECF8091CF
:1010D000620088608093620080916200877F8093C5
:1010E00062008FE99FE00197F1F700C000001FB890
:1010F000779BFECF80E38FB9779BFECF8091620014
:1011000088608093620080916200877F8093620094
:101110008FE99FE00197F1F700C000001FB8779BAF
:10112000FECF88E38FB9779BFECF80916200886005
:101130008093620080916200877F809362008FE9D4
:101140009FE00197F1F700C000001FB8779BFECF2A
:1011500088E08FB9779BFECF809162008860809392
:10116000620080916200877F809362008FE99FE038
:101170000197F1F700C000001FB8779BFECF81E018
:101180008FB9779BFECF8091620088608093620068
:1011900080916200877F809362008FE99FE00197D2
:1011A000F1F700C000001FB8779BFECF86E08FB933
:1011B000779BFECF8091620088608093620080916F
:1011C0006200877F809362008FE99FE00197F1F7CB
:1011D00000C000001FB8779BFECF8CE08FB9779BD3
:1011E000FECF8091620088608093620080916200EF
:1011F000877F809362008FE99FE00197F1F700C03D
:10120000000008954F925F926F927F928F929F920B
:10121000AF92BF92CF92DF92EF92FF920F931F9304
:10122000CF93DF93CDB7DEB769970FB6F894DEBFE3
:101230000FBECDBF142F422E5E2C002379F06B0120
:101240007C01CC24F7FCC394DD24EE24FF240C2D78
:101250006B017C0197FDA5C0C701B601442009F4CC
:1012600098C09E012F5F3F4F5901490166246A943F
:10127000640C712C3FEF631A730A6A0C7B1C2AE022
:1012800030E040E050E00E944D10E62F2A8B3B8B6F
:101290004C8B5D8B6A897B898C899D8920E32E0F1D
:1012A000F40121934F016E167F0649F79924939418
:1012B000940CF501E40DF11D2EE220832AE030E0CC
:1012C00040E050E00E944D10E62F2A8B3B8B4C8B68
:1012D0005D8B6E8B7F8B888F998F6A897B898C89D8
:1012E0009D8931E0390DD501A90DB11DE05DEC936B
:1012F000932E611571058105910501F7112361F0A8
:1013000051104DC090E2311738F4F501E30FF11D93
:1013100090833F5F1313F9CF002331F0F501E30F02
:10132000F11D9DE290833F5F21E03150F501E30F15
:10133000F11D90812FB9779BFECF9FB9779BFECF90
:101340009091620098609093620090916200977F04
:10135000909362008FE99FE00197F1F700C00000D1
:101360003111E3CF69960FB6F894DEBF0FBECDBF43
:10137000DF91CF911F910F91FF90EF90DF90CF9071
:10138000BF90AF909F908F907F906F905F904F90A5
:101390000895912C9E012F5F3F4F59018FCF90E30D
:1013A000B2CFF094E094D094C094C11CD11CE11C45
:1013B000F11C52CF5F926F927F928F929F92AF9269
:1013C000BF92CF92DF92EF92FF920F931F93CF9332
:1013D000DF93CDB7DEB761970FB6F894DEBF0FBECF
:1013E000CDBF5C01962E542E622E8B2C881C882437
:1013F000881C782C9C0197FD9FC0552009F490C053
:101400008E010F5F1F4F7801CC24CA94C50CD12CDC
:101410008FEFC81AD80AC00ED11E6AE070E0C90169
:101420000E943910462F242F372F805DF7018193BA
:101430007F01EC15FD0589F7FF24F394F50CF80105
:10144000E50DF11D8EE2808301C0F92E6AE070E0A7
:10145000C9010E943910462F242F372F91E09F0D8C
:10146000F801EF0DF11D805D80832115310569F7CD
:1014700061105BC0B7FC65C09920B1F0682D70E0C9
:1014800080E2292F30E0492D50E0461B570B2417EE
:10149000350754F49F5FF801E20FF31F8083292F73
:1014A00030E024173507B4F3772031F0F801E90F65
:1014B000F11D8DE280839F5F21E09150F801E90FDB
:1014C000F11D80812FB9779BFECF8FB9779BFECF1F
:1014D0008091620088608093620080916200877FC3
:1014E00080936200EFE9FFE03197F1F700C0000060
:1014F0009111E3CF61960FB6F894DEBF0FBECDBF5A
:10150000DF91CF911F910F91FF90EF90DF90CF90DF
:10151000BF90AF909F908F907F906F905F90089555
:10152000F12C8E010F5F1F4F91CF992009F4BCCF92
:10153000682D70E080E3A5CF22273327281B390BC5
:101540005CCFF394F394F801E90FF11D8DE28083F1
:10155000992059F02F2D30E0492D50E02417350700
:1015600024F49F2D712C80E295CF9F2DA5CF5D9BFC
:10157000FECF8CB95D9BFECF0895FC01908199232D
:1015800049F031965D9BFECF9CB95D9BFECF91915A
:101590009111F8CF08959C01FC014491442369F016
:1015A0000196F90124915D9BFECF2CB95D9BFECF86
:1015B0009C01FC0144914111F3CF08958AB18861E7
:1015C0008AB9E5E9F0E0808186608083109290001E
:1015D00080E189B9089580E89EE302C0019721F077
:1015E0005F9BFCCF8CB1089580E008954F925F928D
:1015F0006F927F92AF92BF92CF92DF92EF92FF9263
:101600000F931F93CF93DF937C01A42E8B0116952C
:101610000795129502950F7001271F700127F7019A
:101620001082BB24B394C0E0D0E0412C512C320195
:10163000CC24C394D12CC6010C2E02C0880F991F54
:101640000A94E2F780239123892BF9F0CC2309F443
:1016500069C0C13009F49DC0C23009F48FC0C330E5
:1016600009F4A2C0C43009F468C0C53009F47BC0D5
:10167000C63009F46DC020E030E040E052E4C30120
:10168000B2010E94AC102B013C0128E0B21619F007
:101690002196B394D0CFAA2041F126E636E646EE55
:1016A0005FE3C301B2010E94691120E030E040E035
:1016B00052E40E94AC10870122E030E045E050E0A7
:1016C0000E94D61181E0A81619F180E0DF91CF9138
:1016D0001F910F91FF90EF90DF90CF90BF90AF9050
:1016E0007F906F905F904F900895870122E030E0E7
:1016F00045E050E0C301B2010E94D611F70101900C
:101700000020E9F7319783E490E091838083DDCF77
:10171000F70101900020E9F7319786E490E091838A
:101720008083D3CF20E030E040E85EE3C301B20124
:101730000E94AC102B013C01ABCF20E030E040E830
:1017400050E4C301B2010E94AC102B013C01A0CFB8
:1017500020E030E040E851E4C301B2010E94AC1047
:101760002B013C0195CF20E030E040E051E4C30183
:10177000B2010E94AC102B013C018ACF20E030E086
:1017800040E85FE3C301B2010E94AC102B013C01B1
:101790007FCF20E030E040E05FE3C301B2010E9470
:1017A000AC102B013C0174CF20E030E040E050E46D
:1017B000C301B2010E94AC102B013C0169CF42E091
:1017C0006DE373E080E90E94980C8FE39FE101973D
:1017D000F1F700C00000EDE3F3E0808190E0982F86
:1017E00088272181822B08951F920F920FB60F92A6
:1017F00011240BB60F922F933F938F939F93AF9328
:10180000BF93EF93FF93E09171008E2F90E0FC0166
:101810003897E135F105B0F08091710080933F0376
:1018200084E080937400FF91EF91BF91AF919F91FD
:101830008F913F912F910F900BBE0F900FBE0F9085
:101840001F901895EA5BFF4F0C946C108091640216
:10185000E0914003F0914103E80FF11D8091730086
:10186000808384E980937400DECF8091420380936B
:1018700073001092640285E880937400D4CF809145
:10188000640290914303891760F7E0914003F0915F
:10189000410391E0980F90936402E80FF11D80815D
:1018A0008093730085E880937400BDCF85EA8093B0
:1018B0007400B9CF209164028091430330E090E03E
:1018C000019728173907DCF485EC80937400ABCFBF
:1018D000E0914003F09141038091640221E0280FE0
:1018E00020936402E80FF11D809173008083809142
:1018F000430330E090E00197281739072CF385E87F
:101900008093740090CF80917400817008959091BD
:10191000740090FDFCCF8E7F80934203709341034F
:10192000609340034093430385EA809374000895D5
:101930009091740090FDFCCF81608093420370937E
:101940004103609340034093430385EA809374000E
:1019500008958FEF80937300109271008CE0809354
:101960007000089584E18093440341E064E473E0EF
:1019700082E20E94870C0E94830C8111FCCF8FEAC7
:1019800094E00197F1F700C0000041E066E673E0E3
:1019900082E20E94980C0E94830C8111FCCF8091FE
:1019A0006603089580E2809344031092450380917A
:1019B0000001909101019093460380934703109298
:1019C00048031092650345E064E473E082E20E94FC
:1019D000870C80916503811101C0FFCF089580E4D9
:1019E00080934403109245038091B1029091B2021A
:1019F0009093460380934703109248031092490343
:101A00001092650346E064E473E082E20E94870C72
:101A100080916503811101C0FFCF0895E4E4F3E0F4
:101A200080E4808311828091B4029091B502928308
:101A30008383148281E0858346E0BF0182E20E94B5
:101A4000870C2FEF87EE93E0215080409040E1F724
:101A500000C00000089580913402909135028130D9
:101A6000910551F100F1029741F46091B402709137
:101A7000B50287EB92E00E9497146091900287E68E
:101A800092E00E948A1481E18093440341E064E47F
:101A900073E082E20E94870C87ED94E00197F1F7F2
:101AA00000C000000895609100017091010188E676
:101AB00092E00E949714E1CF6091B1027091B2025E
:101AC0008EE892E00E949714D8CF83E2809344037B
:101AD00081E08093450342E064E473E082E20E9487
:101AE000870C0E94830C8111FCCF8FEA94E0019750
:101AF000F1F700C0000048E06DE473E082E20E946C
:101B0000980C0E94830C8111FCCF089582E280938F
:101B1000440381E08093450342E064E473E082E2A1
:101B20000E94870C0E94830C8111FCCF8FEA94E005
:101B30000197F1F700C0000048E06DE473E082E235
:101B40000E94980C0E94830C8111FCCF089582E4BE
:101B50008093440381E08093450342E064E473E0B2
:101B600082E20E94870C0E94830C8111FCCF8FEAD5
:101B700094E00197F1F700C0000048E06DE473E0E5
:101B800082E20C94980C83E48093440381E0809378
:101B9000450342E064E473E082E20E94870C0E9405
:101BA000830C8111FCCF8FEA94E00197F1F700C01C
:101BB000000048E06DE473E082E20C94980CE4E4E9
:101BC000F3E022E12083118292838383748365830F
:101BD00046E0BF0182E20E94870C8FE39CE90197F7
:101BE000F1F700C00000089588E692E00E94841496
:101BF000909301018093000187E692E00E947C149B
:101C000080939002E4E4F3E081E0808380E58183C7
:101C100085E0828343E0BF0182E20E94870C2FEFC0
:101C20008BED95E0215080409040E1F700C000002E
:101C300061E070E081E090E00C94DF0D8EE892E0CE
:101C40000E9484149093B2028093B10287E692E0DE
:101C50000E947C1480939002E4E4F3E081E08083AE
:101C600081E5818385E0828343E0BF0182E20E94B7
:101C7000870C2FEF8BED95E0215080409040E1F7ED
:101C800000C0000061E070E081E090E00C94DF0DA6
:101C900087EB92E00E9484149093B5028093B40283
:101CA00087E692E00E947C1480939002E4E4F3E0E3
:101CB00081E0808381E5818385E0828343E0BF0109
:101CC00082E20E94870C2FEF8BED95E0215080403F
:101CD0009040E1F700C0000060E070E082E093E334
:101CE0000E94DF0D61E071E082E091E30E94DF0D70
:101CF00061E070E081E090E00C94DF0D80E1809382
:101D0000440341E064E473E082E20E94870C0E9495
:101D1000830C8111FCCF8FEA94E00197F1F700C0AA
:101D2000000048E065E573E082E20E94980C0E94A2
:101D3000830C8111FCCF86E391E00E94BD0A8FE6FF
:101D400091E00E94BD0A88EA91E00E94BD0A80915C
:101D500056034AE06BEE72E090E00E94F8118BEEC1
:101D600092E00E94BD0A85EB91E00E94BD0A80913D
:101D700057034AE06BEE72E090E00E94F8118BEEA0
:101D800092E00E94BD0A85EA91E00C94BD0AFF92A0
:101D90000F931F93CF93DF93CDB7DEB7A8970FB6FE
:101DA000F894DEBF0FBECDBF83EC91E00E94BD0A68
:101DB00083ED91E00E94BD0A0DE413E0F8018081FB
:101DC00040E16BEE72E090E00E94F8118BEE92E041
:101DD0000E94BD0A85EA91E00E94BD0A83EE91E06F
:101DE0000E94BD0AF80181814AE06BEE72E090E04A
:101DF0000E94F8118BEE92E00E94BD0A85EA91E004
:101E00000E94BD0AF801F38083EF91E00E94BD0AB1
:101E10004AE06BEE72E08F2D90E00E94F8118BEE9D
:101E200092E00E94BD0A85EA91E00E94BD0A83E02B
:101E300092E00E94BD0AF801828140E1BE016F5F1D
:101E40007F4F90E00E94F811CE0101960E94BD0ADA
:101E500085EA91E00E94BD0A83E192E00E94BD0AFA
:101E6000F801838140E1BE016F5F7F4F90E00E94E7
:101E7000F811CE0101960E94BD0A85EA91E00E9408
:101E8000BD0A83E292E00E94BD0AF801848140E12C
:101E90006BEE72E090E00E94F8118BEE92E00E94EF
:101EA000BD0A85EA91E00E94BD0AA8960FB6F89493
:101EB000DEBF0FBECDBFDF91CF911F910F91FF907D
:101EC000089581B3806381BB87B3806F87BBA09A7D
:101ED000C0ECC2B980B7886080BF87B7816087BF18
:101EE00083B7816083BF8D9A8EB589608EBD8FE97F
:101EF0009FE09BBD8ABD87B7806187BF87B780643D
:101F000087BF85B5896785BD88EC83BD87B387604A
:101F100087BB80E58DB981E08EB9809161008860D2
:101F20008093610080916200877F8093620080913E
:101F300061008F7780936100809162008F7780933A
:101F4000620087B1876487B986B1876886B90E94C5
:101F50004008C3B90E94A90C0E94A00582E695E240
:101F600090930101809300010E94D20C10923B03D8
:101F700041E06BE373E080E90E94870C8FE39FE10F
:101F80000197F1F700C000000E949507D0E0CDEC6A
:101F900008C08D2FDF5F0E9469040E9437030E94F2
:101FA000DF01AFE9BFE01197F1F700C000000E9428
:101FB000500280913E02813009F44CC08091500261
:101FC000209151028C9FE12D1124E695E695E6952E
:101FD000BAE0EB9F8019112490E08B5D9E4FDC01ED
:101FE0008C9180933101EC9F812D112486958695EB
:101FF0008695BAE08B9FE0191124F0E0EB5DFE4F6F
:102000008081809332012C9FE12D1124E695E69585
:10201000E695A22F8AE0E89FA0191124B0E0AB5DFD
:10202000BE4F8C9180933401EC9F812D11248695B5
:10203000869586959AE0899FE0191124F0E0EB5D82
:10204000FE4F808180933501D53008F4A2CFD1E0D6
:1020500080E0A1CF80913802209122018C9FE12D58
:102060001124E695E695E695AAE0EA9F80191124E9
:10207000B3CF97FB072E16F4009407D077FD09D055
:102080000E94751007FC05D03EF4909581959F4FF6
:102090000895709561957F4F0895052E97FB1EF466
:1020A00000940E94641057FD07D00E94891007FC1D
:1020B00003D04EF40C9464105095409530952195C2
:1020C0003F4F4F4F5F4F0895909580957095619564
:1020D0007F4F8F4F9F4F0895EE0FFF1F0024001C6E
:1020E0000BBE0790F691E02D0994AA1BBB1B51E192
:1020F00007C0AA1FBB1FA617B70710F0A61BB70B78
:10210000881F991F5A95A9F780959095BC01CD011C
:102110000895A1E21A2EAA1BBB1BFD010DC0AA1F28
:10212000BB1FEE1FFF1FA217B307E407F50720F040
:10213000A21BB30BE40BF50B661F771F881F991FBB
:102140001A9469F760957095809590959B01AC0104
:10215000BD01CF0108955058BB27AA270E94C31084
:102160000C942F110E94211138F00E94281120F0A8
:1021700039F49F3F19F426F40C941E110EF4E095E7
:10218000E7FB0C941811E92F0E94401158F3BA177D
:10219000620773078407950720F079F4A6F50C947D
:1021A00062110EF4E0950B2EBA2FA02D0B01B90190
:1021B00090010C01CA01A0011124FF27591B99F0BD
:1021C000593F50F4503E68F11A16F040A22F232FC9
:1021D000342F4427585FF3CF469537952795A79519
:1021E000F0405395C9F77EF41F16BA0B620B730BC0
:1021F000840BBAF09150A1F0FF0FBB1F661F771F31
:10220000881FC2F70EC0BA0F621F731F841F48F4E5
:10221000879577956795B795F7959E3F08F0B0CF6E
:102220009395880F08F09927EE0F97958795089555
:1022300097F99F6780E870E060E008959FEF80EC79
:10224000089500240A94161617061806090608951C
:1022500000240A9412161306140605060895092E82
:102260000394000C11F4882352F0BB0F40F4BF2BF1
:1022700011F460FF04C06F5F7F4F8F4F9F4F089531
:1022800057FD9058440F551F59F05F3F71F0479527
:10229000880F97FB991F61F09F3F79F0879508950C
:1022A000121613061406551FF2CF4695F1DF08C02B
:1022B000161617061806991FF1CF86957105610548
:1022C00008940895E894BB2766277727CB0197F9F0
:1022D00008950E947C110C942F110E94211138F056
:1022E0000E94281120F0952311F00C9418110C94E1
:1022F0001E1111240C9463110E94401170F3959FDC
:10230000C1F3950F50E0551F629FF001729FBB27EC
:10231000F00DB11D639FAA27F00DB11DAA1F649F88
:102320006627B00DA11D661F829F2227B00DA11D3B
:10233000621F739FB00DA11D621F839FA00D611DC1
:10234000221F749F3327A00D611D231F849F600DE2
:10235000211D822F762F6A2F11249F5750409AF00B
:10236000F1F088234AF0EE0FFF1FBB1F661F771F97
:10237000881F91505040A9F79E3F510580F00C9462
:1023800018110C9463115F3FE4F3983ED4F38695E3
:1023900077956795B795F795E7959F5FC1F7FE2B02
:1023A000880F911D9695879597F90895EF920F9351
:1023B0001F93CF93DF93E80147FD02C034E001C0D3
:1023C00034E1042E000C550B57FF03C05195419585
:1023D0005109E32E022F242FAE010E941D12CE01BF
:1023E000DF91CF911F910F91EF9008950C943910C8
:1023F000BB274A3031F4992322F4BDE290958195B0
:102400009F4F0C940412BB27FB015527AA27880F66
:10241000991FAA1FA41710F0A41B83955051B9F758
:10242000A05DAA3308F0A95DA193009779F7B111D7
:10243000B1931192CB010C946C148F929F92AF9236
:10244000BF92CF92DF92EF92FF920F931F93CF93A1
:10245000DF93CDB7DEB729970FB6F894DEBF0FBE76
:10246000CDBF6A01122FB02E2BE3201720F0FF24DE
:10247000F394F00E02C02CE3F22E0F2D27E0AE01F4
:102480004F5F5F4F0E949413BC014981842F897074
:10249000813031F0E1FC06C0E0FE06C090E205C0EC
:1024A0009DE203C09BE201C090E05E2D507143FFAE
:1024B0003CC0911102C083E001C084E0811718F490
:1024C000212F281B01C020E051110BC0F601822FE3
:1024D00030E2882319F031938150FBCFC20ED11C1A
:1024E00020E0992329F0D6019C93F60131966F01E3
:1024F000C6010396E2FE0AC03EE4D6013C9341E4E5
:1025000011964C93119712963C9306C03EE6F60145
:10251000308341E641833283FC01322F40E2332392
:1025200009F442C041933150FACF42FF44C09111A7
:1025300002C083E001C084E0811718F4212F281B1A
:1025400001C020E051110BC0F601822F30E2882338
:1025500019F031938150FBCFC20ED11C20E099239A
:1025600029F0D6019C93F60131966F01C6010396BE
:10257000E2FE0BC039E4D6013C933EE411963C9355
:10258000119736E412963C9307C039E6F601308382
:102590003EE6318336E63283FC01322F40E23323BC
:1025A00019F041933150FBCFFC01E20FF11D108275
:1025B0008EEF9FEFA6C021E030E0911102C020E035
:1025C00030E0161617061CF4FB01319602C0E1E05C
:1025D000F0E02E0F3F1FBB2021F0EB2DF0E03196F5
:1025E00002C0E0E0F0E02E0F3F1FE12FF0E02E17D9
:1025F0003F071CF4121B212F01C020E08E2D887193
:1026000059F4F601822F30E2882319F0319381507A
:10261000FBCFC20ED11C20E0992329F0D6019C9358
:10262000F60131966F0151110BC0F601822F90E334
:10263000882319F091938150FBCFC20ED11C20E06A
:102640000F2D060F9A81342F307144FF03C0913350
:1026500009F40150101624F4093018F008E001C004
:1026600001E0AB0177FF02C040E050E0FB01E41B5A
:10267000F50BA1E0B0E0AC0FBD1FEA0FFB1F8EE22F
:10268000A82E4B01801A91080B2D10E01195019591
:1026900011094F3FBFEF5B0721F4D601AC921196B1
:1026A0006D01641775072CF08416950614F481816A
:1026B00001C080E3415051093196D60111967D0148
:1026C0004017510724F0D6018C936701E2CF6417BD
:1026D000750739F4963320F4953319F4311101C09C
:1026E00081E3F6018083F701822F90E2882319F0BD
:1026F00091938150FBCFF701E20FF11D108280E032
:1027000090E029960FB6F894DEBF0FBECDBFDF91E3
:10271000CF911F910F91FF90EF90DF90CF90BF90DE
:10272000AF909F908F900895283008F027E03327CE
:10273000DA01990F311D87FD9160009661057105E1
:1027400039F432602E5F3D9330E32A95E1F7089526
:102750009F3F30F080387105610509F03C5F3C5FB8
:102760003D93913008F08068911DDF93CF931F93C4
:102770000F93FF92EF92192F987F9695E92F9695D8
:102780009695E90FFF27E857FE4F99273327EE2448
:10279000FF24A701E70105900894079428F4360F59
:1027A000E71EF81E491F511D660F771F881F991FCE
:1027B0000694A1F70590079428F4E70EF81E491F28
:1027C000561FC11D770F881F991F661F0694A1F71A
:1027D0000590079428F4F80E491F561FC71FD11DF6
:1027E000880F991F661F771F0694A1F7059007941D
:1027F00020F4490F561FC71FD81F990F661F771F58
:10280000881F0694A9F784911095177041F0D6950A
:10281000C79557954795F794E7941A95C1F7EEE257
:10282000F1E0689415901591359165919591059019
:102830007FE27395E118F10A430B560BC90BD009DF
:10284000C0F7E10CF11E431F561FC91FD01D7EF4B7
:10285000703311F48A95E6CFE894015030F0080FF8
:102860000AF40027021708F4202F2395022F7A3349
:1028700028F079E37D932A95E9F710C07D932A9596
:1028800089F6069497956795379517951794E118EB
:10289000F10A430B560BC90BD00998F023957E9192
:1028A00073957A3308F070E37C932013B8F77E9128
:1028B00070617D9330F0839571E37D9370E32A9589
:1028C000E1F71124EF90FF900F911F91CF91DF91CD
:1028D000992787FD90950895DC01FC01672F719180
:1028E0007723E1F7329704C07C916D9370836291F6
:1028F000AE17BF07C8F30895E199FECF9FBB8EBB0B
:10290000E09A99278DB30895A8E1B0E042E050E045
:102910000C949E14262FE199FECF9FBB8EBB2DBB3E
:102920000FB6F894E29AE19A0FBE019608950E94BC
:102930008A14272F0C948B14DC01CB01FC01E19944
:10294000FECF06C0FFBBEEBBE09A31960DB20D92F2
:0C29500041505040B8F70895F894FFCFB4
:10295C00262A2000000000000000000000000000FB
:10296C00000000000000000000000000000000005B
:10297C0000000C0101C0F9A4B0999282F880987FF4
:10298C00FF0000FC00005369343733342052657665
:10299C003A20206C61737420322064696769747307
:1029AC00206F662070617274206E6F2E2020206361
:1029BC006869702072657620202020200A0D002086
:1029CC002020202020202020202020202D2D2D2DC7
:1029DC002D2D2D2D2D2D2D2D2D2D2D2D2D2D2D2D1B
:1029EC002D2D2D2D2D2020202D2D2D2D2D2D2D2D32
:1029FC0020202020200A0D00202020202020202014
:102A0C0020202020202020202020202020202020BA
:102A1C00202000464D5F5253515F5354415455533F
:102A2C003A20007374617475732062797465202088
:102A3C00203A007265737031202020202020202045
:102A4C00203A006672657120202020202020202052
:102A5C00203A006672657120686967682020202022
:102A6C00203A0066726571206C6F77202020202040
:102A7C00203A00727373692020202020202020200F
:042A8C00203A0000EC
:00000001FF
